:020000040800F2
:10000000805C0020E9020008BD3600088931000844
:10001000B93600088106000801420008000000000F
:10002000000000000000000000000000290200089D
:10003000210800080000000085020008D3360008EF
:100040000303000803030008030300080303000878
:100050000303000803030008030300080303000868
:100060000303000803030008030300080303000858
:100070000303000803030008030300080303000848
:100080000303000803030008030300080303000838
:1000900085060008030300080303000803030008A3
:1000A0000303000803030008030300080303000818
:1000B0000303000803030008030300080303000808
:1000C00003030008030300080303000803030008F8
:1000D0000303000875410008030300080303000838
:1000E00003030008030300080303000803030008D8
:1000F00003030008030300080303000803030008C8
:1001000003030008030300080303000803030008B7
:10011000030300080303000803030008B9370008BD
:100120000303000803030008E506000803030008B2
:100130000303000803030008030300080303000887
:100140000303000803030008030300080303000877
:100150000303000803030008030300080303000867
:100160000303000803030008030300080303000857
:100170000303000803030008030300080000000055
:10018000030300080303000800F002F800F03CF845
:100190000AA090E8000C82448344AAF10107DA45E2
:1001A00001D100F031F8AFF2090EBAE80F0013F0F8
:1001B000010F18BFFB1A43F00103184768620000E3
:1001C00088620000103A24BF78C878C1FAD8520774
:1001D00024BF30C830C144BF04680C6070470000C1
:1001E0000023002400250026103A28BF78C1FBD840
:1001F000520728BF30C148BF0B6070471FB506F0DB
:10020000C9F81FBD10B510BD00F0D0F91146FFF7B9
:10021000F5FF04F017FA00F0EEF903B4FFF7F2FF70
:1002200003BC00F0F5F900002C4B19680868B0E831
:10023000F04F80F30988BFF36F8F4FF0000080F319
:10024000118870470000000008480068006880F3CB
:1002500008884FF0000080F3148862B661B6BFF3DF
:100260004F8FBFF36F8F00DF00BF00BF08ED00E0CE
:10027000DFF80C00016841F470010160704700BFB5
:1002800088ED00E0EFF30980BFF36F8F134B1A681E
:100290001EF0100F08BF20ED108A20E9F04F10600B
:1002A00009B44FF0500080F31188BFF34F8FBFF3B4
:1002B0006F8F05F0ADFA4FF0000080F3118809BC94
:1002C00019680868B0E8F04F1EF0100F08BFB0ECD6
:1002D000108A80F30988BFF36F8F70473C000020BD
:1002E000EFF3058070470000094880470948004740
:1002F000FEE7FEE7FEE7FEE7FEE7FEE7FEE7FEE7D6
:10030000FEE7FEE704480549054A064B7047000032
:10031000A53700088901000880500020805C00207B
:10032000805400208054002053EA020C00F06980C1
:100330002DE9F04B4FF00006002B1FBFB3FA83F5F9
:1003400003FA05F424FA05F65E4012BF1643B2FA2A
:1003500082F502FA05F4C5F120051EBF22FA05FC5C
:1003600044EA0C04203556EA044C4FEA144418BF02
:10037000641C4FF000084FF00009904271EB030C31
:1003800039D3002919BFB1FA81F701FA07F6B0FA9B
:1003900080F700FA07F6C7F120071EBF20FA07FC16
:1003A00046EA0C062037B6FBF4FCA7EB0507103F26
:1003B00007F01F0BCBF120060CFA0BFB2CFA06F60C
:1003C00044BFB3460026202FA4BF5E464FF0000B6B
:1003D0005BEA060C08BF4FF0010B19EB0B09ABFBF6
:1003E000027C48EB0608C01B06FB02CC0BFB03CCCF
:1003F00071EB0C01C1E70B46024641464846BDE899
:10040000F08B13B54FF000004FF00001AFF3008008
:10041000BDE81C407047032A40F2308010F0030C06
:1004200000F0158011F8013BBCF1020F624498BF47
:1004300011F801CB00F8013B38BF11F8013BA2F1E4
:10044000040298BF00F801CB38BF00F8013B11F05F
:10045000030300F05780083AC0F0088051F8043BCD
:10046000083A51F804CBA0E80810F5E7121D5CBF6C
:1004700051F8043B40F8043BAFF30080D20724BF9F
:1004800011F8013B11F801CB48BF11F8012B24BF33
:1004900000F8013B00F801CB48BF00F8012B704782
:1004A00002F0FF0343EA032242EA024200F05EB890
:1004B0004FF0000200B5134694469646203922BFFD
:1004C000A0E80C50A0E80C50B1F12001BFF4F7AF48
:1004D000090728BFA0E80C5048BF0CC05DF804EB2A
:1004E000890028BF40F8042B08BF704748BF20F898
:1004F000022B11F0804F18BF00F8012B7047704796
:100500007047704710B5203AC0F00B80B1E8185022
:10051000203AA0E81850B1E81850A0E81850BFF4ED
:10052000F5AF5FEA027C24BFB1E81850A0E818508C
:1005300044BF18C918C0BDE810405FEA827C24BFE0
:1005400051F8043B40F8043B08BF7047D20728BF6E
:1005500031F8023B48BF11F8012B28BF20F8023BBD
:1005600048BF00F8012B70474FF000020429C0F08B
:10057000128010F0030C3FF49DAFCCF1040CBCF1E1
:10058000020F18BF00F8012BA8BF20F8022BA1EB27
:100590000C01FFF78FBF5FEAC17C24BF00F8012B7D
:1005A00000F8012B48BF00F8012B7047754600F09A
:1005B0002BF8AE4605006946534620F007008546F5
:1005C00018B020B5FFF79EFEBDE820404FF00006B2
:1005D0004FF000074FF000084FF0000B21F007012B
:1005E000AC46ACE8C009ACE8C009ACE8C009ACE86E
:1005F000C0098D46704710B50446AFF30080204611
:10060000BDE81040FFF709BE004870471C500020AD
:1006100001491820ABBEFEE726000200704700002B
:10062000124A12685063114A126891630F4A1268A5
:10063000D0630E4A126811640D4A126850630C4A66
:10064000126891630B4A126890630B4A12689163B7
:10065000084A1268D063074A12681164074A126890
:100660005063064A1268916370470000B00400208E
:10067000F80400204005002088050020D005002057
:1006800000BFFEE710B5024800F0DEFA10BD000022
:1006900060040020F8B507460C4615461E464FF488
:1006A00000700D49086000208860C860082008615B
:1006B000380A0A4908704F70200A8870CC70280ADE
:1006C00008714D71300A8871CE716B460A46024935
:1006D000034800F0BEF8F8BD1C010020080000200F
:1006E0006004002010B5024800F04EFE10BD00006E
:1006F000A00600200146087810381823B0FBF3F25A
:100700000848805CC865032A05D908686FF30900AA
:10071000001D886503E008686FF309008865886D2F
:1007200070470000E8630008014600208A6A8B6970
:10073000CBB932B1012A0DD0022A03D0032A10D13D
:100740000EE000BFCB6A03F08073B3F1807F00D16D
:10075000012007E0CB6AB3F1C07F00D1012001E0A6
:1007600000E000BF34E08B69B3F5005F1AD132B10D
:10077000012A07D0022A03D0032A11D10AE000BFC0
:1007800001200EE0CB6A03F08073B3F1807F00D1CB
:10079000012006E0CB6AB3F1C07F00D1012000E068
:1007A00000BF15E032B1012A05D0022A04D0032A85
:1007B0000CD103E000BF00BF012008E0CB6A03F0CA
:1007C0008073B3F1807F00D1012000E000BF00BF43
:1007D000704730B50468246824F4802405682C60D0
:1007E000046863608468402C04D10468A2600468D3
:1007F000E16003E00468A1600468E26030BD10B508
:100800000246002009E043005B1CD35C12F8104054
:1008100043EA042321F81030401C0D28F3DB10BDFF
:10082000704772B600BFFEE710B5024692F820305E
:10083000012B01D0022B06D11068406908431468CF
:100840006061002010BD506A40F480205062012099
:10085000F8E7F0B504460D461E4694F8207020686F
:100860008368A86800B900E000BF012F01D0022F03
:100870007CD103F0806030B903F0006018B903F058
:100880008050002873D0C3F30161022905D9606A42
:1008900040F4000060620120F0BD0120884030601B
:1008A000A86860B9B5F800C0E86840EA4C5C206808
:1008B00000F5C07000EB0110C0F800C00FE0D5E9F2
:1008C00001C040EACC00D5F80CC040EA0C00D4F8D6
:1008D00000C00CF5C07C0CEB011CCCF80000D5F876
:1008E00010C0206800F5C07000EB0110C0F804C013
:1008F000287D01280ED1206800F5C07000EB0110A2
:10090000406840F4807C206800F5C07000EB011066
:10091000C0F804C0D079000692F806C040EA0C4046
:1009200092F805C040EA0C2C10794CEA000C2068C3
:1009300000F5C07000EB0110C0F80CC0D0780006C4
:1009400092F802C040EA0C4092F801C040EA0C2044
:1009500092F800C040EA0C00D4F800C00CF5C07C4E
:100960000CEB011CCCF80800206801E016E00FE059
:1009700000F5C07000EB0110006840F0010C206829
:1009800000F5C07000EB0110C0F800C0002083E744
:10099000606A40F40010606201207DE7606A40F404
:1009A00080206062012077E7F0B504460A4621689E
:1009B00094F82050012D01D0022D7ED1424901F53D
:1009C0000071086840F001000860086820F47C505D
:1009D00008600868566A40EA06200860107D00F04A
:1009E0001F06012000FA06F3C8699843C861A1F503
:1009F0000071D069C8B9D1F80C029843C1F80C0253
:100A0000908880B2968940EA064601F510705769D1
:100A100040F83760108880B2168940EA064601F532
:100A20001070576900EBC7004660D069012819D1E2
:100A3000D1F80C021843C1F80C02908880B21688D5
:100A400040EA064601F51070576940F83760908912
:100A500080B2168940EA064601F51070576900EB2E
:100A6000C7004660906928B9D1F804029843C1F8DC
:100A7000040204E0D1F804021843C1F8040210692A
:100A800028B9D1F814029843C1F8140204E0D1F84F
:100A900014021843C1F81402106A012804D1D1F8D5
:100AA0001C021843C1F81C02D1F8000220F001001A
:100AB000C1F800020020F0BDFFE7606A40F480202A
:100AC00060620120F7E7000000640040704770B5E5
:100AD000044694F82050012D01D0022D7DD151B94A
:100AE0002068C06800F0030080B9606A40F400101C
:100AF0006062012070BD2068006900F0030028B921
:100B0000606A40F4001060620120F3E7206800F59D
:100B1000D87000EB0110006800F00400906090684D
:100B200040B9206800F5D87000EB01100068400D56
:100B3000106007E0206800F5D87000EB0110006835
:100B4000C0085060206800F5D87000EB0110006804
:100B500000F00200D060206800F5D87000EB0110B2
:100B6000406800F00F001061206800F5D87000EBBD
:100B70000110406800F47F40000A9061206800F591
:100B8000D87000EB01104068000C5061206800F53F
:100B9000D87000EB011080681870206800F5D870DC
:100BA00000EB0110806800F47F40000A5870206854
:100BB00000F5D87000EB0110806800F47F00000C95
:100BC0009870206800F5D87000EB01108068000E66
:100BD000D870206800F5D87000E02FE000EB01101D
:100BE000C0681871206800F5D87000EB0110C0686B
:100BF00000F47F40000A5871206800F5D87000EBBF
:100C00000110C06800F47F00000C9871206800F5A6
:100C1000D87000EB0110C068000ED87131B920689F
:100C2000C06840F020002668F06005E02068006998
:100C300040F020002668306100205BE7606A40F4E5
:100C400080206062012055E72DE9F05F0446002511
:100C5000206846692068D0F804902068876820687A
:100C6000D0F80CA02068D0F810B02068D0F8188018
:100C700006F00100002855D007F00100C0B10120A6
:100C80002168886007F0020018B1204600F00BFBD5
:100C90000EE007F0040010B145F4006508E007F02D
:100CA000080010B145F4805502E0204600F0FAFA41
:100CB00007F48070C8B14FF480702168886007F431
:100CC000007018B1204600F0F0FA0EE007F48060E2
:100CD00010B145F4005508E007F4006010B145F488
:100CE000804502E0204600F0DFFA07F48030C8B10A
:100CF0004FF480302168886007F4003018B1204636
:100D000000F0D5FA0EE007F4802010B145F400455C
:100D100008E007F4002010B145F4803502E02046D9
:100D200000F0C4FA06F0080038B10AF0100020B153
:100D300045F4007510202168C86006F0040040B139
:100D40000AF0080028B108202168C860204600F099
:100D500007FA06F0020038B12068C06800F003000E
:100D600010B1204600F0FEF906F0400038B10BF05B
:100D7000100020B145F4806510202168086106F05C
:100D8000200040B10BF0080028B10820216808615C
:100D9000204600F055FA06F0100038B120680069CE
:100DA00000F0030010B1204600F04BFA06F40030CA
:100DB00040B109F0100028B1102021684860204699
:100DC00000F040FA06F4803040B109F0080028B184
:100DD000082021684860204600F06AFA06F40040C6
:100DE00088B309F0040078B306F4807020B108F0ED
:100DF000010008B145F0010506F4007020B108F0CB
:100E0000020008B145F0020506F4806020B108F048
:100E1000040008B145F0040506F40060A0B108F034
:100E2000700088B108F07000402817D006DC102848
:100E30000BD020280CD0302819D10CE0502810D02D
:100E4000602814D110E01DE019E045F008050FE01E
:100E500045F010050CE045F0200509E045F040059F
:100E600006E045F0800503E045F4807500E000BF32
:100E700000BF2068806920F070002168886104202C
:100E8000216848602DB1606A284360622046FFF700
:100E90001DFEBDE8F09F70B504460CB9012070BD81
:100EA00094F8200010B9204600F0B0F820680068DF
:100EB00040F001002168086000F05AFD05460DE091
:100EC00000F056FD401B0A2808D9606A40F4003043
:100ED0006062052084F820000120E0E72068406877
:100EE00000F001000028EBD02068006820F002002C
:100EF0002168086000F03CFD05460DE000F038FD7B
:100F0000401B0A2808D9606A40F40030606205205E
:100F100084F820000120C2E72068406800F0020049
:100F20000028EBD1207E012806D12068006840F01F
:100F300080002168086005E02068006820F08000DB
:100F400021680860607E012806D12068006840F0B2
:100F500040002168086005E02068006820F040003B
:100F600021680860A07E012806D12068006840F052
:100F700020002168086005E02068006820F020005B
:100F800021680860E07E012806D12068006820F012
:100F900010002168086005E02068006840F010003B
:100FA00021680860207F012806D12068006840F091
:100FB00008002168086005E02068006820F008004B
:100FC00021680860607F012806D12068006840F031
:100FD00004002168086005E02068006820F0040033
:100FE00021680860D4E90201084321690843616966
:100FF00008436168491E08432168C8610020606297
:10100000012084F82000002049E7000010B586B0D8
:101010000446142101A8FFF74BFA4B492068884287
:1010200042D14A480068401C4849086008460068A8
:1010300001280FD100BF002000904548006840F013
:101040000070434908600846006800F00070009096
:1010500000BF00BF00BF002000903D48103800686E
:1010600040F001003A49103908600846006800F075
:101070000100009000BF00BF4FF4C050019002205B
:10108000029000200390032004900920059001A9FC
:10109000304800F06DFB00220521142000F02CFDEB
:1010A000142000F019FD4DE02B492068884249D1F9
:1010B00000BF002000902648006840F0806024496E
:1010C00008600846006800F08060009000BF00BF24
:1010D0001E480068401C1D49086008460068012839
:1010E0000FD100BF002000901948006840F0007048
:1010F000174908600846006800F00070009000BFC3
:1011000000BF00BF0020009011481038006840F078
:1011100002000F49103908600846006800F002001C
:10112000009000BF00BF4FF4405001900220029099
:1011300000200390032004900920059001A907488E
:1011400000F016FB06B010BD00640040280000202F
:1011500040380240000002400068004000040240A5
:101160007047000010B58AB0044601AB03AA002105
:101170002046FFF7ACFC0398A0F20120072851D2CB
:10118000DFE800F00405060708090A0000BF00BFF9
:1011900000BF00BF00BF00BF0398401E2549087074
:1011A0000846007800EB8000234931F8100000B2B7
:1011B0002049097801EB81011F4A02EB41010881B6
:1011C0009DF805009DF8041040EA012019490978AE
:1011D00001EB810122F811009DF807009DF806102F
:1011E00040EA012000B21349097801EB810102EBCA
:1011F000410148809DF809009DF8081040EA01204F
:1012000000B20C49097801EB810102EB41018880B1
:101210009DF80A000749097801EB810102EB4101C1
:10122000887100E000BF00BF02210448FFF7FCFA0C
:101230000AB010BD10000020BC0000206004002097
:1012400070477047704770B5044694F82000012835
:1012500022D1022084F820002068006820F00100DC
:101260002168086000F084FB05460DE000F080FB7B
:10127000401B0A2808D9606A40F4003060620520EB
:1012800084F82000012070BD2068406800F0010053
:101290000028EBD16062F6E7606A40F400206062EB
:1012A0000120F0E7704770477047704770477047FC
:1012B000704770B50446A56D00F05AFB064694F8D9
:1012C0003500022808D08020606500BF002084F827
:1012D000340000BF012070BD2068006820F01600B7
:1012E000216808602068406920F08000216848611A
:1012F000206C08B9A06C28B12068006820F00800B4
:10130000216808602068006820F0010021680860FA
:1013100010E000F02DFB801B05280BD92020606514
:10132000032084F8350000BF002084F8340000BF9B
:101330000320D0E72068006800F001000028E8D111
:1013400094F85C103F208840A860012084F83500A4
:1013500000BF002084F8340000BF00BFBBE7014697
:1013600091F83500022803D080204865012070479D
:10137000052081F835000868006820F001000A683F
:1013800010600020F3E70000F8B50446002000904C
:101390008C4800684FF41651B0FBF1F7A56D2E682C
:1013A00094F85C1008208840304098B120680068AC
:1013B00000F0040070B12068006820F0040021688B
:1013C000086094F85C1008208840A860606D40F0C8
:1013D0000100606594F85C1001208840304068B1DD
:1013E0002068406900F0800040B194F85C10012052
:1013F0008840A860606D40F00200606594F85C1061
:1014000004208840304068B12068006800F0020085
:1014100040B194F85C1004208840A860606D40F0F2
:101420000400606594F85C1010208840304078B368
:101430002068006800F0080050B394F85C10102099
:101440008840A8602068006800F4802080B120688F
:10145000006800F4002028B9206CC8B12046216C37
:10146000884715E0A06C98B12046A16C88470FE032
:101470002068006800F4807028B92068006820F0B7
:10148000080021680860206C10B12046216C884754
:1014900094F85C10202088403040002865D02068F7
:1014A000006800F0100000285FD094F85C10202045
:1014B0008840A86094F83500052828D12068006885
:1014C00020F01600216808602068406920F0800044
:1014D00021684861206C08B9A06C28B120680068B8
:1014E00020F008002168086094F85C103F208840D4
:1014F000A860012084F8350000BF002084F8340083
:1015000000BF206D10B12046216D8847F8BD2068CE
:10151000006800F4802080B12068006800F400209A
:1015200028B9606C10B12046616C88471DE0E06B03
:10153000D8B12046E16B884717E02068006800F4C6
:10154000807068B92068006820F010002168086089
:10155000012084F8350000BF002084F8340000BF6B
:10156000E06B10B12046E16B8847606D38B3606D69
:1015700000F00100F0B1052084F835002068006813
:1015800020F001002168086000BF0098401C009016
:10159000B84200D905E02068006800F0010000288A
:1015A000F3D100BF012084F8350000BF002084F88B
:1015B000340000BFE06C10B12046E16C884700BFEA
:1015C000A4E70000380000202DE9F0410446002582
:1015D00000F0CEF9074614B90120BDE8F081606A39
:1015E00000B100BF022084F8350000BF002084F85D
:1015F000340000BF2068006820F001002168086006
:101600000AE000F0B5F9C01B052805D92020606567
:10161000032084F83500E0E72068006800F001004E
:101620000028EED12068056821480540D4E9010171
:101630000843E16808432169084361690843A169D7
:101640000843E1690843216A08430543606A0428A6
:1016500003D1D4E90B0108430543206805602068E5
:10166000456925F00705606A0543606A04280DD1C5
:10167000A06A0543E06A48B12046FFF755F828B153
:1016800040206065012084F83500A6E720684561A8
:101690002046FFF72FF8064694F85C103F2088405C
:1016A000B06000206065012084F83500002094E7D8
:1016B0003F8010F02DE9F04704460D4616461F46C0
:1016C0004FF00008D4F8589000BF94F83400012877
:1016D00002D10220BDE8F087012084F8340000BF69
:1016E00094F83500012825D1022084F83500002027
:1016F00060653B46324629462046FFF76AF894F873
:101700005C103F208840C9F808002068006840F05D
:10171000160021680860206C28B12068006840F03D
:101720000800216808602068006840F00100216816
:10173000086006E000BF002084F8340000BF4FF0CE
:1017400002084046C6E7000070B5044600F010F9F4
:1017500006462546681C10B104480078054400BFC1
:1017600000F006F9801BA842FAD370BD34000020B7
:10177000F8B502460B460025002400200021D6E0E3
:10178000012606FA01F51E6806EA0504AC4274D18A
:101790001E7906F00306012E04D01E7906F003061A
:1017A000022E13D190684F000326BE40B0434F0075
:1017B000DE68BE4030439060506801268E40B043E2
:1017C0001E79C6F300168E40304350601E7906F035
:1017D0000306032E09D0D0684F000326BE40B04355
:1017E0004F009E68BE403043D0601E7906F003066D
:1017F000022E13D1CF0802F1200656F827004E071B
:10180000F70E0F26BE40B0434F07FF0E1E69BE40C5
:101810003043CF0802F1200646F8270010684F0039
:101820000326BE40B0431E7906F003064F00BE40BB
:10183000304310605E6806F44036002E76D000BF5C
:10184000002600963C4E366846F480463A4F3E608D
:101850003E46366806F48046009600BF00BF374E0D
:101860008F0856F827008E07370F0F26BE40B0436B
:10187000334EB24202D1002624E057E0314EB2424C
:1018800001D101261EE0304EB24201D1022619E0FC
:101890002E4EB24201D1032614E02D4EB24201D1A8
:1018A00004260FE02B4EB24201D105260AE02A4E53
:1018B000B24201D1062605E0284EB24201D10726E8
:1018C00000E008268F073F0FBE4030431B4E8F08B5
:1018D00046F82700224E3068A0435E6806F4801662
:1018E00006B120431E4E3060361D3068A0435E684E
:1018F00006F4001606B12043194E361D3060184E0E
:10190000361F3068A0435E6806F4003606B12043F7
:10191000134E361F3060361F3068A0435E6806F4F1
:10192000803606B120430E4E083E3060491C102917
:10193000FFF426AFF8BD00004438024008380140EB
:10194000000002400004024000080240000C024077
:10195000001002400014024000180240001C024027
:10196000083C01400AB1816101E00B0483617047CA
:1019700001480068704700002C0000200348006800
:101980000349097808440149086070472C00002089
:101990003400002010B50D48006840F400700B4979
:1019A00008600846006840F48060086008460068E7
:1019B00040F480700860032000F0DCF80F2000F095
:1019C00007F800F05FF8002010BD0000003C024066
:1019D0002DE9F04188B004460027B84600BF00203A
:1019E00001902348006840F0200021490860084623
:1019F000006800F02000019000BF00BF02A903A80A
:101A000000F08EF9069F1FB900F0B2F9054602E01A
:101A100000F0AEF945001748B5FBF0F0A0F1010861
:101A200015481649086040F2E7311448C160C0F813
:101A30000480002101618160816100F0F5FC0646AF
:101A400096B90E4800F024FD06466EB9372000F026
:101A500043F8102C07D200222146372000F04CF822
:101A60000748046000E00126304608B0BDE8F08178
:101A70004038024040420F000014004000070020A0
:101A80003000002008B500BF002000901148006819
:101A900040F480400F4908600846006800F4804028
:101AA000009000BF00BF00BF00200090081F00682A
:101AB00040F08050091F08600846006800F0805020
:101AC000009000BF00BF00220F21901E00F014F80C
:101AD00008BD00004438024001460846002809DBE2
:101AE00000F01F0301229A4043099B0003F1E02309
:101AF000C3F8002100BF70472DE9F05F80460D4616
:101B00001646002702F0BEFB074639462A463346F2
:101B100001F00700C0F1070ABAF1040F02D94FF033
:101B2000040A01E0C0F1070AD14600F1040ABAF143
:101B3000070F02D24FF0000A01E0A0F1030AD446D9
:101B40004FF0010A0AFA09FAAAF1010A0AEA020A9E
:101B50000AFA0CFA4FF0010B0BFA0CFBABF1010B7C
:101B60000BEA030B4AEA0B042146404602F092FBC3
:101B7000BDE8F09F00BF00F00702064B19684FF662
:101B8000FF031940044B0B4343EA0221014B196048
:101B900000BF70470CED00E00000FA0570B5044688
:101BA0000D460CB9012070BD5848006800F00700D0
:101BB000A84209D255490D700846006800F0070098
:101BC000A84201D00120EEE7207800F002000228B0
:101BD0001DD1207800F00400042805D14C4800688D
:101BE00040F4E0504A490860207800F008000828D6
:101BF00005D14748006840F46040454908604448C2
:101C0000006820F0F000A16808434149086020788E
:101C100000F00100A8B36068012807D13C480838EB
:101C20000068C0F34040B8B90120BCE760680228F2
:101C300002D06068032807D1354808380068C0F32F
:101C4000406048B90120AEE7314808380068C0F369
:101C5000400008B90120A6E72D48006820F00300E5
:101C6000616808432A490860FFF782FE064609E0DA
:101C7000FFF77EFE801B41F28831884202D90320A3
:101C800091E707E02248006800F00C006168B0EBC3
:101C9000810FEDD11D48006800F00700A84209D966
:101CA0001A490D700846006800F00700A84201D0EC
:101CB000012078E7207800F00400042807D11448B8
:101CC000006820F4E050E16808431149086020787A
:101CD00000F00800082808D10D48006820F4604092
:101CE000216940EAC1000A49086000F061F808492A
:101CF0000968C1F30311074A515CC84006490860EE
:101D000006480068FFF764FE00204CE7003C0240F4
:101D100008380240F063000838000020300000203E
:101D20000F2202600D4A126802F0030242600B4A61
:101D3000126802F0F0028260084A126802F4E0526F
:101D4000C260064A126802F46042D2080261044A84
:101D5000126802F007020A6070470000083802406B
:101D6000003C024001480068704700003800002035
:101D700000B5FFF7F7FF04490968C1F38221034A60
:101D8000515CC84000BD00000838024000640008F3
:101D900000B5FFF7E7FF04490968C1F34231034A80
:101DA000515CC84000BD00000838024000640008D3
:101DB0002DE9F047002400250026A14625480068AB
:101DC00000F00C0020B1042805D008283AD105E025
:101DD000DFF8849039E0DFF8849036E01D48001F7A
:101DE000006800F03F041B48001F006800F48000FA
:101DF00078B11A481749091F0968C1F38811A0FB77
:101E000001700146224600233846FEF78DFA05464A
:101E10000EE011480F49091F0968C1F38811A0FBA2
:101E200001700146224600233846FEF77DFA05463A
:101E30000848001F0068C0F30140401C4600B5FB85
:101E4000F6F902E0DFF8109000BF00BF4846BDE899
:101E5000F0870000083802400024F40000127A00E5
:101E6000F8B504460CB90120F8BD207800F0010057
:101E7000002874D0F948006800F00C0004280DD048
:101E8000F648006800F00C00082813D1F348001F42
:101E9000006800F48000B0F5800F0BD1EF480838DF
:101EA0000068C0F34040002859D06068002856D12F
:101EB0000120D9E700BF6068B0F5803F08D1E7484E
:101EC0000838006840F48030E449083908601EE0B2
:101ED0006068B0F5A02F0DD1E0480838006840F4E4
:101EE0008020DE49083908600846006840F48030E8
:101EF00008600CE0D9480838006820F48030D749E1
:101F0000083908600846006820F48020086000BF97
:101F1000606890B1FFF72CFD054606E0FFF728FD4D
:101F2000401B642801D903209EE7CC48083800688C
:101F3000C0F340400028F1D011E0FFF719FD05463D
:101F400006E0FFF715FD401B642801D903208BE74D
:101F5000C24808380068C0F340400028F1D120781A
:101F600000F0020002285FD1BC48006800F00C00BD
:101F700058B1BA48006800F00C0008281CD1B748D6
:101F8000001F006800F48000B0B9B4480838006849
:101F9000C0F3400020B1E068012801D0012063E7D0
:101FA000AE480838006820F0F800216940EAC10016
:101FB000AA490839086037E0E06800B30120A84961
:101FC0000860FFF7D5FC054606E0FFF7D1FC401B93
:101FD000022801D9032047E7A04808380068C0F369
:101FE00040000028F1D09D480838006820F0F80033
:101FF000216940EAC10099490839086014E00020CD
:1020000097490860FFF7B4FC054606E0FFF7B0FC0F
:10201000401B022801D9032026E7904808380068B1
:10202000C0F340000028F1D1207800F00800082813
:102030002CD16069A8B101208A490860FFF798FC9B
:10204000054606E0FFF794FC401B022801D9032057
:102050000AE782486C300068C0F340000028F1D0E5
:1020600014E000207F490860FFF782FC054606E087
:10207000FFF77EFC401B022801D90320F4E67748D5
:102080006C300068C0F340000028F1D1207800F0E7
:102090000400042870D1002770483830006800F030
:1020A000805090B900BF002000906C483830006824
:1020B00040F080506949383108600846006800F0F7
:1020C0008050009000BF00BF01276748006800F4FF
:1020D0008070B0B96448006840F48070624908605C
:1020E000FFF746FC054606E0FFF742FC401B0228CE
:1020F00001D90320B8E65C48006800F4807000282D
:10210000F2D000BFA068012808D1544868300068A8
:1021100040F001005149683108601DE0A0680528C1
:102120000DD14E486830006840F004004B496831DA
:1021300008600846006840F0010008600CE047486D
:102140006830006820F001004449683108600846A2
:10215000006820F00400086000BFA068A8B1FFF785
:1021600007FC054609E0FFF703FC401B41F28831FC
:10217000884202D9032077E626E0384868300068B4
:10218000C0F340000028EED013E0FFF7F1FB054656
:1021900008E0FFF7EDFB401B41F28831884201D98E
:1021A000032061E62D4868300068C0F34000002835
:1021B000EFD1012F07D129483830006820F0805036
:1021C00026493831086000BFA069002845D023485F
:1021D000006800F00C0008285DD0A069022845D1F5
:1021E00000201F490866FFF7C3FB054606E0FFF71E
:1021F000BFFB401B022801D9032035E617480838E9
:102200000068C0F340600028F1D1D4E90701084319
:10221000616A40EA81110122A06AC2EB500041EAE2
:1022200000412C20005D41EA00600C49091F086054
:1022300001200B490866FFF79BFB054606E0FFF708
:1022400097FB401B022801D903200DE603480838FC
:102250000068C0F340600028F1D049E0083802402F
:1022600000004742800E4742007000400020214994
:102270000866FFF77DFB054606E0FFF779FB401B8C
:10228000022801D90320EFE51B480068C0F3406035
:102290000028F2D12CE0A069012800D1E4E516481D
:1022A000001D0668A069012820D006F48001E069BD
:1022B00081421BD106F03F01206A814216D147F6C8
:1022C000C0703040616AB0EB811F0FD106F440311D
:1022D0000122A06AC2EB5000B1EB004F06D106F01C
:1022E00070612C20005DB1EB006F01D00120BBE5D7
:1022F0000020B9E5000047420038024070477047AF
:1023000010B50346002200BF93F83C00012801D11C
:10231000022010BD012083F83C0000BF22F0FF0026
:10232000CC6840EA040222F440708C6840EA04025F
:1023300022F480604C6840EA040222F400600C68D9
:1023400040EA040222F480500C6940EA040222F4BC
:1023500000504C6940EA040222F48040CC6940EA13
:1023600004021868426400BF002083F83C0000BFEC
:1023700000BFCEE730B502460B4600BF92F83C00E6
:10238000012801D1022030BD012082F83C0000BFAD
:10239000022082F83D00106844681068816824F0CB
:1023A00070041868044310684460184D1068A8420F
:1023B0001BD01068B0F1804F17D0154D1068A8429F
:1023C00013D0144D1068A8420FD0134D1068A842C6
:1023D0000BD0124D1068A84207D0114D1068A842CA
:1023E00003D0104D1068A84205D121F08001586833
:1023F000014310688160012082F83D0000BF002089
:1024000082F83C0000BF00BFBDE7000000000140B3
:102410000004004000080040000C0040000401409F
:10242000004001400018004010B504460CB90120DE
:1024300010BD94F83D0028B9002084F83C002046E7
:1024400000F025F8022084F83D00211D206801F0ED
:10245000BBF9012084F8460000BF84F83E0001214A
:102460003F200155402001554120015500BF00BFCC
:10247000012084F8420043200155442001554520A5
:10248000015500BF012084F83D000020D0E77047CF
:10249000014691F83D00012801D00120704702203B
:1024A00081F83D000868C06840F001000B68D86002
:1024B0001A4B086898421BD00868B0F1804F17D0BB
:1024C000174B0868984213D0164B086898420FD0F3
:1024D000154B086898420BD0144B0868984207D0F7
:1024E000134B0868984203D0124B086898420CD1ED
:1024F0000868806800F00702062A0CD008680068A7
:1025000040F001000B68186005E00868006840F0C2
:1025100001000B6818600020C0E7000000000140C7
:102520000004004000080040000C0040000401408E
:102530000040014000180040704710B50446206874
:102540000069C0F34000D8B12068C068C0F3400003
:10255000B0B16FF002002168086101202077206887
:10256000806900F0030018B12046FFF7E5FF05E0A1
:10257000204600F08DF9204600F0B6FA00202077C2
:1025800020680069C0F38000D8B12068C068C0F33B
:102590008000B0B16FF0040021680861022020774C
:1025A0002068806900F4407018B12046FFF7C4FF2E
:1025B00005E0204600F06CF9204600F095FA002076
:1025C000207720680069C0F3C000D8B12068C068D7
:1025D000C0F3C000B0B16FF00800216808610420AA
:1025E00020772068C06900F0030018B12046FFF78B
:1025F000A3FF05E0204600F04BF9204600F074FAF6
:102600000020207720680069C0F30010D8B120684E
:10261000C068C0F30010B0B16FF01000216808610D
:10262000082020772068C06900F4407018B1204667
:10263000FFF782FF05E0204600F02AF9204600F06F
:1026400053FA002020772068006900F0010058B19B
:102650002068C06800F0010030B16FF0010021680F
:102660000861204600F0C8FA20680069C0F3C01075
:1026700058B12068C068C0F3C01030B16FF080005E
:10268000216808612046FFF739FE20680069C0F321
:10269000801058B12068C068C0F3801030B16FF06E
:1026A000400021680861204600F0B2FA2068006905
:1026B000C0F3401058B12068C068C0F3401030B17A
:1026C0006FF02000216808612046FFF718FE10BD5A
:1026D00010B586B00446142101A8FDF7E9FE64494F
:1026E000206888421ED100BF002000906148006829
:1026F00040F010005F4908600846006800F01000D4
:10270000009000BF00BF4FF4D4400190022002901F
:102710000020039004900120059001A95648FFF77E
:1027200027F8A3E02068B0F1804F1DD100BF002042
:1027300000905048006840F001004E49086008468B
:10274000006800F00100009000BF00BF032001906E
:10275000022002900020039004900120059001A91E
:102760004648FFF705F881E045492068884239D19D
:1027700000BF002000903F48006840F001003D4944
:1027800008600846006800F00100009000BF00BF2C
:1027900000BF002000900846006840F0020008607A
:1027A0000846006800F00200009000BF00BF8020D3
:1027B00001900220029000200390049002200590D6
:1027C00001A92E48FEF7D4FF0320019002200290B9
:1027D0000020039004900220059001A92948FEF7EB
:1027E000C7FF43E02849206888421DD100BF002070
:1027F00000902048006840F010001E49086008461C
:10280000006800F01000009000BF00BF4020019061
:10281000022002900020039004900320059001A95B
:102820001548FEF7A5FF21E01849206888421DD110
:1028300000BF002000900F48006840F002000D49E2
:1028400008600846006800F00200009000BF00BF6A
:102850004FF4404001900220029000200390049029
:102860000920059001A90748FEF782FF06B010BDB8
:1028700000000140303802400010024000000240D9
:1028800000040040000402400040014000180040E5
:1028900070472DE9F04104460D461646002700BF5B
:1028A00094F83C00012802D10220BDE8F08101200B
:1028B00084F83C0000BF36B1042E1BD0082E31D066
:1028C0000C2E5ED145E02946206800F0FBFF206811
:1028D000806940F00800216888612068806920F0E4
:1028E000040021688861206880692969084321689B
:1028F000886148E02946206801F01CF8206880695A
:1029000040F40060216888612068806920F480605C
:102910002168886120688069296940EA012021686E
:10292000886130E02946206801F042F82068C069DB
:1029300040F008002168C8612068C06920F00400E8
:102940002168C8612068C069296908432168C86195
:1029500019E02946206801F067F82068C06940F452
:1029600000602168C8612068C06920F48060216827
:10297000C8612068C069296940EA01202168C861EE
:1029800001E0012700BF00BF00BF002084F83C0029
:1029900000BF384689E710B504460CB9012010BDC8
:1029A00094F83D0028B9002084F83C00204600F04F
:1029B00025F8022084F83D00211D206800F004FF66
:1029C000012084F8460000BF84F83E0001213F202A
:1029D0000155402001554120015500BF00BF012095
:1029E00084F84200432001554420015545200155FB
:1029F00000BF012084F83D000020D0E708B5354A2B
:102A0000016891420FD100BF00210091324909684D
:102A100041F00101304A11601146096801F00101DD
:102A2000009100BF55E00168B1F1804F11D100BFA6
:102A3000002100912849091F096841F00101264A37
:102A4000121F11601146096801F00101009100BFD9
:102A50003FE0224A0168914211D100BF002100915C
:102A60001D49091F096841F002011B4A121F11602C
:102A70001146096801F00201009100BF29E0184ADF
:102A8000016891420FD100BF0021009112490968ED
:102A900041F48031104A11601146096801F4803117
:102AA000009100BF15E00F4A0168914211D100BFAB
:102AB000002100910849091F096841F04001064AB8
:102AC000121F11601146096801F04001009100BF1A
:102AD00000BF08BD0000014044380240000400402F
:102AE00000400140001800407047000070B50446E7
:102AF0000D4615B994F83E000BE0042D02D13F209D
:102B0000005D06E0082D02D14020005D01E041207B
:102B1000005D012801D0012070BD1DB9022084F89C
:102B20003E000EE0042D03D102213F20015508E0B4
:102B3000082D03D102214020015502E0022141204D
:102B4000015501222946206800F0AAFE2349206889
:102B5000884203D022492068884201D1012000E048
:102B6000002028B12068406C40F40040216848648F
:102B70001A49206888421BD02068B0F1804F17D0D6
:102B800018492068884213D01749206888420FD01E
:102B90001649206888420BD011492068884207D026
:102BA00013492068884203D01249206888420CD11A
:102BB0002068806800F00706062E0CD020680068A8
:102BC00040F001002168086005E02068006840F0DE
:102BD00001002168086000209EE70000000001401D
:102BE000000401400004004000080040000C0040C8
:102BF000004001400018004010B504460349206819
:102C0000884201D1FEF7BAFE10BD0000001400405A
:102C10007047704770B50446002520684069C0F3CE
:102C2000C01594F83D00212817D1B5B100BF00BFF1
:102C30002168143151E8001F21F08000216814310F
:102C400041E80002002AF3D100BF606B10B1606B55
:102C5000FEF72FFB204601F04FF820684069C0F3D3
:102C6000801594F83E00222817D1B5B100BF00BFEF
:102C70002168143151E8001F21F04000216814310F
:102C800041E80002002AF3D100BFA06B10B1A06B95
:102C9000FEF70FFB204600F0E9FF002070BD7047F3
:102CA0002DE9F84F0446206805682068C66820684A
:102CB00047694FF00009CA4605F00F09B9F1000F46
:102CC0000AD105F0200038B106F0200020B12046DE
:102CD00001F025F8BDE8F88FB9F1000F7CD007F0BE
:102CE000010018B906F49070002875D005F00100B5
:102CF00030B106F4807018B1206C40F001002064FF
:102D000005F0040030B107F0010018B1206C40F06C
:102D10000200206405F0020030B107F0010018B194
:102D2000206C40F00400206405F0080048B106F073
:102D3000200010B907F0010018B1206C40F0080025
:102D40002064206C002846D005F0200028B106F051
:102D5000200010B1204600F0E2FF20684069C0F377
:102D6000801A206C00F0080010B9BAF1000F2DD0C5
:102D7000204600F07BFF2068406900F040004028BA
:102D800020D100BF00BF2168143151E8001F21F09D
:102D900040002168143141E80002002AF3D100BF4D
:102DA000A06B50B17548A16B0865A06BFEF7D7FA10
:102DB00088B1A06B016D88470DE02046FFF76FFFDB
:102DC00009E009E02046FFF76AFF04E02046FFF72C
:102DD00066FF002020647DE7206B012876D105F096
:102DE0001000002872D006F010000028FAD000BFB2
:102DF00000200090206800680090206840680090E3
:102E000000BF00BF2068406900F0400040285ED14C
:102E1000A06B006840681FFA80F8B8F1000F54D02A
:102E2000A08D404551DDA4F82E80A06BC069B0F59F
:102E3000807F43D000BF00BF21680C3151E8001FE4
:102E400021F4807021680C3141E80002002AF3D19E
:102E500000BF00BF00BF2168143151E8001F21F0FE
:102E600001002168143141E80002002AF3D100BFBB
:102E700000BF00BF2168143151E8001F21F040005D
:102E80002168143141E80002002AF3D100BF20205C
:102E900084F83E000020206300BF00BF21680C3191
:102EA00051E8001F21F0100021680C3141E80002B8
:102EB000002AF3D100BFA06BFEF7FBF9A08DE28DD5
:102EC000801A81B22046FFF7A4FE03E740E0A08D00
:102ED000E18D401A1FFA80F8E08DC0B3B8F1000F01
:102EE00035D000BF00BF21680C3151E8001F21F42C
:102EF000907021680C3141E80002002AF3D100BF34
:102F000000BF00BF2168143151E8001F21F001000B
:102F10002168143141E80002002AF3D100BF2020CB
:102F200084F83E000020206300BF00BF21680C3100
:102F300051E8001F21F0100021680C3141E8000227
:102F4000002AF3D100BF41462046FFF762FEC1E6EA
:102F500005F0800030B106F0800018B1204601F085
:102F6000D9F8B7E605F0400030B106F0400018B1DE
:102F7000204600F0B1FEADE600BFABE6393B0008ED
:102F800010B504460CB9012010BDA06900B100E0E5
:102F900000BF94F83D0028B9002084F83C0020468A
:102FA00000F028F8242084F83D002068C06820F450
:102FB00000502168C860204600F02EFF206800699C
:102FC00020F49040216808612068406920F02A00C0
:102FD000216848612068C06840F400502168C860DA
:102FE00000202064202084F83D0084F83E0000206A
:102FF000CAE7000010B586B00446142101A8FDF709
:1030000057FA49492068884256D100BF00200090F5
:103010004648006840F010004449086008460068CF
:1030200000F01000009000BF00BF00BF0020009023
:103030003E481438006840F001003C4914390860EB
:103040000846006800F00100009000BF00BF4FF488
:10305000C0600190022002900020039003200490A1
:103060000720059001A93248FEF782FB314832491A
:1030700008604FF00060486000212F488160C16007
:103080004FF480610161002141618161C161016290
:103090004162FEF799FA08B1FDF7C3FB00BF26486D
:1030A000A063846300BF002205212520FEF724FDD4
:1030B0002520FEF711FD35E020492068884231D1F6
:1030C00000BF002000901948001F006840F4003045
:1030D0001649091F08600846006800F40030009097
:1030E00000BF00BF00BF00200090104814380068E7
:1030F00040F001000D49143908600846006800F0EE
:103100000100009000BF00BF0C200190022002903F
:1031100000200390032004900720059001A9044893
:10312000FEF726FB06B010BD0010014044380240F7
:103130000000024040640240A0060020004400401D
:1031400070B504460D46164694F83E00202816D168
:1031500005B10EB9012070BD00BF94F83C000128F4
:1031600001D10220F7E7012084F83C0000BF0020D5
:10317000206332462946204600F064FFEBE7022038
:10318000E9E770477047704700BFFEE710B50F488A
:103190000F4908600320486000210D488160C1602C
:1031A0004FF4002101614FF440114161002101768B
:1031B0000121417600218176C17601774177FDF7C3
:1031C0006AFE08B1FDF72DFB10BD00000064004051
:1031D0006004002010B50E480E49086003204860C6
:1031E00000210C488160C1604FF4002101614FF45F
:1031F000401141610021017641768176C1760177E7
:103200004177FDF748FE08B1FDF70BFB10BD00004C
:10321000006800408804002008B500BF002000902E
:103220000A48006840F480000849086008460068C1
:1032300000F48000009000BF00BF002205213A206A
:10324000FEF75AFC3A20FEF747FC08BD3038024032
:1032500010B5002004E000210A4A22F81010401C9A
:103260000D28F8DB084A0021084801F06DFA0849EA
:103270000860084A0021084801F066FA074908601A
:1032800010BD000046040020A0630008C1360008FD
:1032900020000020C46300087D3A000824000020BC
:1032A00000B587B0142102A8FDF702F900BF002085
:1032B00001902E48006840F010002C490860084634
:1032C000006800F01000019000BF00BF00BF0020A8
:1032D00001900846006840F0200008600846006839
:1032E00000F02000019000BF00BF00BF002001904F
:1032F0000846006840F0800008600846006800F05A
:103300008000019000BF00BF00BF00200190084670
:10331000006840F0010008600846006800F0010005
:10332000019000BF00BF00BF002001900846006868
:1033300040F0020008600846006800F002000190BA
:1033400000BF00BF00224FF4C0610948FEF70AFB2E
:103350004FF4C0600290012003900020049005907B
:1033600002A90348FEF704FA07B000BD3038024056
:103370000014024000B587B01C216846FDF798F89C
:10338000164817490860632048600021144881608E
:1033900040F24731C160002101618161FFF7FBFA12
:1033A00008B1FDF73EFA60200090002001900290E5
:1033B0000490002269460A48FFF76BFA08B1FDF74E
:1033C00030FA042269460648FFF763FA08B1FDF7B0
:1033D00028FA0348FFF77CF907B000BD0018004049
:1033E000D005002000B591B000200F9010901C2156
:1033F00008A8FDF75DF820216846FDF759F82F4829
:103400002F4908603120486000212D48816040F23A
:103410004731C1600021016141618161FFF7BBFA61
:1034200008B1FDF7FEF900200F9010900FA9244875
:10343000FEF7A0FF08B1FDF7F4F960200890002026
:1034400009900A900B900C900D900E90002208A904
:103450001B48FFF71EFA08B1FDF7E3F9042208A99B
:103460001748FFF716FA08B1FDF7DBF9082208A99B
:103470001348FFF70EFA08B1FDF7D3F90C2208A99B
:103480000F48FFF706FA08B1FDF7CBF900200090CE
:1034900001900290039004904FF40050059000209A
:1034A000079069460648FEF72BFF08B1FDF7B9F90A
:1034B0000348FFF70DF911B000BD00000000014006
:1034C000B004002000B589B00020079008901C21AE
:1034D0006846FCF7EDFF4FF080401B490860632011
:1034E000486000211848816040F24731C1600021E6
:1034F00001618161FFF74FFA08B1FDF792F90020F1
:103500000790089007A91048FEF734FF08B1FDF7AF
:1035100088F9602000900020019002900490002221
:1035200069460948FFF7B5F908B1FDF77AF90422B1
:1035300069460548FFF7ADF908B1FDF772F9024891
:10354000FFF7C6F809B000BDF804002000B589B047
:103550000020079008901C216846FCF7A9FF20482E
:10356000204908606320486000211E48816040F2C5
:103570004731C160002101618161FFF70CFA08B198
:10358000FDF74FF900200790089007A91548FEF7AE
:10359000F1FE08B1FDF745F9602000900020019090
:1035A00002900490042269460E48FFF772F908B1B0
:1035B000FDF737F9082269460A48FFF76AF908B1AA
:1035C000FDF72FF90C2269460648FFF762F908B1AA
:1035D000FDF727F90348FFF77BF809B000BD0000AD
:1035E000000400404005002000B587B01C2168465B
:1035F000FCF75EFF12481349086031204860002143
:103600001048816040F24731C16000210161816151
:10361000FFF7C1F908B1FDF704F960200090002020
:10362000019002900490042269460648FFF731F9A0
:1036300008B1FDF7F6F80348FFF74AF807B000BDF8
:10364000004001408805002010B50B480B49086078
:103650004FF4E1304860002108488160C160016199
:103660000C21416100218161C161FFF789FC08B132
:10367000FDF7D7F810BD000000100140180600202B
:1036800010B50B480B4908604FF4E1304860002149
:1036900008488160C16001610C21416100218161A4
:1036A000C161FFF76DFC08B1FDF7BBF810BD00006C
:1036B000004400405C06002000BFFEE700BFFEE7BC
:1036C00000BF00F013FF00F00DFF012000F0FCFF31
:1036D000F7E710B54FF0E020006902F049FC01283F
:1036E00003D0BDE8104002F04BB910BD00B593B057
:1036F000302107A8FCF7DCFE142102A8FCF7D8FE55
:1037000000BF002001902548006840F08050234908
:1037100008600846006800F08050019000BF00BFBC
:1037200000BF002001901E48006840F480401C4902
:1037300008600846006800F48040019000BF00BFA8
:103740000220079001200A9010200B9002200D907B
:1037500000210E9108210F91A821109102211191B1
:103760000421129107A8FEF77BFB08B1FDF759F879
:103770000F20029002200390002004904FF4A050EC
:1037800005904FF480500690052102A8FEF706FA36
:1037900008B1FDF746F813B000BD00004038024004
:1037A000007000400348006840F470000149086060
:1037B0007047000088ED00E010B50248FEF7BDFE3E
:1037C00010BD00000007002010B50268294B984288
:1037D0000ED0B0F1804F0BD0274B984208D0274B2A
:1037E000984205D0264B984202D0264B984203D1EE
:1037F00022F070024B681A431E4B984220D0B0F161
:10380000804F1DD01C4B98421AD01C4B984217D0A9
:103810001B4B984214D01B4B984211D01A4B984224
:103820000ED01A4B98420BD0194B984208D0194B26
:10383000984205D0184B984202D0184B984203D1B9
:1038400022F44072CB681A4322F080034C6943EAA9
:10385000040202608B68C3620B688362054B984266
:1038600002D0084B984201D10B69036301234361E5
:1038700010BD0000000001400004004000080040AE
:10388000000C0040000401400040014000440140A1
:103890000048014000180040001C0040002000408B
:1038A00030B501F01F05012404FA05F3046A9C43B6
:1038B0000462046A01F01F0502FA05F52C43046254
:1038C00030BD000030B5056A25F001050562026AC9
:1038D0004368846924F0700424F003040D682C43C9
:1038E00022F002028D682A43104DA84200D103E065
:1038F0000F4DA84206D100BF22F00802CD682A432E
:1039000022F00402094DA84202D0094DA84207D175
:1039100023F4807323F400734D692B438D692B438B
:10392000436084614D684563026230BD0000014020
:103930000004014030B5056A25F010050562026AF1
:103940004368846924F4E04424F440740D6844EA34
:10395000052422F020028D6842EA0512124DA84289
:1039600000D103E0114DA84207D100BF22F0800230
:10397000CD6842EA051222F040020B4DA84202D067
:103980000A4DA84209D123F4806323F400634D69F2
:1039900043EA85038D6943EA8503436084614D688A
:1039A0008563026230BD0000000001400004014058
:1039B00030B5056A25F480750562026A4368C469FA
:1039C00024F0700424F003040D682C4322F40072E8
:1039D0008D6842EA0522124DA84200D103E0114D44
:1039E000A84207D100BF22F40062CD6842EA052256
:1039F00022F480620A4DA84202D00A4DA84209D1A1
:103A000023F4805323F400534D6943EA05138D6971
:103A100043EA05134360C4614D68C563026230BD6B
:103A2000000001400004014030B5056A25F48055CE
:103A30000562036A4468C26922F4E04222F44072DB
:103A40000D6842EA052223F400538D6843EA0533EA
:103A5000084DA84202D0084DA84204D124F4804465
:103A60004D6944EA85144460C2614D68056403628F
:103A700030BD00000000014000040140002400BFF0
:103A80002A4880882A498988884201D1012000E09B
:103A900000202649C988264AD288914201D10121B5
:103AA00000E00021084021498989214A92899142F8
:103AB00001D1012100E00021084078B91C4B9A890E
:103AC000D988988800F058FC194880881749888060
:103AD0001748C088C8801648808988811348008AA2
:103AE0001349098A884218D01148008A88B11048C1
:103AF000007CC0F3001060B134B900214FF4AF7006
:103B0000FCF78EFD012404E000210846FCF788FD47
:103B100000240748008A05490882012000F0D4FDEE
:103B20000448006801F01EFEAAE7000046040020D9
:103B30002C0400202400002070B50546AC6B00204A
:103B4000E085E0842046FFF7AAF870BD70B5064610
:103B50000025B46B20684069C0F3C01594F83D009F
:103B6000212805D125B10020E084204600F0C4F8CA
:103B700020684069C0F3801594F83E00222805D1E2
:103B800025B10020E085204600F070F8206C40F060
:103B9000100020642046FFF782F870BD70B505461E
:103BA000AC6B2868006800F48070002842D1E08582
:103BB00000BF00BF21680C3151E8001F21F4807064
:103BC00021680C3141E80002002AF3D100BF00BF98
:103BD00000BF2168143151E8001F21F00100216865
:103BE000143141E80002002AF3D100BF00BF00BF3A
:103BF0002168143151E8001F21F040002168143180
:103C000041E80002002AF3D100BF202084F83E00E2
:103C1000206B01280ED100BF00BF21680C3151E894
:103C2000001F21F0100021680C3141E80002002A39
:103C3000F3D100BF206B012804D1A18D2046FEF7EF
:103C4000E8FF02E02046FFF79CFA70BD70B505461C
:103C5000AC6B206B012805D1A08D41082046FEF7F2
:103C6000D8FF02E02046FFF78DFA70BD00BF00BF0D
:103C700002680C3252E8002F22F4907102680C3274
:103C800042E80013002BF3D100BF00BF00BF026861
:103C9000143252E8002F22F001010268143242E887
:103CA0000013002BF3D100BF016B01290ED100BF1F
:103CB00000BF02680C3252E8002F22F010010268A7
:103CC0000C3242E80013002BF3D100BF202180F812
:103CD0003E1000210163704710B504462068C0689B
:103CE00020F040002168C860202084F83D00204674
:103CF000FFF749FA002010BD00BF00BF02680C3278
:103D000052E8002F22F0C00102680C3242E8001392
:103D1000002BF3D100BF202180F83D107047F8B58B
:103D2000044694F83E00222873D1A068B0F5805F65
:103D30000CD1206950B90025A66A20684068C0F3FC
:103D400008003080A06A801CA06215E0A56A0026E9
:103D5000A068B0F5805F03D0A06828B9206918B9C1
:103D600020684068287004E02068406800F07F0008
:103D70002870A06A401CA062E08D401E80B2E085E1
:103D8000002844D12068C06820F020002168C86065
:103D90002068C06820F480702168C860206840698D
:103DA00020F0010021684861202084F83E00206B4B
:103DB000012826D10020206300BF00BF21680C31FC
:103DC00051E8001F21F0100021680C3141E8000289
:103DD000002AF3D100BF2068006800F0100010280E
:103DE0000AD100BF00200090206800680090206881
:103DF0004068009000BF00BFA18D2046FEF709FF7C
:103E000002E02046FFF7BDF90020F8BD01E00020E8
:103E1000FBE70220F9E700002DE9F84F044620688F
:103E2000006920F44050E168084321680861216975
:103E3000A068084361690843E1690843009020686D
:103E4000C06849F20C618843009908432168C86042
:103E50002068406920F44070A169084321684861E6
:103E600076492068884203D075492068884203D18A
:103E7000FDF78EFF814602E0FDF77AFF8146E0699B
:103E8000B0F5004F6CD102206168A0FB01500346E1
:103E90001920A9FB007001462A463846FCF744FA6F
:103EA0006421B0FBF1F04FEA001A02206168A0FB28
:103EB00001510B461920A9FB00712A463846FCF730
:103EC00033FA834602206168A0FB015003461920A3
:103ED000A9FB00712A463846FCF726FA6421B0FB9C
:103EE000F1F000EBC00101EB0010ABEB80003221E0
:103EF00001EBC0006421B0FBF1F000F0F8000AEB28
:103F0000400A02206168A0FB015003461920A9FB6A
:103F1000007001462A463846FCF706FA834602201E
:103F20006168A0FB015003461920A9FB00712A46D5
:103F30003846FCF7F9F96421B0FBF1F000EBC00161
:103F400001EB0010ABEB8000322101EBC0006421DB
:103F5000B0FBF1F000F007005044216888606AE08F
:103F600004206168A0FB015003461920A9FB0070E2
:103F700001462A463846FCF7D7F982460420616894
:103F8000A0FB015003461920A9FB007001462A46F8
:103F90003846FCF7C9F96421B0FBF1F000EBC00131
:103FA00001EB0010AAEB8000322101EB001064212C
:103FB000B0FBF1F000F0F00A04206168A0FB017092
:103FC00003461920A9FB00513A462846FCF7ACF9F4
:103FD0006421B0FBF1F00AEB001A04206168A0FB39
:103FE00001510B461920A9FB00712A463846FCF7FF
:103FF0009BF9834604206168A0FB01500346192009
:10400000A9FB007001462A463846FCF78DF9642169
:10401000B0FBF1F000EBC00101EB0010ABEB800056
:10402000322101EB00106421B0FBF1F000F00F0031
:10403000504421688860BDE8F88F000000100140FE
:104040000014014077B581B0044615460298A0627D
:10405000A58500202064222084F83E002A48A16B18
:10406000C8632A48A16B08642948A16BC864002072
:10407000A16B086502AE32682368191D2B46A06B40
:10408000FDF718FB00BF002000902068006800903A
:1040900020684068009000BF00BF00BF002084F887
:1040A0003C0000BF206970B100BF00BF21680C3127
:1040B00051E8001F41F4807021680C3141E8000292
:1040C000002AF3D100BF00BF00BF2168143151E8BE
:1040D000001F41F001002168143141E80002002A6C
:1040E000F3D100BF00BF00BF2168143151E8001FA9
:1040F00041F040002168143141E80002002AF3D168
:1041000000BF002004B070BD9D3B00084D3C00087E
:104110004D3B0008014691F83D00212828D18868D0
:10412000B0F5805F0BD1086948B90A6A1088C0F3FE
:1041300008000B685860086A801C086205E00B6A7A
:10414000581C086218780B685860C88C401E80B2F2
:10415000C88458B90868C06820F080000B68D8602F
:104160000868C06840F040000B68D86000207047C5
:104170000220FCE710B5034800F044F80148FEF7C0
:104180008FFD10BD1806002010B500211748FEF75E
:10419000ADFC04211548FEF7A9FC08211348FEF7E1
:1041A000A5FC0C211148FEF7A1FC00211048FEF7E8
:1041B0009DFC04210E48FEF799FC04210D48FEF7F2
:1041C00095FC04210C48FEF791FC08210948FEF7F4
:1041D0008DFC0C210748FEF789FC00210748FEF7FB
:1041E00085FC04210548FEF781FC10BDB0040020C9
:1041F000F80400204005002088050020D00500209C
:1042000000BFFEE738B50446002520680068C0F30B
:10421000001068B300BF0020009020680068009084
:1042200020684068009000BF00BF2046FEF7F2FC07
:1042300010491148FCF7E3FA00200AE00F4931F871
:1042400010100C4A32F81020914201D0012502E0F2
:10425000401C0D28F2DB00BF012D04D100250848C9
:10426000006801F0E1FFFF2203492046FEF768FFE6
:1042700038BD00002C0400202C0300204604002040
:104280002400002002480068C0F3022070470000AC
:104290000CED00E010B5002804DB0A07130E054AF8
:1042A000135406E00A07140E034A00F00F031B1F05
:1042B000D45410BD00E400E018ED00E000B58BB070
:1042C0000120099000200790012008900020019013
:1042D0000290039004900690059001A90548FCF710
:1042E00063FB0448FCF7AFFF02210248FCF79CFA8D
:1042F0000BB000BD600400201C4890ED000AF3EEF6
:104300000E0A20EE200ADFED1A0A80EE201A194864
:1043100080ED011A154890ED010AF3EE0E0A20EE29
:10432000200ADFED130A80EE201A124880ED1A1AD7
:104330000E4890ED020AF3EE0E0A20EE200ADFEDA1
:104340000C0A80EE201A0B4880ED331A074890EDD6
:10435000030AF3EE0E0A20EE200ADFED050A80EED6
:10436000201A044880ED4C1A704700001C030020FE
:10437000DA0F49403401002070B505460E46144658
:1043800000EE104AB8EE400ADFED320AB4EEE00A61
:10439000F1EE10FA0FDB00EE104AB8EE400ADFED46
:1043A0002D0A30EE600ADFED2C0A80EE201A2B4831
:1043B00080ED001A21E000EE104AB8EE400ADFED71
:1043C000260AB4EEE00AF1EE10FA11D800EE104A17
:1043D000B8EE400ADFED200A30EEC00AB1EE400A26
:1043E000DFED1D0A80EE201A1C4880ED001A04E063
:1043F0009FED1B0A194880ED000A00EE105AB8EE36
:10440000400ADFED180A80EE201AB6EE000A31EEFF
:10441000400A154880ED000A00EE106AB8EE400A26
:10442000DFED100A80EE201AB6EE000A31EE400AE7
:104430000E4880ED000A0E48084991ED001A0B491C
:10444000D1ED000A084991ED000A00F053F8FFF79A
:1044500053FF70BD00FF02470000FA461C00002019
:104460000000000000FF7F4714000020180000201B
:104470001C0300203EB500242BE004EBC40101EB3B
:104480000411154A02EB810000F044FA00204FF4B9
:10449000FA51CDE9000104EBC40101EB04110E4A0D
:1044A000029002EB810004EBC40101EB041102EB6A
:1044B0008101DFED0A1A9FED0A1AF2EE040AB2EE4C
:1044C000040A41F288334FF480428D6D0121A847E0
:1044D000641C042CD1DB3EBD340100200000000030
:1044E0000AD7A33C10B500F04BF810BD10B500F092
:1044F0001BFF10BD9FED202AF0EE401A42EE411A3C
:10450000B3EE032A61EE821A9FED1C2AC1EE822AC5
:10451000C0ED002A9FED182AF0EE601A42EE011A53
:10452000BBEE032A61EE821A9FED142AC1EE822AA5
:10453000C0ED012A9FED102AF0EE401A42EE011A5A
:10454000BBEE032A61EE821A9FED0C2AC1EE822A8D
:10455000C0ED022A9FED082AF0EE601A42EE411AE1
:10456000B3EE032A61EE821A9FED042AC1EE822A7D
:10457000C0ED032A70470000AFB2FEBEE3A59B3D2D
:1045800010B5002000F052F826490860012000F024
:104590004DF824494860022000F048F8214988601D
:1045A000032000F043F81F49C86008460068B0F9CE
:1045B000020000EE900AF8EEE00AB0EE600A1A4837
:1045C000016E884717484068B0F9020000EE900A73
:1045D000F8EEE00AB0EE600A1348D0F8C410643078
:1045E000884710488068B0F9020000EE900AF8EEA3
:1045F000E00AB0EE600A0C48D0F82811C8308847AD
:104600000848C068B0F9020000EE900AF8EEE00A2F
:10461000B0EE600A0448D0F88C1100F59670884717
:1046200010BD00000C03002034010020014601F001
:10463000030000EB8000024A02EB400070470000DC
:10464000BC000020FDF7A6F9FFF750F8FEF728FEA2
:10465000FEF7E2FDFEF79AFDFEF7BCFDFEF7F4FF64
:10466000FFF70EF8FEF7BEFEFEF72CFFFEF76EFF1B
:10467000FEF7BAFFFEF77EFEFFF720FE0F48FCF7BD
:10468000E2FD02210D48FCF7CFF8FFF7F3FE0C48DE
:104690000068C06840F0100009490968C860FF223E
:1046A00008490748FEF74CFDFFF76EFD00F01CF8C7
:1046B000FEF7CEFD00F02CF800BFFEE760040020FE
:1046C000180600202C03002010B50146EFF30580EA
:1046D00010B16FF0050404E0002411B1084600F0A9
:1046E0008BFF204610BD0000EFF30580002802D0AC
:1046F0006FF0050070470548016811B14FF0FF30B9
:104700007047012101600020704700008C000020EC
:1047100010B5EFF30580002802D06FF0050010BD42
:1047200007480168012902D04FF0FF3010BD054A4B
:10473000002111700221016000F0CCFF002010BDAB
:104740008C0000201FED00E02DE9F04385B00B4602
:104750004FF000070497EFF3058100294ED10028A0
:104760004CD080244FF0180C8946491E52B316686D
:1047700006B1B146956905B1AC46ACF10105382DDD
:1047800003D2157915F0010F03D005B00020BDE864
:10479000F083556905B1AC08D2F80880B8F1000F74
:1047A00007D0D6685C2E04D3166916B10DB101216D
:1047B00009E0B8F1000F06D1D56825B9156915B91A
:1047C000002100E00021012901D061B116E09168CB
:1047D000126901920291CDF800C02246494601F0CB
:1047E00097FB04900AE004A90191A2B2CDF800C0A1
:1047F000494601F057FB012800D00497049805B002
:10480000BDE8F083F0EE400AC0ED060A90ED070A1D
:1048100080ED080A90ED0C0A80ED0D0A90ED010A7A
:1048200090ED061A30EE410A80ED070A90ED070A76
:10483000B0EEC00A90ED101AB4EEC10AF1EE10FA13
:1048400065DD90ED030A90ED071A20EE010A80ED78
:10485000090A90ED0A0A90ED041AD0ED071A01EE4C
:10486000210A80ED0A0A90ED070A90ED081A30EE51
:10487000410A90ED051A20EE010A80ED0B0A90ED39
:104880000A0A90ED0F1AB4EEC10AF1EE10FA03DD38
:1048900090ED0F0A80ED0A0A90ED0A0A90ED0F1ACA
:1048A000B1EE411AB4EEC10AF1EE10FA05D290ED64
:1048B0000F0AB1EE400A80ED0A0A90ED090A90ED68
:1048C0000A1A30EE010A90ED0B1A30EE010A80ED63
:1048D0000C0A90ED0C0A90ED0E1AB4EEC10AF1EE3E
:1048E00010FA03DD90ED0E0A80ED0C0A90ED0C0A33
:1048F00090ED0E1AB1EE411AB4EEC10AF1EE10FAC3
:1049000005D290ED0E0AB1EE400A80ED0C0A90ED52
:104910000C0A7047034981650349C1650349016673
:1049200070470000314900088D490008054800081B
:104930009DED002ADDED012A9DED023A0170F8EEB1
:10494000423AC0ED113A80ED100A03EE903AF8EECB
:10495000633AC0ED0F3A03EE902AF8EE633AC0EDE9
:104960000E3AF8EEE23AC0ED123AF8EEC33AC0ED74
:10497000013AC0ED030A80ED041AC0ED051ADFED1F
:10498000023AC0ED0C3A70470000000080ED030AC7
:10499000C0ED040A80ED051A704700002DE9F041D2
:1049A00004460F46134EF5683068001D00F0E6FC23
:1049B000B4F1FF3F07D137B13068BDE8F041011DC8
:1049C0000D4800F02EBD2C4430684460AC4206D245
:1049D0003068011DB06BBDE8F04100F007BD3068E4
:1049E000011D706B00F002FDB06A844200D2B46217
:1049F000BDE8F0813C000020380C002070B5044672
:104A000000F01CFD1C4DA868401CA860286810B16F
:104A1000686938B10CE02C60A868012808D100F062
:104A200093F905E02868E16AC06A884200D82C60E2
:104A3000686A401C68626064E06A2969884200D93B
:104A400028610E4900EB800001EB8000211D00F081
:104A5000E8FC00F013FD686900280CD02868E16AC2
:104A6000C06A884207D206494FF080500860BFF301
:104A70004F8FBFF36F8F70BD3C0000208807002070
:104A800004ED00E038B500F0D9FC0F4C2068B8B94F
:104A90000E4800F09DFC0E4800F09AFC0B48E060C8
:104AA0001430206100200B4B009003F150021021C4
:104AB0000A2000F07BFF206010B107A100F062FD2A
:104AC000BDE8384000F0DABC780000203C0D002042
:104AD000500D00204C0C0020546D7251000000005D
:104AE00070B50D4C6068002815D00C4E00F0A6FC87
:104AF000F068C568281D00F041FCA068401EA06059
:104B00006068401E606000F0B9FC284600F051F873
:104B100060680028EAD170BD3C000020240C002011
:104B20000B46026C002A0CD0C1681144C160D0F859
:104B300008C0614501D30168C160C1681846FBF730
:104B40006ABC70472DE9F041044616460027A56B64
:104B5000226C002A10D0C6B1E068FBF75CFCE1686B
:104B6000206C091AE1602268914202D2A168081AF9
:104B7000E060022E16D017E02068A8B9A06801F006
:104B800071FA07460020A0600EE06068FBF743FC66
:104B9000216C606808446060A168884204D3206882
:104BA000606001E005B16D1E681CA0633846BDE879
:104BB000F08110B5044694F8591000290BD0012952
:104BC00011D0022914D0502080F31188BFF34F8FE9
:104BD000BFF36F8FFEE7206B00F066FC2046BDE858
:104BE000104000F061BC2046BDE8104000F05CBC05
:104BF00010BD00000749CA681168002904D00021CF
:104C0000016019B1002070470121F9E7D068006800
:104C100070470000780000204FF47051104810F0E9
:104C2000070F06D0C01D20F007000D49411AC1F53D
:104C300070510C4A1060002353600144083921F080
:104C40000701183A11604B600B600B1A436001605A
:104C50004068906050604FF0004050617047000025
:104C60001C140020A8000020074E4FF08054074D70
:104C7000FFF736FF30680128FAD92C60BFF34F8F59
:104C8000BFF36F8FF4E700008807002004ED00E019
:104C900070B51D46049C002909D02260E0632164A0
:104CA0000121204600F0BAFE84F84C5070BD24600B
:104CB000F4E72DE9F05F82460B9F0A9D0C9C0E469F
:104CC00090469B464FEA8801A522206BFBF7E8FB44
:104CD000206BA8F1010100EB810020F007094FF0E3
:104CE000000866B100202218315C82F83410315C73
:104CF00011B1401C1028F6D384F8438001E084F8F9
:104D00003480382D00D33725E562E564C4F850803F
:104D1000201D00F068FB04F1180000F064FB246122
:104D2000C5F13800A0616462C4F8548084F85880EA
:104D30005A465146484600F0E1FA2060002F00D064
:104D40003C60BDE8F09F000070B500240F4D04EBFF
:104D5000840005EB800000F03BFB641C382CF6D38C
:104D60000B4800F035FB0B4800F032FB0A4800F01E
:104D70002FFB0A4800F02CFB094800F029FB0948EA
:104D8000034941631431816370BD0000880700202E
:104D9000E80B0020FC0B0020100C0020240C00204D
:104DA000380C00203C00002010B4144900E01146EB
:104DB0000A688242FBD34B6803EB010C844503D1A4
:104DC00040681844486008460C68D0F804C00CEBF2
:104DD0000003A3420CD10A4B1B689A4206D05268CA
:104DE000624442600A681268026002E0036000E008
:104DF0000260814200D0086010BC7047A80000200B
:104E00009000002010B5002441600061DFF838C038
:104E100091420BD8D11A8269914201D3012410E04A
:104E2000011DDCF8100000F0E1FA0AE09A4203D21A
:104E3000994201D3012404E0011DDCF80C0000F0CC
:104E4000D5FA204610BD00007800002010B50446B9
:104E500000F0F4FAA06B20B1002400F00FFB204614
:104E600010BD0124F9E710B5044600F0E7FAA06B85
:104E7000E16B884201D1012400E0002400F0FEFA39
:104E8000204610BDF8B505460E461748C068C068F4
:104E9000C468201D00F072FA94F8280010F0040F86
:104EA00018D0A0692B46411932462046FFF7AAFFC9
:104EB000A0B100200346014600902A46204601F09A
:104EC0002FFA58B9502080F31188BFF34F8FBFF3EA
:104ED0006F8FFEE720F0010084F82800216A01B0FE
:104EE0002046BDE8F04008477800002030B587B084
:104EF000414D002202A9286800F0F0FE002875D07C
:104F00000298002803DA039A0599049890470298BA
:104F1000002864DB049C606910B1201D00F02EFAAB
:104F200001A800F0B3F8024602980A2857D2DFE839
:104F300000F00505052F364D05052F3694F828009D
:104F400040F0010084F828000398A1690346014459
:104F50002046FFF757FF002841D0216A20468847A6
:104F600094F8280010F0040F39D000200090039826
:104F7000A169002342181946204601F0D1F970BBFF
:104F8000502080F31188BFF34F8FBFF36F8FFEE780
:104F900094F8280020F0010084F828001FE094F81D
:104FA000280040F0010084F828000398A06128B18F
:104FB000811813462046FFF725FF10E0502080F3AC
:104FC0001188BFF34F8FBFF36F8FFEE794F828006F
:104FD00010F0020F0CD020F0010084F8280000220D
:104FE00002A9286800F07AFE002889D107B030BDF8
:104FF000204600F059FAF2E778000020F8B505469F
:105000000C4600F0FDFB684600F040F806460098AC
:1050100010B101F0A3F8F8BD44B9B54206D801F0CB
:105020009DF831462846FFF72DFFF8BD0C481CB10E
:105030000169096891B10024A91B2246006800F0AB
:10504000B5FA01F08BF80028EFD106494FF08050F7
:105050000860BFF34F8FBFF36F8FF8BD0124EBE7FC
:105060007800002004ED00E00749486B0068002844
:1050700005D0486BC068C0684068886270474FF0D0
:10508000FF308862704700003C00002070B5044685
:1050900000F07CFF0546074EB068854204D200F060
:1050A0000BF80120206001E000202060B560284658
:1050B00070BD000078000020F8B51C4EF068006854
:1050C000002826D00027F068C0680568C468201D45
:1050D00000F054F9216A2046884794F8280010F01F
:1050E000040F12D0A0692844A84206D96060246148
:1050F000211DF06800F07AF907E000232A461946DE
:105100002046009701F00CF940B1F06800680028D3
:10511000D9D1F0683169F1603061F8BD502080F379
:105120001188BFF34F8FBFF36F8FFEE77800002029
:105130000A484068B0F1FF3F07D0502080F3118843
:10514000BFF34F8FBFF36F8FFEE7502080F31188BE
:10515000BFF34F8FBFF36F8FFEE70000B00000205A
:10516000002100280AD00B4B42699A420FD1806A75
:10517000A3F1280290420AD040B108E0502080F309
:105180001188BFF34F8FBFF36F8FFEE701210846F1
:1051900070470000380C002082B001A8FFF72AFDFC
:1051A0000199FFF72BFFFFF7A1FEF6E770B5044664
:1051B00000F044F994F94550002D0CDD606A50B1BF
:1051C00004F1240000F08EFF08B100F045FA681EDB
:1051D00045B2002DF2DC4FF0FF3684F8456000F058
:1051E0004DF900F02BF994F94450002D0CDD2069A5
:1051F00050B104F1100000F075FF08B100F02CFA76
:10520000681E45B2002DF2DC84F84460BDE87040B1
:1052100000F034B92DE9F0410546002600F0F0FA1F
:10522000344F386808B9FFF7F7FC7869054251D167
:105230009DB1083515F0070F0FD005F00700C0F13C
:105240000800054415F0070F07D0502080F311889F
:10525000BFF34F8FBFF36F8FFEE7002D3AD0786812
:10526000854237D824490846046801E021460446AF
:105270006068A84202D220680028F7D138688442CA
:1052800028D0086800F10806206808606068411BA3
:1052900010290FD9601910F0070F07D0502080F3A4
:1052A0001188BFF34F8FBFF36F8FFEE741606560DA
:1052B000FFF77AFD61687868401A7860BA689042B2
:1052C00000D2B86078690843606000202060F86808
:1052D000401CF86000F042FF16F0070F07D0502086
:1052E00080F31188BFF34F8FBFF36F8FFEE7304617
:1052F000BDE8F08190000020A8000020001F4FF0C2
:1053000080730360001F21F001010160001F054947
:10531000016014380260001F6FF002010160203844
:10532000704700003151000810B5134C94ED570A36
:10533000BDEEC00A10EE104A23B20F4C94ED3E0AA7
:10534000BDEEC00A10EE104A22B20B4C94ED250AB5
:10535000BDEEC00A10EE104A21B2074C94ED0C0AC3
:10536000BDEEC00A10EE104A20B2FBF793F90220FE
:10537000FCF7EAF910BD0000340100200169436820
:1053800082689A60836842685A604A68824201D1A2
:1053900082684A60002202610868401E086008684E
:1053A00070470000034B036003F15C00086080203D
:1053B00010607047640D0020044B036003F15C0033
:1053C00008604FF48070106070470000C00F00202C
:1053D00000F1080141604FF0FF328260C16001615D
:1053E00000210160704700210161704710B4D1F8BD
:1053F00000C0BCF1FF3F02D000F1080202E00269E8
:1054000004E01A4653681C686445FAD953684B6037
:1054100099608A60516008610168491C016010BC94
:10542000704742684A6093688B60936859609160E6
:1054300008610168491C016070470000502080F33A
:105440001188BFF34F8FBFF36F8F0A494868401C24
:10545000486001280CD10848006810F0FF0F07D001
:10546000502080F31188BFF34F8FBFF36F8FFEE79B
:1054700070470000B000002004ED00E009494868D2
:10548000002806D0401E4860002801D180F3118812
:105490007047502080F31188BFF34F8FBFF36F8F99
:1054A000FEE70000B000002070B500282AD0A0F16F
:1054B0000804154D60686969084207D1502080F3DF
:1054C0001188BFF34F8FBFF36F8FFEE722683AB1A9
:1054D000502080F31188BFF34F8FBFF36F8FFEE72B
:1054E0008843606000F08CF960686968084468600F
:1054F0002046FFF759FC2869401C2861BDE8704030
:1055000000F02CBE70BD0000900000204FF0E020A5
:1055100000210161816105494FF47A720968B1FB8C
:10552000F2F1491E416107210161704738000020F6
:1055300010B5FAF7D5FE114910280ED300F1E0207E
:1055400090F8F0030A78904207D2502080F3118837
:10555000BFF34F8FBFF36F8FFEE70948006889687C
:1055600000F4E060884207D9502080F31188BFF32F
:105570004F8FBFF36F8FFEE710BD0000B00000201B
:105580000CED00E00022084B53F832C0BCF1000FD4
:1055900003D0521C082AF7D3704743F8321003EBAC
:1055A000C2014860704700004807002070B50446FB
:1055B0000D461646FFF742FF94F94400B0F1FF3F55
:1055C0004FF0000001D184F8440094F94510B1F186
:1055D000FF3F01D184F84500FFF750FFA06B28B9C9
:1055E0003246294604F1240000F056F82046BDE872
:1055F0007040FFF7DBBD000010B502460020002A16
:1056000012D00F48006B38B1502080F31188BFF3DF
:105610004F8FBFF36F8FFEE700F0F2F800211046C6
:10562000FFF7BCF900F09AFD002807D105494FF0BB
:1056300080500860BFF34F8FBFF36F8F10BD000025
:105640003C00002004ED00E002490A6A0260C968DB
:10565000416070473C00002001490120C86170474B
:105660003C00002010B50C4600280BD0094A1268F7
:1056700002F11801FFF7BAFE2046BDE810400121F3
:10568000FFF78CB9502080F31188BFF34F8FBFF321
:105690006F8FFEE73C00002070B50D4614460028D1
:1056A0000DD00B4909681831FFF7BBFE0CB14FF064
:1056B000FF3521462846BDE87040FFF76FB95020FE
:1056C00080F31188BFF34F8FBFF36F8FFEE70000A9
:1056D0003C00002030B587B000250695059504AA4A
:1056E00005A906A8FFF75EFE0698059901910290AC
:1056F0000023009517A11948049A00F009FC184CE2
:10570000E06208B1012000E00020012801D100F092
:10571000D3FD01280AD0B0F1FF3F19D1502080F30A
:105720001188BFF34F8FBFF36F8FFEE7502080F3D8
:105730001188BFF34F8FBFF36F8F4FF0FF30A06220
:1057400001206061E56007B0BDE8304000F096B828
:1057500007B030BD49444C4500000000694C0008CA
:105760003C00002070B50446FFF768FE214D04B9E7
:105770002C68201DFFF702FEA06A18B104F1180082
:10578000FFF7FCFD211D1C48FFF74BFE94F8580065
:105790000026012801D184F85860FFF76FFE686980
:1057A00028B1FFF74BFEFFF75FFCFFF767FE2868A5
:1057B000844213D1686990B1286B38B1502080F3CE
:1057C0001188BFF34F8FBFF36F8FFEE70B494FF088
:1057D00080500860BFF34F8FBFF36F8F70BD0648D6
:1057E0000068A968884201D12E6070BDBDE8704094
:1057F00000F00EB83C000020380C002004ED00E062
:105800000248016B491C0163704700003C00002006
:10581000184B186B002802D00120D8617047002077
:10582000D8611869144900EB800251F822203AB976
:10583000C0B1401E00EB800251F82220002AF7D0B0
:1058400000EB800201EB82014A6852684A6001F174
:10585000080C624501D152684A604968C9681960FC
:1058600018617047502080F31188BFF34F8FBFF34A
:105870006F8FFEE73C0000208807002010B582B043
:1058800038480168384A914207D1502080F3118886
:10589000BFF34F8FBFF36F8FFEE700683349884235
:1058A00007D1502080F31188BFF34F8FBFF36F8F64
:1058B000FEE72F4908780190FF20087008780090D3
:1058C0009DF800009DF8002000F0F000904207D005
:1058D000502080F31188BFF34F8FBFF36F8FFEE727
:1058E0009DF80000234C00F0500020700720A060BD
:1058F0009DF8000010F0800F0BD0A068401EA06043
:105900009DF80000400000909DF8000010F0800F0E
:10591000F3D1A068032807D0502080F31188BFF38B
:105920004F8FBFF36F8FFEE74FF44070A060019878
:1059300008701148016841F470010160016841F08C
:1059400070410160FFF7E2FD00206060FAF790FC13
:105950000A48016841F040410160FAF775FC02B065
:10596000002010BD00ED00E071C20F4170C20F4178
:1059700000E400E0B000002020ED00E034EF00E0A3
:1059800010B5502080F31188BFF34F8FBFF36F8F96
:1059900000F002FB18B104494FF08050086000206D
:1059A00080F3118810BD000004ED00E038B5049DBF
:1059B000002804D05BB102B189B1C2B120E050200F
:1059C00080F31188BFF34F8FBFF36F8FFEE7502036
:1059D00080F31188BFF34F8FBFF36F8FFEE7502026
:1059E00080F31188BFF34F8FBFF36F8FFEE739B19C
:1059F000502080F31188BFF34F8FBFF36F8FFEE706
:105A00004FF0500CCDF800C01C46012384F84630FE
:105A10002B460094FFF73CF9204638BD70B504468C
:105A20000D46002C25D0FFF709FD226CE16B2068A4
:105A300001FB0200A0600020A06320686060E16BB1
:105A4000226C2068491E01FB0200E0604FF0FF302D
:105A500084F8440084F845009DB104F11000FFF77C
:105A6000B7FC04F12400FFF7B3FCFFF707FD0120AA
:105A700070BD502080F31188BFF34F8FBFF36F8F3D
:105A8000FEE720690028F0D004F1100000F02AFBA6
:105A90000028EAD004494FF080500860BFF34F8FD0
:105AA000BFF36F8FE1E7000004ED00E02DE9FF4751
:105AB00082B004468A461F460025002C03D0BAF166
:105AC000000F08D011E0502080F31188BFF34F8FF2
:105AD000BFF36F8FFEE7206C38B1502080F3118840
