:020000040800F2
:10000000105D0020E90200088D3B00088D340008D7
:10001000893B00081F060008B547000800000000E3
:10002000000000000000000000000000290200089D
:10003000C10700080000000085020008E93B000835
:100040000303000803030008030300080303000878
:100050000303000803030008030300080303000868
:100060000303000803030008030300080303000858
:100070000303000803030008030300080303000848
:1000800085060008030300080303000803030008B3
:100090002506000803030008030300080303000803
:1000A0000303000803030008030300080303000818
:1000B0000303000803030008030300080303000808
:1000C00003030008030300080303000803030008F8
:1000D000030300080D4700081D470008030300083C
:1000E000C307000803030008030300080303000814
:1000F00003030008030300080303000803030008C8
:1001000003030008030300080303000803030008B7
:100110000303000803030008D13C0008E13C000889
:100120000303000803030008030300080303000897
:100130000303000803030008030300080303000887
:100140000303000803030008030300080303000877
:100150000303000803030008030300080303000867
:100160000303000803030008030300080303000857
:100170000303000803030008030300080000000055
:10018000030300080303000800F002F800F03CF845
:100190000AA090E8000C82448344AAF10107DA45E2
:1001A00001D100F031F8AFF2090EBAE80F0013F0F8
:1001B000010F18BFFB1A43F001031847286800001D
:1001C00048680000103A24BF78C878C1FAD85207AE
:1001D00024BF30C830C144BF04680C6070470000C1
:1001E0000023002400250026103A28BF78C1FBD840
:1001F000520728BF30C148BF0B6070471FB506F0DB
:10020000A9FB1FBD10B510BD00F0D0F91146FFF7D6
:10021000F5FF04F0F3FC00F0EEF903B4FFF7F2FF92
:1002200003BC00F0F5F900002C4B19680868B0E831
:10023000F04F80F30988BFF36F8F4FF0000080F319
:10024000118870470000000008480068006880F3CB
:1002500008884FF0000080F3148862B661B6BFF3DF
:100260004F8FBFF36F8F00DF00BF00BF08ED00E0CE
:10027000DFF80C00016841F470010160704700BFB5
:1002800088ED00E0EFF30980BFF36F8F134B1A681E
:100290001EF0100F08BF20ED108A20E9F04F10600B
:1002A00009B44FF0500080F31188BFF34F8FBFF3B4
:1002B0006F8F05F08DFD4FF0000080F3118809BCB1
:1002C00019680868B0E8F04F1EF0100F08BFB0ECD6
:1002D000108A80F30988BFF36F8F70473C000020BD
:1002E000EFF3058070470000094880470948004740
:1002F000FEE7FEE7FEE7FEE7FEE7FEE7FEE7FEE7D6
:10030000FEE7FEE704480549054A064B7047000032
:10031000BD3C00088901000810510020105D00203C
:10032000105500201055002053EA020C00F069809F
:100330002DE9F04B4FF00006002B1FBFB3FA83F5F9
:1003400003FA05F424FA05F65E4012BF1643B2FA2A
:1003500082F502FA05F4C5F120051EBF22FA05FC5C
:1003600044EA0C04203556EA044C4FEA144418BF02
:10037000641C4FF000084FF00009904271EB030C31
:1003800039D3002919BFB1FA81F701FA07F6B0FA9B
:1003900080F700FA07F6C7F120071EBF20FA07FC16
:1003A00046EA0C062037B6FBF4FCA7EB0507103F26
:1003B00007F01F0BCBF120060CFA0BFB2CFA06F60C
:1003C00044BFB3460026202FA4BF5E464FF0000B6B
:1003D0005BEA060C08BF4FF0010B19EB0B09ABFBF6
:1003E000027C48EB0608C01B06FB02CC0BFB03CCCF
:1003F00071EB0C01C1E70B46024641464846BDE899
:10040000F08B13B54FF000004FF00001AFF3008008
:10041000BDE81C407047032A40F2308010F0030C06
:1004200000F0158011F8013BBCF1020F624498BF47
:1004300011F801CB00F8013B38BF11F8013BA2F1E4
:10044000040298BF00F801CB38BF00F8013B11F05F
:10045000030300F05780083AC0F0088051F8043BCD
:10046000083A51F804CBA0E80810F5E7121D5CBF6C
:1004700051F8043B40F8043BAFF30080D20724BF9F
:1004800011F8013B11F801CB48BF11F8012B24BF33
:1004900000F8013B00F801CB48BF00F8012B704782
:1004A00002F0FF0343EA032242EA024200F05EB890
:1004B0004FF0000200B5134694469646203922BFFD
:1004C000A0E80C50A0E80C50B1F12001BFF4F7AF48
:1004D000090728BFA0E80C5048BF0CC05DF804EB2A
:1004E000890028BF40F8042B08BF704748BF20F898
:1004F000022B11F0804F18BF00F8012B7047704796
:100500007047704710B5203AC0F00B80B1E8185022
:10051000203AA0E81850B1E81850A0E81850BFF4ED
:10052000F5AF5FEA027C24BFB1E81850A0E818508C
:1005300044BF18C918C0BDE810405FEA827C24BFE0
:1005400051F8043B40F8043B08BF7047D20728BF6E
:1005500031F8023B48BF11F8012B28BF20F8023BBD
:1005600048BF00F8012B70474FF000020429C0F08B
:10057000128010F0030C3FF49DAFCCF1040CBCF1E1
:10058000020F18BF00F8012BA8BF20F8022BA1EB27
:100590000C01FFF78FBF5FEAC17C24BF00F8012B7D
:1005A00000F8012B48BF00F8012B7047754600F09A
:1005B0002BF8AE4605006946534620F007008546F5
:1005C00018B020B5FFF79EFEBDE820404FF00006B2
:1005D0004FF000074FF000084FF0000B21F007012B
:1005E000AC46ACE8C009ACE8C009ACE8C009ACE86E
:1005F000C0098D46704710B50446AFF30080204611
:10060000BDE81040FFF709BE00487047AC5000201D
:1006100001491820ABBEFEE726000200704700BF6C
:10062000FEE7000010B5024800F0F0FA10BD00002F
:1006300060040020F8B507460C4615461E464FF4E8
:1006400000700D49086000208860C86008200861BB
:10065000380A0A4908704F70200A8870CC70280A3E
:1006600008714D71300A8871CE716B460A46024995
:10067000034800F0D0F8F8BD1C010020080000205D
:100680006004002010B5024800F060FE10BD0000BC
:10069000300700200146087810381823B0FBF3F229
:1006A0000848805CC865032A05D908686FF309000B
:1006B000001D886503E008686FF309008865886D90
:1006C00070470000A8690008014600208A6A8B690B
:1006D000CBB932B1012A0DD0022A03D0032A10D19E
:1006E0000EE000BFCB6A03F08073B3F1807F00D1CE
:1006F000012007E0CB6AB3F1C07F00D1012001E007
:1007000000E000BF34E08B69B3F5005F1AD132B16D
:10071000012A07D0022A03D0032A11D10AE000BF20
:1007200001200EE0CB6A03F08073B3F1807F00D12B
:10073000012006E0CB6AB3F1C07F00D1012000E0C8
:1007400000BF15E032B1012A05D0022A04D0032AE5
:100750000CD103E000BF00BF012008E0CB6A03F02A
:100760008073B3F1807F00D1012000E000BF00BFA3
:10077000704730B50468246824F4802405682C6030
:10078000046863608468402C04D10468A260046833
:10079000E16003E00468A1600468E26030BD10B568
:1007A0000246002009E043005B1CD35C12F81040B5
:1007B00043EA042321F81030401C0D28F3DB10BD60
:1007C000704710B54FF4006000F0B6FF4FF4805052
:1007D00000F0B2FF4FF4804000F0AEFF4FF4004055
:1007E00000F0AAFF10BD72B600BFFEE710B50246CA
:1007F00092F82030012B01D0022B06D110684069FD
:10080000084314686061002010BD506A40F48020E5
:1008100050620120F8E7F0B504460D461E4694F8F4
:10082000207020688368A86800B900E000BF012F2D
:1008300001D0022F7CD103F0806030B903F000605A
:1008400018B903F08050002873D0C3F30161022966
:1008500005D9606A40F4000060620120F0BD01200B
:1008600088403060A86860B9B5F800C0E86840EA20
:100870004C5C206800F5C07000EB0110C0F800C0AF
:100880000FE0D5E901C040EACC00D5F80CC040EA41
:100890000C00D4F800C00CF5C07C0CEB011CCCF8AB
:1008A0000000D5F810C0206800F5C07000EB011002
:1008B000C0F804C0287D01280ED1206800F5C07062
:1008C00000EB0110406840F4807C206800F5C070A7
:1008D00000EB0110C0F804C0D079000692F806C001
:1008E00040EA0C4092F805C040EA0C2C10794CEA22
:1008F000000C206800F5C07000EB0110C0F80CC0BF
:10090000D078000692F802C040EA0C4092F801C08C
:1009100040EA0C2092F800C040EA0C00D4F800C075
:100920000CF5C07C0CEB011CCCF80800206801E041
:1009300016E00FE000F5C07000EB0110006840F019
:10094000010C206800F5C07000EB0110C0F800C079
:10095000002083E7606A40F40010606201207DE7B8
:10096000606A40F480206062012077E7F0B50446B9
:100970000A46216894F82050012D01D0022D7ED125
:10098000424901F50071086840F0010008600868FC
:1009900020F47C5008600868566A40EA0620086027
:1009A000107D00F01F06012000FA06F3C869984385
:1009B000C861A1F50071D069C8B9D1F80C0298439B
:1009C000C1F80C02908880B2968940EA064601F58B
:1009D0001070576940F83760108880B2168940EA75
:1009E000064601F51070576900EBC7004660D069F4
:1009F000012819D1D1F80C021843C1F80C029088D3
:100A000080B2168840EA064601F51070576940F832
:100A10003760908980B2168940EA064601F5107069
:100A2000576900EBC7004660906928B9D1F8040205
:100A30009843C1F8040204E0D1F804021843C1F855
:100A40000402106928B9D1F814029843C1F81402BD
:100A500004E0D1F814021843C1F81402106A012806
:100A600004D1D1F81C021843C1F81C02D1F80002CD
:100A700020F00100C1F800020020F0BDFFE7606A2D
:100A800040F4802060620120F7E70000006400402D
:100A9000704770B5044694F82050012D01D0022D06
:100AA0007DD151B92068C06800F0030080B9606A48
:100AB00040F400106062012070BD2068006900F001
:100AC000030028B9606A40F4001060620120F3E777
:100AD000206800F5D87000EB0110006800F00400F9
:100AE0009060906840B9206800F5D87000EB011064
:100AF0000068400D106007E0206800F5D87000EB3A
:100B000001100068C0085060206800F5D87000EB44
:100B10000110006800F00200D060206800F5D87075
:100B200000EB0110406800F00F001061206800F534
:100B3000D87000EB0110406800F47F40000A90611B
:100B4000206800F5D87000EB01104068000C50617F
:100B5000206800F5D87000EB0110806818702068DC
:100B600000F5D87000EB0110806800F47F40000AA7
:100B70005870206800F5D87000EB0110806800F410
:100B80007F00000C9870206800F5D87000EB011011
:100B90008068000ED870206800F5D87000E02FE063
:100BA00000EB0110C0681871206800F5D87000EBE8
:100BB0000110C06800F47F40000A5871206800F5F9
:100BC000D87000EB0110C06800F47F00000C987131
:100BD000206800F5D87000EB0110C068000ED871D5
:100BE00031B92068C06840F020002668F06005E058
:100BF0002068006940F020002668306100205BE733
:100C0000606A40F480206062012055E72DE9F05FC2
:100C100004460025206846692068D0F804902068C2
:100C200087682068D0F80CA02068D0F810B0206841
:100C3000D0F8188006F00100002855D007F0010018
:100C4000C0B101202168886007F0020018B1204679
:100C500000F00BFB0EE007F0040010B145F4006556
:100C600008E007F0080010B145F4805502E0204686
:100C700000F0FAFA07F48070C8B14FF48070216870
:100C8000886007F4007018B1204600F0F0FA0EE01A
:100C900007F4806010B145F4005508E007F40060E7
:100CA00010B145F4804502E0204600F0DFFA07F479
:100CB0008030C8B14FF480302168886007F400307C
:100CC00018B1204600F0D5FA0EE007F4802010B1EC
:100CD00045F4004508E007F4002010B145F48035E4
:100CE00002E0204600F0C4FA06F0080038B10AF02D
:100CF000100020B145F4007510202168C86006F08E
:100D0000040040B10AF0080028B108202168C8603A
:100D1000204600F007FA06F0020038B12068C068EB
:100D200000F0030010B1204600F0FEF906F040008C
:100D300038B10BF0100020B145F480651020216817
:100D4000086106F0200040B10BF0080028B108202F
:100D500021680861204600F055FA06F0100038B10D
:100D60002068006900F0030010B1204600F04BFA43
:100D700006F4003040B109F0100028B110202168BD
:100D80004860204600F040FA06F4803040B109F097
:100D9000080028B1082021684860204600F06AFA5F
:100DA00006F4004088B309F0040078B306F48070BC
:100DB00020B108F0010008B145F0010506F400700B
:100DC00020B108F0020008B145F0020506F4806089
:100DD00020B108F0040008B145F0040506F40060F5
:100DE000A0B108F0700088B108F07000402817D05A
:100DF00006DC10280BD020280CD0302819D10CE0AC
:100E0000502810D0602814D110E01DE019E045F002
:100E100008050FE045F010050CE045F0200509E05D
:100E200045F0400506E045F0800503E045F4807597
:100E300000E000BF00BF2068806920F070002168DA
:100E400088610420216848602DB1606A284360628F
:100E50002046FFF71DFEBDE8F09F70B504460CB9B3
:100E6000012070BD94F8200010B9204600F0B0F8C1
:100E70002068006840F001002168086000F06AFD09
:100E800005460DE000F066FD401B0A2808D9606A9F
:100E900040F400306062052084F820000120E0E783
:100EA0002068406800F001000028EBD0206800684E
:100EB00020F002002168086000F04CFD05460DE0BE
:100EC00000F048FD401B0A2808D9606A40F4003051
:100ED0006062052084F820000120C2E72068406895
:100EE00000F002000028EBD1207E012806D1206806
:100EF000006840F080002168086005E02068006814
:100F000020F0800021680860607E012806D12068FA
:100F1000006840F040002168086005E02068006833
:100F200020F0400021680860A07E012806D12068DA
:100F3000006840F020002168086005E02068006833
:100F400020F0200021680860E07E012806D120689A
:100F5000006820F010002168086005E02068006843
:100F600040F0100021680860207F012806D1206829
:100F7000006840F008002168086005E0206800680B
:100F800020F0080021680860607F012806D12068F1
:100F9000006840F004002168086005E020680068EF
:100FA00020F0040021680860D4E9020108432169A7
:100FB0000843616908436168491E08432168C861A4
:100FC00000206062012084F82000002049E7000032
:100FD00010B586B00446142101A8FFF769FA4B4901
:100FE0002068884241D14A480068401C484908604E
:100FF0000846006801280FD100BF00200090454836
:10100000006840F00070434908600846006800F03E
:101010000070009000BF00BF00BF002000903D485E
:101020001038006840F008003A4910390860084656
:10103000006800F00800009000BF00BF032001908E
:1010400002200290002003900320049009200590C4
:1010500001A9314800F07EFB00220A21142000F093
:101060003DFD142000F02AFD4DE02C492068884207
:1010700049D100BF002000902648006840F0806001
:10108000244908600846006800F08060009000BFB6
:1010900000BF1F480068401C1D49086008460068E2
:1010A00001280FD100BF002000901A48006840F0CE
:1010B0000070184908600846006800F00070009051
:1010C00000BF00BF00BF0020009012481038006829
:1010D00040F002000F49103908600846006800F02F
:1010E0000200009000BF00BF4FF44050019002206A
:1010F000029000200390032004900920059001A98C
:10110000074800F027FB06B010BD00000064004057
:101110002800002040380240000C024000680040D7
:10112000000402407047000010B58AB0044601ABCD
:1011300003AA00212046FFF7ACFC0398A0F201208F
:10114000072851D2DFE800F00405060708090A0065
:1011500000BF00BF00BF00BF00BF00BF0398401E1C
:10116000254908700846007800EB8000234931F8D3
:10117000100000B22049097801EB81011F4A02EBFF
:10118000410108819DF805009DF8041040EA012006
:101190001949097801EB810122F811009DF8070037
:1011A0009DF8061040EA012000B21349097801EBCE
:1011B000810102EB410148809DF809009DF808106B
:1011C00040EA012000B20C49097801EB810102EBF1
:1011D000410188809DF80A000749097801EB8101E7
:1011E00002EB4101887100E000BF00BF022104480A
:1011F000FFF7FCFA0AB010BD10000020BC00002070
:101200006004002070477047704770B5044694F83A
:101210002000012822D1022084F8200020680068E4
:1012200020F001002168086000F094FB05460DE005
:1012300000F090FB401B0A2808D9606A40F4003097
:101240006062052084F82000012070BD206840689D
:1012500000F001000028EBD16062F6E7606A40F41C
:10126000002060620120F0E77047704770477047C8
:1012700070477047704770B50446A56D00F06AFB73
:10128000064694F83500022808D08020606500BF2B
:10129000002084F8340000BF012070BD2068006881
:1012A00020F01600216808602068406920F0800066
:1012B00021684861206C08B9A06C28B120680068DA
:1012C00020F00800216808602068006820F0010014
:1012D0002168086010E000F03DFB801B05280BD959
:1012E00020206065032084F8350000BF002084F8CA
:1012F000340000BF0320D0E72068006800F0010040
:101300000028E8D194F85C103F208840A8600120B4
:1013100084F8350000BF002084F8340000BF00BF0F
:10132000BBE7014691F83500022803D080204865CC
:1013300001207047052081F835000868006820F01A
:1013400001000A6810600020F3E70000F8B50446C9
:10135000002000908C4800684FF41651B0FBF1F764
:10136000A56D2E6894F85C1008208840304098B134
:101370002068006800F0040070B12068006820F068
:1013800004002168086094F85C1008208840A86078
:10139000606D40F00100606594F85C1001208840A9
:1013A000304068B12068406900F0800040B194F896
:1013B0005C1001208840A860606D40F0020060650C
:1013C00094F85C1004208840304068B120680068C0
:1013D00000F0020040B194F85C1004208840A8603E
:1013E000606D40F00400606594F85C101020884047
:1013F000304078B32068006800F0080050B394F8DB
:101400005C1010208840A8602068006800F48020EC
:1014100080B12068006800F4002028B9206CC8B1B1
:101420002046216C884715E0A06C98B12046A16C3D
:1014300088470FE02068006800F4807028B92068B1
:10144000006820F0080021680860206C10B1204678
:10145000216C884794F85C10202088403040002898
:1014600065D02068006800F0100000285FD094F874
:101470005C1020208840A86094F83500052828D109
:101480002068006820F01600216808602068406924
:1014900020F0800021684861206C08B9A06C28B158
:1014A0002068006820F008002168086094F85C104B
:1014B0003F208840A860012084F8350000BF00204C
:1014C00084F8340000BF206D10B12046216D88479C
:1014D000F8BD2068006800F4802080B120680068B2
:1014E00000F4002028B9606C10B12046616C884778
:1014F0001DE0E06BD8B12046E16B884717E020681B
:10150000006800F4807068B92068006820F010005E
:1015100021680860012084F8350000BF002084F8AD
:10152000340000BFE06B10B12046E16B8847606D6E
:1015300038B3606D00F00100F0B1052084F835008B
:101540002068006820F001002168086000BF009852
:10155000401C0090B84200D905E02068006800F007
:1015600001000028F3D100BF012084F8350000BF3E
:10157000002084F8340000BFE06C10B12046E16C1C
:10158000884700BFA4E70000380000202DE9F041A3
:101590000446002500F0DEF9074614B90120BDE835
:1015A000F081606A00B100BF022084F8350000BFFE
:1015B000002084F8340000BF2068006820F001009B
:1015C000216808600AE000F0C5F9C01B052805D9AC
:1015D00020206065032084F83500E0E7206800687B
:1015E00000F001000028EED1206805682148054080
:1015F000D4E901010843E1680843216908436169AE
:101600000843A1690843E1690843216A0843054387
:10161000606A042803D1D4E90B010843054320681C
:1016200005602068456925F00705606A0543606A22
:1016300004280DD1A06A0543E06A48B12046FFF7AF
:1016400043F828B140206065012084F83500A6E702
:10165000206845612046FFF71DF8064694F85C10A7
:101660003F208840B06000206065012084F835008C
:10167000002094E73F8010F02DE9F04704460D4626
:1016800016461F464FF00008D4F8589000BF94F853
:101690003400012802D10220BDE8F087012084F83F
:1016A000340000BF94F83500012825D1022084F8C9
:1016B0003500002060653B46324629462046FFF74C
:1016C00058F894F85C103F208840C9F8080020685A
:1016D000006840F0160021680860206C28B120687E
:1016E000006840F00800216808602068006840F049
:1016F00001002168086006E000BF002084F8340083
:1017000000BF4FF002084046C6E7000070B504462F
:1017100000F020F906462546681C10B10448007800
:10172000054400BF00F016F9801BA842FAD370BD33
:10173000340000207047000010B5044604480068DB
:10174000204020B1024804602046FFF7F3FF10BD9F
:10175000143C0140F8B502460B4600250024002049
:101760000021D6E0012606FA01F51E6806EA050406
:10177000AC4274D11E7906F00306012E04D01E7906
:1017800006F00306022E13D190684F000326BE40D8
:10179000B0434F00DE68BE40304390605068012681
:1017A0008E40B0431E79C6F300168E403043506021
:1017B0001E7906F00306032E09D0D0684F000326D9
:1017C000BE40B0434F009E68BE403043D0601E799B
:1017D00006F00306022E13D1CF0802F1200656F8B8
:1017E00027004E07F70E0F26BE40B0434F07FF0EEF
:1017F0001E69BE403043CF0802F1200646F827009C
:1018000010684F000326BE40B0431E7906F0030661
:101810004F00BE40304310605E6806F44036002E34
:1018200076D000BF002600963C4E366846F48046CF
:101830003A4F3E603E46366806F48046009600BF4A
:1018400000BF374E8F0856F827008E07370F0F2638
:10185000BE40B043334EB24202D1002624E057E0EE
:10186000314EB24201D101261EE0304EB24201D1CA
:10187000022619E02E4EB24201D1032614E02D4E6D
:10188000B24201D104260FE02B4EB24201D105260F
:101890000AE02A4EB24201D1062605E0284EB242A5
:1018A00001D1072600E008268F073F0FBE403043D6
:1018B0001B4E8F0846F82700224E3068A0435E6812
:1018C00006F4801606B120431E4E3060361D306887
:1018D000A0435E6806F4001606B12043194E361D7B
:1018E0003060184E361F3068A0435E6806F400363C
:1018F00006B12043134E361F3060361F3068A043B8
:101900005E6806F4803606B120430E4E083E306015
:10191000491C1029FFF426AFF8BD000044380240EE
:101920000838014000000240000402400008024064
:10193000000C024000100240001402400018024057
:10194000001C0240083C01400AB1816101E00B0427
:101950008361704701480068704700002C00002038
:101960000348006803490978084401490860704742
:101970002C0000203400002010B50D48006840F411
:1019800000700B4908600846006840F480600860F9
:101990000846006840F480700860032000F0DCF81E
:1019A0000F2000F007F800F05FF8002010BD0000E5
:1019B000003C02402DE9F04188B004460027B846BB
:1019C00000BF002001902348006840F0200021491A
:1019D00008600846006800F02000019000BF00BFCA
:1019E00002A903A800F096F9069F1FB900F0BAF902
:1019F000054602E000F0B6F945001748B5FBF0F0E7
:101A0000A0F1010815481649086040F2E731144872
:101A1000C160C0F80480002101618160816100F033
:101A20000DFD064696B90E4800F0A8FD06466EB9B3
:101A3000372000F043F8102C07D20022214637202F
:101A400000F04CF80748046000E00126304608B07A
:101A5000BDE8F0814038024040420F0000140040D1
:101A6000900700203000002008B500BF0020009043
:101A70001148006840F480400F490860084600683B
:101A800000F48040009000BF00BF00BF0020009025
:101A9000081F006840F08050091F08600846006871
:101AA00000F08050009000BF00BF00220F21901E68
:101AB00000F014F808BD0000443802400146084612
:101AC000002809DB00F01F0301229A4043099B0014
:101AD00003F1E023C3F8002100BF70472DE9F05F58
:101AE00080460D461646002702F0A6FE07463946F8
:101AF0002A46334601F00700C0F1070ABAF1040F85
:101B000002D94FF0040A01E0C0F1070AD14600F102
:101B1000040ABAF1070F02D24FF0000A01E0A0F167
:101B2000030AD4464FF0010A0AFA09FAAAF1010A97
:101B30000AEA020A0AFA0CFA4FF0010B0BFA0CFB44
:101B4000ABF1010B0BEA030B4AEA0B0421464046BA
:101B500002F07AFEBDE8F09F00BF00F00702064BDE
:101B600019684FF6FF031940044B0B4343EA022167
:101B7000014B196000BF70470CED00E00000FA0552
:101B80007047000070B504460D460CB9012070BDC9
:101B90005848006800F00700A84209D255490D7066
:101BA0000846006800F00700A84201D00120EEE7D7
:101BB000207800F0020002281DD1207800F00400F7
:101BC000042805D14C48006840F4E0504A490860B8
:101BD000207800F00800082805D14748006840F444
:101BE0006040454908604448006820F0F000A16862
:101BF000084341490860207800F00100A8B36068FC
:101C0000012807D13C4808380068C0F34040B8B903
:101C10000120BCE76068022802D06068032807D171
:101C2000354808380068C0F3406048B90120AEE785
:101C3000314808380068C0F3400008B90120A6E721
:101C40002D48006820F00300616808432A490860B5
:101C5000FFF780FE064609E0FFF77CFE801B41F29D
:101C60008831884202D9032091E707E022480068C2
:101C700000F00C006168B0EB810FEDD11D480068E9
:101C800000F00700A84209D91A490D7008460068FB
:101C900000F00700A84201D0012078E7207800F08A
:101CA0000400042807D11448006820F4E050E168DB
:101CB000084311490860207800F00800082808D17E
:101CC0000D48006820F46040216940EAC1000A49DB
:101CD000086000F067F808490968C1F30311074A72
:101CE000515CC8400649086006480068FFF762FE7C
:101CF00000204CE7003C024008380240B069000870
:101D0000380000203000002001200149C8647047DD
:101D1000000047420F2202600D4A126802F00302DF
:101D200042600B4A126802F0F0028260084A1268B0
:101D300002F4E052C260064A126802F46042D2081D
:101D40000261044A126802F007020A60704700004C
:101D500008380240003C024001480068704700001B
:101D60003800002000B5FFF7F7FF04490968C1F308
:101D70008221034A515CC84000BD0000083802407F
:101D8000C069000800B5FFF7E7FF04490968C1F31F
:101D90004231034A515CC84000BD0000083802408F
:101DA000C06900082DE9F047002400250026A1465F
:101DB0002548006800F00C0020B1042805D0082850
:101DC0003AD105E0DFF8849039E0DFF8849036E01E
:101DD0001D48001F006800F03F041B48001F0068FA
:101DE00000F4800078B11A481749091F0968C1F347
:101DF0008811A0FB01700146224600233846FEF7F9
:101E000093FA05460EE011480F49091F0968C1F30E
:101E10008811A0FB01700146224600233846FEF7D8
:101E200083FA05460848001F0068C0F30140401CC3
:101E30004600B5FBF6F902E0DFF8109000BF00BFE6
:101E40004846BDE8F0870000083802400024F4004E
:101E500000127A0010B50648006800F08000802863
:101E600005D1FFF78DFE80200149891C087010BD47
:101E70000C380240F8B504460CB90120F8BD2078B2
:101E800000F00100002874D0F948006800F00C0050
:101E900004280DD0F648006800F00C00082813D183
:101EA000F348001F006800F48000B0F5800F0BD1EC
:101EB000EF4808380068C0F34040002859D06068F7
:101EC000002856D10120D9E700BF6068B0F5803FF7
:101ED00008D1E7480838006840F48030E449083900
:101EE00008601EE06068B0F5A02F0DD1E04808380A
:101EF000006840F48020DE49083908600846006820
:101F000040F4803008600CE0D9480838006820F4BC
:101F10008030D749083908600846006820F48020DE
:101F2000086000BF606890B1FFF714FD054606E049
:101F3000FFF710FD401B642801D903209EE7CC4821
:101F400008380068C0F340400028F1D011E0FFF7E6
:101F500001FD054606E0FFF7FDFC401B642801D9A2
:101F600003208BE7C24808380068C0F340400028CF
:101F7000F1D1207800F0020002285FD1BC4800684F
:101F800000F00C0058B1BA48006800F00C000828B6
:101F90001CD1B748001F006800F48000B0B9B448F5
:101FA00008380068C0F3400020B1E068012801D083
:101FB000012063E7AE480838006820F0F800216986
:101FC00040EAC100AA490839086037E0E06800B378
:101FD0000120A8490860FFF7BDFC054606E0FFF7B1
:101FE000B9FC401B022801D9032047E7A048083864
:101FF0000068C0F340000028F1D09D480838006810
:1020000020F0F800216940EAC100994908390860C8
:1020100014E0002097490860FFF79CFC054606E0A5
:10202000FFF798FC401B022801D9032026E79048BF
:1020300008380068C0F340000028F1D1207800F093
:10204000080008282CD16069A8B101208A490860DD
:10205000FFF780FC054606E0FFF77CFC401B0228EA
:1020600001D903200AE782486C300068C0F34000C1
:102070000028F1D014E000207F490860FFF76AFCD7
:10208000054606E0FFF766FC401B022801D9032045
:10209000F4E677486C300068C0F340000028F1D1C6
:1020A000207800F00400042870D1002770483830F0
:1020B000006800F0805090B900BF002000906C488C
:1020C0003830006840F0805069493831086008466F
:1020D000006800F08050009000BF00BF01276748F3
:1020E000006800F48070B0B96448006840F4807003
:1020F00062490860FFF72EFC054606E0FFF72AFC60
:10210000401B022801D90320B8E65C48006800F4AF
:1021100080700028F2D000BFA068012808D1544880
:102120006830006840F001005149683108601DE0E6
:10213000A06805280DD14E486830006840F00400C2
:102140004B49683108600846006840F001000860AB
:102150000CE047486830006820F0010044496831CD
:1021600008600846006820F00400086000BFA0680E
:10217000A8B1FFF7EFFB054609E0FFF7EBFB401BBB
:1021800041F28831884202D9032077E626E03848B8
:1021900068300068C0F340000028EED013E0FFF77D
:1021A000D9FB054608E0FFF7D5FB401B41F288311B
:1021B000884201D9032061E62D4868300068C0F3E9
:1021C00040000028EFD1012F07D12948383000689E
:1021D00020F0805026493831086000BFA0690028EF
:1021E00045D02348006800F00C0008285DD0A069A5
:1021F000022845D100201F490866FFF7ABFB0546C2
:1022000006E0FFF7A7FB401B022801D9032035E6B3
:10221000174808380068C0F340600028F1D1D4E9BD
:1022200007010843616A40EA81110122A06AC2EBFA
:10223000500041EA00412C20005D41EA00600C4959
:10224000091F086001200B490866FFF783FB05465C
:1022500006E0FFF77FFB401B022801D903200DE6B3
:10226000034808380068C0F340600028F1D049E016
:102270000838024000004742800E4742007000408C
:10228000002021490866FFF765FB054606E0FFF7D9
:1022900061FB401B022801D90320EFE51B480068C1
:1022A000C0F340600028F2D12CE0A069012800D1E1
:1022B000E4E51648001D0668A069012820D006F450
:1022C0008001E06981421BD106F03F01206A814212
:1022D00016D147F6C0703040616AB0EB811F0FD154
:1022E00006F440310122A06AC2EB5000B1EB004F6E
:1022F00006D106F070612C20005DB1EB006F01D0BB
:102300000120BBE50020B9E500004742003802404B
:102310007047704710B50346002200BF93F83C0099
:10232000012801D1022010BD012083F83C0000BF2C
:1023300022F0FF00CC6840EA040222F440708C686E
:1023400040EA040222F480604C6840EA040222F46D
:1023500000600C6840EA040222F480500C6940EAF4
:10236000040222F400504C6940EA040222F4804046
:10237000CC6940EA04021868426400BF002083F878
:102380003C0000BF00BFCEE730B502460B4600BFA1
:1023900092F83C00012801D1022030BD012082F8D2
:1023A0003C0000BF022082F83D00106844681068BD
:1023B000816824F070041868044310684460184D64
:1023C0001068A8421BD01068B0F1804F17D0154D8F
:1023D0001068A84213D0144D1068A8420FD0134DB6
:1023E0001068A8420BD0124D1068A84207D0114DBA
:1023F0001068A84203D0104D1068A84205D121F002
:1024000080015868014310688160012082F83D0016
:1024100000BF002082F83C0000BF00BFBDE7000005
:10242000000001400004004000080040000C004093
:1024300000040140004001400018004010B504466F
:102440000CB9012010BD94F83D0028B9002084F893
:102450003C00204600F026F8022084F83D00211DB3
:10246000206801F045FC012084F8460000BF84F894
:102470003E0001213F2001554020015541200155DA
:1024800000BF00BF012084F84200432001554420D2
:1024900001554520015500BF012084F83D00002072
:1024A000D0E7000038B504462F49206888420FD194
:1024B00000BF002000902D48006840F001002B492B
:1024C00008600846006800F00100009000BF49E085
:1024D00027492068884211D100BF0020009023487E
:1024E000001F006840F002002049091F08600846EC
:1024F000006800F00200009000BF33E01D49206832
:10250000884211D100BF002000901848001F0068C9
:1025100040F004001549091F08600846006800F0F3
:102520000400009000BF1DE013492068884219D1C3
:1025300000BF002000900D48001F006840F0100010
:102540000A49091F08600846006800F01000009062
:1025500000BF00BF00220A213620FFF7BFFA362055
:10256000FFF7ACFA38BD00000000014044380240DB
:10257000000400400008004000100040014691F8AF
:102580003D00012801D001207047022081F83D0064
:102590000868C06840F001000B68D8601A4B0868F2
:1025A00098421BD00868B0F1804F17D0174B0868CD
:1025B000984213D0164B086898420FD0154B086804
:1025C00098420BD0144B0868984207D0134B086808
:1025D000984203D0124B086898420CD10868806872
:1025E00000F00702062A0CD00868006840F00100DD
:1025F0000B68186005E00868006840F001000B688F
:1026000018600020C0E70000000001400004004006
:1026100000080040000C0040000401400040014060
:10262000001800402DE9F04104460D46002700BF88
:1026300094F83C00012802D10220BDE8F08101207D
:1026400084F83C0000BF022084F83D0020688668C2
:1026500026F0770626F47F46206886602868502892
:1026600033D00CDC202850D004DC00284BD01028BC
:1026700051D149E0302849D040284CD139E0602878
:102680002DD0702807D0B0F5805F03D0B0F5005F83
:1026900041D10DE041E0D5E902136A68206801F0FC
:1026A000A4FB2068866846F077062068866034E0E0
:1026B000D5E902136A68206801F097FB20688068FA
:1026C00040F480402168886027E0EA6869682068F3
:1026D00001F07CFC5021206801F092FB1DE0EA68CB
:1026E0006968206801F085FC6021206801F088FBA2
:1026F00013E0EA686968206801F068FC40212068FE
:1027000001F07EFB09E000BF00BF00BF2968206820
:1027100001F076FB01E0012700BF00BF012084F833
:102720003D0000BF002084F83C0000BF384684E72D
:102730002DE9F04104460D4614B90120BDE8F081B1
:1027400094F83D0028B9002084F83C00204600F0B1
:1027500053F8022084F83D002068806844F20701A5
:10276000884321688860211D206801F0C1FA206833
:10277000D0F80880206886692068076A286840EADF
:10278000080840F203308643A969A86840EA01209E
:10279000064340F60C4086434FF2F0008643E96959
:1027A000E86840EA0120064328690001296A40EAF6
:1027B0000130064327F0220727F088076969686817
:1027C00040EA011007432068C0F80880206886614D
:1027D00020680762012084F8460084F83E00012149
:1027E0003F200155012084F842004320015501207B
:1027F00084F83D000020A1E710B586B004461421FE
:1028000001A8FDF755FE2068B0F1804F4BD100BF05
:10281000002000903E48006840F001003C490860FC
:102820000846006800F00100009000BF00BF00BF34
:102830000020009036481038006840F0010034490C
:10284000103908600846006800F00100009000BFE1
:1028500000BF00BF002000900846006840F0020062
:1028600008600846006800F00200009000BF00BF4A
:10287000202001900220029000200390049001206B
:10288000059001A92348FEF765FF0820019002206A
:1028900002900020039004900120059001A91E4899
:1028A000FEF758FF32E01D49206888422ED100BF54
:1028B000002000901648006840F0080014490860A5
:1028C0000846006800F00800009000BF00BF00BF8D
:1028D000002000900E481038006840F001000C49BC
:1028E000103908600846006800F00100009000BF41
:1028F00000BF03200190022002900020039004906A
:102900000220059001A90348FEF724FF06B010BD80
:10291000403802400000024000040240000C004029
:10292000704710B5044620680069C0F34000D8B174
:102930002068C068C0F34000B0B16FF002002168A9
:102940000861012020772068806900F0030018B139
:102950002046FFF7E5FF05E0204600F06FF920462E
:1029600000F03CFA0020207720680069C0F3800066
:10297000D8B12068C068C0F38000B0B16FF0040027
:1029800021680861022020772068806900F4407087
:1029900018B12046FFF7C4FF05E0204600F04EF9CD
:1029A000204600F01BFA0020207720680069C0F361
:1029B000C000D8B12068C068C0F3C000B0B16FF0EB
:1029C000080021680861042020772068C06900F0B1
:1029D000030018B12046FFF7A3FF05E0204600F0F2
:1029E0002DF9204600F0FAF90020207720680069D0
:1029F000C0F30010D8B12068C068C0F30010B0B1B7
:102A00006FF0100021680861082020772068C069F5
:102A100000F4407018B12046FFF782FF05E0204621
:102A200000F00CF9204600F0D9F90020207720684A
:102A3000006900F0010058B12068C06800F0010092
:102A400030B16FF0010021680861204600F04EFAB5
:102A500020680069C0F3C01058B12068C068C0F396
:102A6000C01030B16FF08000216808612046FFF788
:102A70004FFC20680069C0F3801058B12068C0681E
:102A8000C0F3801030B16FF040002168086120462B
:102A900000F038FA20680069C0F3401058B120688F
:102AA000C068C0F3401030B16FF0200021680861A9
:102AB0002046FFF72EFC10BD10B586B00446142149
:102AC00001A8FDF7F5FC5449206888421ED100BFDB
:102AD000002000905148006840F010004F49086005
:102AE0000846006800F01000009000BF00BF4FF4DF
:102AF000D440019002200290002003900490012015
:102B0000059001A94648FEF725FE82E04549206868
:102B1000884239D100BF002000904048006840F052
:102B200001003E4908600846006800F0010000907E
:102B300000BF00BF00BF002000900846006840F0C2
:102B4000020008600846006800F00200009000BF24
:102B500000BFC0200190022002900020039004904A
:102B60000220059001A93048FEF7F4FD03200190F2
:102B7000022002900020039004900220059001A9F9
:102B80002A48FEF7E7FD44E02949206888421ED123
:102B900000BF002000902148006840F008001F4955
:102BA00008600846006800F00800009000BF00BF01
:102BB0004FF4704001900220029000200390049096
:102BC0000220059001A91B48FEF7C4FD21E01A4927
:102BD000206888421DD100BF002000900F48006887
:102BE00040F002000D4908600846006800F002004D
:102BF000009000BF00BF4FF44040019002200290BF
:102C00000020039004900920059001A90748FEF7D1
:102C1000A1FD06B010BD00000000014030380240A8
:102C20000010024000040040000002400004024086
:102C300000080040000C02400018004070472DE9D9
:102C4000F04104460D461646002700BF94F83C00AC
:102C5000012802D10220BDE8F081012084F83C0067
:102C600000BF36B1042E1BD0082E31D00C2E5ED101
:102C700045E02946206801F0CDF82068806940F0E1
:102C80000800216888612068806920F004002168BC
:102C9000886120688069296908432168886148E063
:102CA0002946206801F0EEF82068806940F4006051
:102CB000216888612068806920F4806021688861CB
:102CC00020688069296940EA01202168886130E034
:102CD0002946206801F014F92068C06940F0080016
:102CE0002168C8612068C06920F004002168C861BB
:102CF0002068C069296908432168C86119E029462C
:102D0000206801F039F92068C06940F4006021684A
:102D1000C8612068C06920F480602168C8612068AB
:102D2000C069296940EA01202168C86101E00127E2
:102D300000BF00BF00BF002084F83C0000BF384641
:102D400089E710B504460CB9012010BD94F83D0088
:102D500028B9002084F83C00204600F025F8022025
:102D600084F83D00211D206800F0C2FF012084F896
:102D7000460000BF84F83E0001213F20015540205D
:102D800001554120015500BF00BF012084F84200D9
:102D900043200155442001554520015500BF012025
:102DA00084F83D000020D0E708B50A4A0168914246
:102DB0000FD100BF002100910749096841F040018F
:102DC000054A11601146096801F04001009100BFF9
:102DD00000BF08BD001800404038024070470000A6
:102DE00070B504460D4615B994F83E000BE0042D6D
:102DF00002D13F20005D06E0082D02D14020005D99
:102E000001E04120005D012801D0012070BD1DB905
:102E1000022084F83E000EE0042D03D102213F2061
:102E2000015508E0082D03D102214020015502E0A0
:102E300002214120015501222946206800F0C4FFEB
:102E400023492068884203D022492068884201D162
:102E5000012000E0002028B12068406C40F40040D0
:102E6000216848641A49206888421BD02068B0F164
:102E7000804F17D018492068884213D0174920681E
:102E800088420FD01649206888420BD0114920682B
:102E9000884207D013492068884203D0124920682D
:102EA00088420CD12068806800F00706062E0CD0FE
:102EB0002068006840F001002168086005E0206893
:102EC000006840F001002168086000209EE70000D3
:102ED00000000140000401400004004000080040E0
:102EE000000C0040004001400018004010B50446AE
:102EF00003492068884201D1FEF732FD10BD000071
:102F0000001400407047704770B5044600252068E3
:102F10004069C0F3C01594F83D00212817D1B5B120
:102F200000BF00BF2168143151E8001F21F080006C
:102F30002168143141E80002002AF3D100BF606B20
:102F400010B1606BFEF797F9204601F0A1F92068F7
:102F50004069C0F3801594F83E00222817D1B5B11E
:102F600000BF00BF2168143151E8001F21F040006C
:102F70002168143141E80002002AF3D100BFA06BA0
:102F800010B1A06BFEF777F9204601F03BF9002065
:102F900070BD70472DE9F84F044620680568206829
:102FA000C668206847694FF00009CA4605F00F0956
:102FB000B9F1000F0AD105F0200038B106F0200069
:102FC00020B1204601F077F9BDE8F88FB9F1000F84
:102FD0007CD007F0010018B906F49070002875D075
:102FE00005F0010030B106F4807018B1206C40F09B
:102FF0000100206405F0040030B107F0010018B1B1
:10300000206C40F00200206405F0020030B107F0AF
:10301000010018B1206C40F00400206405F00800A5
:1030200048B106F0200010B907F0010018B1206C7B
:1030300040F008002064206C002846D005F02000F5
:1030400028B106F0200010B1204601F034F92068C4
:103050004069C0F3801A206C00F0080010B9BAF182
:10306000000F2DD0204601F0CDF82068406900F017
:103070004000402820D100BF00BF2168143151E832
:10308000001F21F040002168143141E80002002AAD
:10309000F3D100BFA06B50B17548A16B0865A06B60
:1030A000FEF73FF988B1A06B016D88470DE020461F
:1030B000FFF76FFF09E009E02046FFF76AFF04E031
:1030C0002046FFF766FF002020647DE7206B012883
:1030D00076D105F01000002872D006F0100000280C
:1030E000FAD000BF0020009020680068009020689F
:1030F0004068009000BF00BF2068406900F04000B9
:1031000040285ED1A06B006840681FFA80F8B8F1D3
:10311000000F54D0A08D404551DDA4F82E80A06B47
:10312000C069B0F5807F43D000BF00BF21680C317B
:1031300051E8001F21F4807021680C3141E8000241
:10314000002AF3D100BF00BF00BF2168143151E84D
:10315000001F21F001002168143141E80002002A1B
:10316000F3D100BF00BF00BF2168143151E8001F38
:1031700021F040002168143141E80002002AF3D117
:1031800000BF202084F83E000020206300BF00BF65
:1031900021680C3151E8001F21F0100021680C312A
:1031A00041E80002002AF3D100BFA06BFEF763F8EC
:1031B000A08DE28D801A81B22046FFF7A4FE03E7BE
:1031C00040E0A08DE18D401A1FFA80F8E08DC0B379
:1031D000B8F1000F35D000BF00BF21680C3151E8B5
:1031E000001F21F4907021680C3141E80002002A90
:1031F000F3D100BF00BF00BF2168143151E8001FA8
:1032000021F001002168143141E80002002AF3D1C5
:1032100000BF202084F83E000020206300BF00BFD4
:1032200021680C3151E8001F21F0100021680C3199
:1032300041E80002002AF3D100BF41462046FFF7D3
:1032400062FEC1E605F0800030B106F0800018B1E2
:10325000204601F02BFAB7E605F0400030B106F049
:10326000400018B1204601F003F8ADE600BFABE620
:10327000D140000810B504460CB9012010BDA0696A
:1032800000B100E000BF94F83D0028B9002084F8A8
:103290003C00204600F028F8242084F83D002068F7
:1032A000C06820F400502168C860204601F080F812
:1032B0002068006920F49040216808612068406916
:1032C00020F02A00216848612068C06840F400505E
:1032D0002168C86000202064202084F83D0084F824
:1032E0003E000020CAE7000010B586B00446142155
:1032F00001A8FDF7DDF84D492068884239D100BFAB
:10330000002000904A48006840F0100048490860DA
:103310000846006800F01000009000BF00BF00BF2A
:103320000020009042481438006840F001004049F5
:10333000143908600846006800F00100009000BFE2
:1033400000BF4FF4C0600190022002900020039063
:10335000032004900720059001A93648FEF7FAF9EA
:10336000002209212520FEF7B9FB2520FEF7A6FB48
:103370005AE031492068884256D100BF00200090B1
:103380002B48001F006840F400302949091F0860DD
:103390000846006800F40030009000BF00BF00BF86
:1033A0000020009022481438006840F001002049B5
:1033B000143908600846006800F00100009000BF62
:1033C00000BF0C20019002200290002003900320F7
:1033D00004900720059001A91648FEF7BBF917488D
:1033E000174908604FF00060486000211448816070
:1033F000C1604FF480610161002141618161C1615F
:1034000001624162FEF7C2F808B1FDF7ECF900BFB6
:103410000B48A063846300BF00220F212620FEF723
:103420005DFB2620FEF74AFB06B010BD00100140F0
:1034300044380240000002400044004088600240DE
:103440003007002070B504460D46164694F83E003D
:10345000202816D105B10EB9012070BD00BF94F827
:103460003C00012801D10220F7E7012084F83C004C
:1034700000BF0020206332462946204601F0AEF806
:10348000EBE70220E9E770477047704700BFFEE7AF
:1034900010B50F480F4908600320486000210D480F
:1034A0008160C1604FF4002101614FF4401141611E
:1034B000002101760121417600218176C1760177D4
:1034C0004177FDF7CAFC08B1FDF78DF910BD00008A
:1034D000006400406004002010B50B480B490860F0
:1034E00010204860002109488160C160016141618C
:1034F000017641768176C17601774177FDF7ADFCA3
:1035000008B1FDF770F910BD006800408804002084
:1035100008B500BF002000900A48006840F4001081
:10352000084908600846006800F40010009000BFD9
:1035300000BF00220A211020FEF7D0FA1020FEF76B
:10354000BDFA08BD3038024010B5002004E000216B
:103550000A4A22F81010401C0D28F8DB084A002106
:10356000084801F0D1FB08490860084A00210848D2
:1035700001F0CAFB0749086010BD000046040020A6
:1035800060690008953B000820000020846900085D
:103590001D4000082400002000B587B0142102A8B7
:1035A000FCF786FF00BF002001904048006840F013
:1035B00080003E4908600846006800F080000190E5
:1035C00000BF00BF00BF002001900846006840F027
:1035D000010008600846006800F00100019000BF8B
:1035E00000BF00BF002001900846006840F00200C4
:1035F00008600846006800F00200019000BF00BFAC
:1036000000BF002001900846006840F020000860DC
:103610000846006800F02000019000BF00BF00BF16
:10362000002001900846006840F01000086008463D
:10363000006800F01000019000BF00BF00BF002034
:1036400001900846006840F00800086008460068DD
:1036500000F00800019000BF00BF00224FF40051AD
:103660001348FEF771F94FF4584002904FF4881058
:1036700003900120049002A90D48FEF76BF84FF467
:10368000005002900120039004900020059002A9B0
:103690000748FEF75FF800220A212820FEF71EFAED
:1036A0002820FEF70BFA07B000BD000030380240BA
:1036B0000014024000B587B01C216846FCF7F8FEF4
:1036C00017481849086040F2E73048600021154863
:1036D000816040F28F61C160002101618161FFF76B
:1036E00030FB08B1FDF77FF86020009000200190CA
:1036F00002900490002269460A48FFF7A0FA08B138
:10370000FDF771F8042269460648FFF798FA08B1F8
:10371000FDF769F80348FFF7CFF907B000BD0000D7
:10372000001800406006002000B595B00020119000
:103730001290139014900F9010901C2108A8FCF781
:10374000B7FE20216846FCF7B3FE374837490860CA
:103750001420486000213548816041F63F71C16006
:1037600000210161416180218161FEF767FE08B19E
:10377000FDF739F84FF48050119011A92B48FEF74E
:1037800051FF08B1FDF72FF82848FFF7DAFA08B122
:10379000FDF729F800200F9010900FA92348FEF79D
:1037A000F3FD08B1FDF71FF8602008900020099094
:1037B0000A900B900C900D900E90002208A91B48C7
:1037C000FFF73DFA08B1FDF70EF8042208A91748E3
:1037D000FFF735FA08B1FDF706F8082208A91348E3
:1037E000FFF72DFA08B1FCF7FEFF0C2208A90F48DD
:1037F000FFF725FA08B1FCF7F6FF002000900190D2
:103800000290039004904FF4005005900020079020
:1038100069460648FEF77EFD08B1FCF7E4FF034861
:10382000FFF74AF915B000BD00000140B0040020C8
:1038300000B58BB0242102A8FCF73AFE00200090CE
:1038400001904FF080401749086000204860002137
:1038500014488160491EC16000210161816103201B
:103860000290002003900120049000200590069013
:10387000079001200890002009900A9002A90948A9
:10388000FEF756FF08B1FCF7AEFF00200090019054
:1038900069460448FEF778FD08B1FCF7A4FF0BB0B9
:1038A00000BD0000F804002000B58DB00020099094
:1038B0000A900B900C90079008901C216846FCF72A
:1038C000F7FD2C482C49086040F2A3104860002105
:1038D000294881606321C160002101618161FEF797
:1038E000ADFD08B1FCF77FFF4FF48050099009A9A6
:1038F0002148FEF797FE08B1FCF775FF1E48FFF759
:1039000020FA08B1FCF76FFF00200790089007A984
:103910001948FEF739FD08B1FCF765FF60200090FB
:103920000020019002900490002269461248FFF79F
:1039300086F908B1FCF757FF042269460E48FFF7E5
:103940007EF908B1FCF74FFF082269460A48FFF7E5
:1039500076F908B1FCF747FF0C2269460648FFF7E5
:103960006EF908B1FCF73FFF0348FFF7A5F80DB06B
:1039700000BD0000000400404005002000B58DB0EF
:10398000002009900A900B900C90079008901C2141
:103990006846FCF78DFD2D482D49086040F2A310C4
:1039A000486000212A4881606321C16000210161D3
:1039B0008161FEF743FD08B1FCF715FF4FF480501D
:1039C000099009A92248FEF72DFE08B1FCF70BFF6C
:1039D0001F48FFF7B6F908B1FCF705FF0020079074
:1039E000089007A91A48FEF7CFFC08B1FCF7FBFEC8
:1039F000602000900020019002200290002004909E
:103A0000002269461248FFF71AF908B1FCF7EBFEED
:103A1000042269460E48FFF712F908B1FCF7E3FEED
:103A2000082269460A48FFF70AF908B1FCF7DBFEED
:103A30000C2269460648FFF702F908B1FCF7D3FEED
:103A40000348FFF739F80DB000BD00000008004042
:103A50008805002000B58BB0242102A8FCF728FDC2
:103A60000020009001901748174908600020486026
:103A7000002115488160491EC160002101618161FA
:103A80000320029000200390012004900020059064
:103A90000690079001200890002009900A9002A942
:103AA0000948FEF745FE08B1FCF79DFE0020009096
:103AB000019069460448FEF767FC08B1FCF793FEE5
:103AC0000BB000BD000C0040D00500201CB500204C
:103AD000009001900E480F490860002048600021C6
:103AE0000C4881604FF6FF71C16000218161FEF7D3
:103AF000A5FC08B1FCF777FE002000900190694614
:103B00000448FEF741FC08B1FCF76DFE1CBD000047
:103B1000001000401806002010B50B480B49086043
:103B20004FF4E1304860002108488160C1600161C4
:103B30000C21416100218161C161FFF79BFB08B14C
:103B4000FCF751FE10BD000000100140A806002047
:103B500010B50B480B4908604FF4E1304860002174
:103B600008488160C16001610C21416100218161CF
:103B7000C161FFF77FFB08B1FCF735FE10BD000007
:103B800000440040EC06002000BFFEE7FEF762F9AB
:103B900000BFFEE700BF00F085FF00F07FFF0120BF
:103BA00001F072F8F7E700000D4909684863002149
:103BB0000B4A126891630A490968C8630021084AE0
:103BC00012681164074909684863064909688863EF
:103BD00004490968C863034909680864704700001C
:103BE000400500208805002010B54FF0E020006956
:103BF00002F09EFC012803D0BDE8104002F0A0B9FD
:103C000010BD000000B593B0302107A8FCF750FCB0
:103C1000142102A8FCF74CFC00BF002001902548AD
:103C2000006840F08050234908600846006800F0B2
:103C30008050019000BF00BF00BF002001901E48CF
:103C4000006840F480401C4908600846006800F4A1
:103C50008040019000BF00BF012007900004089041
:103C600002200D9041050E9104210F91A821109181
:103C7000022111910421129107A8FEF7FBF808B167
:103C8000FCF7B1FD0F200290022003900020049069
:103C90004FF4A05005904FF480500690052102A8E3
:103CA000FDF770FF08B1FCF79EFDFEF72DF813B08D
:103CB00000BD00004038024000700040034800682A
:103CC00040F47000014908607047000088ED00E092
:103CD00010B50248FEF725FE10BD000018060020B2
:103CE00010B50248FEF71DFE10BD00009007002031
:103CF00010B50268294B98420ED0B0F1804F0BD01E
:103D0000274B984208D0274B984205D0264B984223
:103D100002D0264B984203D122F070024B681A431E
:103D20001E4B984220D0B0F1804F1DD01C4B9842C2
:103D30001AD01C4B984217D01B4B984214D01B4BE7
:103D4000984211D01A4B98420ED01A4B98420BD081
:103D5000194B984208D0194B984205D0184B9842FD
:103D600002D0184B984203D122F44072CB681A4318
:103D700022F080034C6943EA040202608B68C3624C
:103D80000B688362054B984202D0084B984201D1E0
:103D90000B6903630123436110BD00000000014073
:103DA0000004004000080040000C004000040140F6
:103DB000004001400044014000480140001800401C
:103DC000001C00400020004030B501F01F05012418
:103DD00004FA05F3046A9C430462046A01F01F05B7
:103DE00002FA05F52C43046230BD30B50C468168FB
:103DF00021F47F4142EA032525432943816030BDF8
:103E00000A46816821F0700142F00703194381607E
:103E10007047000030B5056A25F001050562026AA9
:103E20004368846924F0700424F003040D682C4373
:103E300022F002028D682A43104DA84200D103E00F
:103E40000F4DA84206D100BF22F00802CD682A43D8
:103E500022F00402094DA84202D0094DA84207D120
:103E600023F4807323F400734D692B438D692B4336
:103E7000436084614D684563026230BD00000140CB
:103E80000004014030B5056A25F010050562026A9C
:103E90004368846924F4E04424F440740D6844EADF
:103EA000052422F020028D6842EA0512124DA84234
:103EB00000D103E0114DA84207D100BF22F08002DB
:103EC000CD6842EA051222F040020B4DA84202D012
:103ED0000A4DA84209D123F4806323F400634D699D
:103EE00043EA85038D6943EA8503436084614D6835
:103EF0008563026230BD0000000001400004014003
:103F000030B5056A25F480750562026A4368C469A4
:103F100024F0700424F003040D682C4322F4007292
:103F20008D6842EA0522124DA84200D103E0114DEE
:103F3000A84207D100BF22F40062CD6842EA052200
:103F400022F480620A4DA84202D00A4DA84209D14B
:103F500023F4805323F400534D6943EA05138D691C
:103F600043EA05134360C4614D68C563026230BD16
:103F7000000001400004014030B5056A25F4805579
:103F80000562036A4468C26922F4E04222F4407286
:103F90000D6842EA052223F400538D6843EA053395
:103FA000084DA84202D0084DA84204D124F4804410
:103FB0004D6944EA85144460C2614D68056403623A
:103FC00030BD0000000001400004014030B50B4648
:103FD0001446026A056A25F001050562816921F02F
:103FE000F00141EA041122F00A021A4381610262DF
:103FF00030BD30B50B461446056A25F01005056244
:104000008169026A21F4704141EA043122F0A00280
:1040100042EA03128161026230BD0000002400BF49
:104020002848808828498988884201D1012000E0F9
:1040300000202449C988244AD288914201D1012113
:1040400000E0002108401F4989891F4A9289914256
:1040500001D1012100E00021084078B91A4B9A896A
:10406000D988988800F062FC1748808815498880B4
:104070001548C088C8801448808988811148008A02
:104080001149098A884215D00F48008A70B10E483C
:10409000007CC0F3001048B124B96320FFF784FD11
:1040A000012403E00020FFF77FFD00240648008A7A
:1040B00004490882012000F0E7FD0448006801F08F
:1040C00031FEADE7460400202C040020240000202F
:1040D00070B50546AC6B0020E085E0842046FEF715
:1040E00058FF70BD70B506460025B46B2068406966
:1040F000C0F3C01594F83D00212805D125B100205A
:10410000E084204600F0C4F820684069C0F38015C0
:1041100094F83E00222805D125B10020E0852046F4
:1041200000F070F8206C40F0100020642046FEF78C
:1041300030FF70BD70B50546AC6B2868006800F4B0
:104140008070002842D1E08500BF00BF21680C319B
:1041500051E8001F21F4807021680C3141E8000211
:10416000002AF3D100BF00BF00BF2168143151E81D
:10417000001F21F001002168143141E80002002AEB
:10418000F3D100BF00BF00BF2168143151E8001F08
:1041900021F040002168143141E80002002AF3D1E7
:1041A00000BF202084F83E00206B01280ED100BF04
:1041B00000BF21680C3151E8001F21F01000216878
:1041C0000C3141E80002002AF3D100BF206B012826
:1041D00004D1A18D2046FEF796FE02E02046FFF7AF
:1041E00052F970BD70B50546AC6B206B012805D146
:1041F000A08D41082046FEF786FE02E02046FFF72C
:1042000043F970BD00BF00BF02680C3252E8002FB6
:1042100022F4907102680C3242E80013002BF3D1B3
:1042200000BF00BF00BF0268143252E8002F22F026
:1042300001010268143242E80013002BF3D100BFE1
:10424000016B01290ED100BF00BF02680C3252E899
:10425000002F22F0100102680C3242E80013002BFC
:10426000F3D100BF202180F83E1000210163704788
:1042700010B504462068C06820F040002168C8607E
:10428000202084F83D002046FFF7FFF8002010BDF5
:1042900000BF00BF02680C3252E8002F22F0C001BC
:1042A00002680C3242E80013002BF3D100BF20213A
:1042B00080F83D107047F8B5044694F83E00222877
:1042C00073D1A068B0F5805F0CD1206950B900258A
:1042D000A66A20684068C0F308003080A06A801C8D
:1042E000A06215E0A56A0026A068B0F5805F03D043
:1042F000A06828B9206918B920684068287004E0CF
:104300002068406800F07F002870A06A401CA0620E
:10431000E08D401E80B2E085002844D12068C0684E
:1043200020F020002168C8602068C06820F48070F8
:104330002168C8602068406920F001002168486158
:10434000202084F83E00206B012826D10020206325
:1043500000BF00BF21680C3151E8001F21F01000A0
:1043600021680C3141E80002002AF3D100BF206827
:10437000006800F0100010280AD100BF0020009053
:1043800020680068009020684068009000BF00BF6F
:10439000A18D2046FEF7B7FD02E02046FFF773F837
:1043A0000020F8BD01E00020FBE70220F9E7000053
:1043B0002DE9F84F04462068006920F44050E16878
:1043C0000843216808612169A068084361690843BE
:1043D000E169084300902068C06849F20C61884395
:1043E000009908432168C8602068406920F4407043
:1043F000A16908432168486176492068884203D052
:1044000075492068884203D1FDF7BCFC814602E073
:10441000FDF7A8FC8146E069B0F5004F6CD10220A1
:104420006168A0FB015003461920A9FB00700146FA
:104430002A463846FBF778FF6421B0FBF1F04FEADB
:10444000001A02206168A0FB01510B461920A9FB4C
:1044500000712A463846FBF767FF834602206168F1
:10446000A0FB015003461920A9FB00712A463846DB
:10447000FBF75AFF6421B0FBF1F000EBC00101EB48
:104480000010ABEB8000322101EBC0006421B0FBD7
:10449000F1F000F0F8000AEB400A02206168A0FB8E
:1044A000015003461920A9FB007001462A463846F0
:1044B000FBF73AFF834602206168A0FB01500346E8
:1044C0001920A9FB00712A463846FBF72DFF64210D
:1044D000B0FBF1F000EBC00101EB0010ABEB800092
:1044E000322101EBC0006421B0FBF1F000F00700C5
:1044F0005044216888606AE004206168A0FB015094
:1045000003461920A9FB007001462A463846FBF7EE
:104510000BFF824604206168A0FB0150034619206E
:10452000A9FB007001462A463846FBF7FDFE6421D0
:10453000B0FBF1F000EBC00101EB0010AAEB800032
:10454000322101EB00106421B0FBF1F000F0F00A21
:1045500004206168A0FB017003461920A9FB0051EB
:104560003A462846FBF7E0FE6421B0FBF1F00AEB87
:10457000001A04206168A0FB01510B461920A9FB19
:1045800000712A463846FBF7CFFE83460420616857
:10459000A0FB015003461920A9FB007001462A46E2
:1045A0003846FBF7C1FE6421B0FBF1F000EBC0011F
:1045B00001EB0010ABEB8000322101EB0010642115
:1045C000B0FBF1F000F00F00504421688860BDE8B6
:1045D000F88F0000001001400014014077B581B051
:1045E000044615460298A062A5850020206422207A
:1045F00084F83E002A48A16BC8632A48A16B08646E
:104600002948A16BC8640020A16B086502AE32681E
:104610002368191D2B46A06BFDF72EF800BF002064
:10462000009020680068009020684068009000BFFB
:1046300000BF00BF002084F83C0000BF206970B1BB
:1046400000BF00BF21680C3151E8001F41F48070A9
:1046500021680C3141E80002002AF3D100BF00BFFD
:1046600000BF2168143151E8001F41F001002168AA
:10467000143141E80002002AF3D100BF00BF00BF9F
:104680002168143151E8001F41F0400021681431C5
:1046900041E80002002AF3D100BF002004B070BD41
:1046A00035410008E5410008E5400008014691F861
:1046B0003D00212828D18868B0F5805F0BD10869BA
:1046C00048B90A6A1088C0F308000B685860086A85
:1046D000801C086205E00B6A581C086218780B6899
:1046E0005860C88C401E80B2C88458B90868C06839
:1046F00020F080000B68D8600868C06840F0400077
:104700000B68D860002070470220FCE710B5024813
:10471000FEF740FC10BD0000A806002010B50348BD
:1047200000F04AF80148FEF735FC10BDEC06002009
:1047300010B500211B48FEF753FB04211948FEF772
:104740004FFB08211748FEF74BFB0C211548FEF7DD
:1047500047FB00211448FEF743FB04211248FEF7F3
:104760003FFB08211048FEF73BFB0C210E48FEF7EB
:1047700037FB00210D48FEF733FB04210B48FEF701
:104780002FFB08210948FEF72BFB0C210748FEF7F9
:1047900027FB00210648FEF723FB04210448FEF70F
:1047A0001FFB10BDB004002040050020880500203C
:1047B0006006002000BFFEE738B5044600252068EB
:1047C0000068C0F3001068B300BF002000902068AC
:1047D0000068009020684068009000BF00BF20463D
:1047E000FEF792FB10491148FBF7D9FF00200AE0C1
:1047F0000F4931F810100C4A32F81020914201D0C4
:10480000012502E0401C0D28F2DB00BF012D04D180
:1048100000250848006801F0E7FFFF220349204611
:10482000FEF710FE38BD00002C0400202C030020F1
:10483000460400202400002002480068C0F3022043
:10484000704700000CED00E010B5002804DB0A07FB
:10485000130E054A135406E00A07140E034A00F02B
:104860000F031B1FD45410BD00E400E018ED00E05E
:1048700000B58BB00120099000200790012008901E
:10488000002001900290039004900690059001A9E9
:104890000548FCF76BF80448FCF7B7FC0221024816
:1048A000FBF7A4FF0BB000BD600400201C4890ED96
:1048B000000AF3EE0E0A20EE200ADFED1A0A80EE5F
:1048C000201A194880ED011A154890ED010AF3EEFF
:1048D0000E0A20EE200ADFED130A80EE201A12489D
:1048E00080ED1A1A0E4890ED020AF3EE0E0A20EE41
:1048F000200ADFED0C0A80EE201A0B4880ED331AF7
:10490000074890ED030AF3EE0E0A20EE200ADFEDD1
:10491000050A80EE201A044880ED4C1A704700000A
:104920001C030020DA0F49403401002070B5054611
:104930000E46144600EE104AB8EE400ADFED330A88
:10494000B4EEE00AF1EE10FA0FDB00EE104AB8EE1A
:10495000400ADFED2E0A30EE600ADFED2D0A80EE10
:10496000201A2C4880ED001A21E000EE104AB8EE23
:10497000400ADFED270AB4EEE00AF1EE10FA11D892
:1049800000EE104AB8EE400ADFED210A30EEC00A10
:10499000B1EE400ADFED1E0A80EE201A1D4880EDC0
:1049A000001A04E09FED1C0A1A4880ED000A00EE90
:1049B000105AB8EE400A9FED191AC0EE010AB6EE81
:1049C000000A30EEC00AB1EE400A154880ED000A38
:1049D00000EE106AB8EE400ADFED100A80EE201AF1
:1049E000B6EE000A31EE400A0E4880ED000A0E488D
:1049F000084991ED001A0B49D1ED000A084991EDE3
:104A0000000A00F053F8FFF751FF70BD00FF0247A6
:104A10000000FA461C0000200000000000FF7F4755
:104A200014000020180000201C0300203EB50024C4
:104A30002BE004EBC40101EB0411154A02EB8100E9
:104A400000F048FA00204FF4FA51CDE9000104EBE0
:104A5000C40101EB04110E4A029002EB810004EB49
:104A6000C40101EB041102EB8101DFED0A1A9FED95
:104A70000A1AF2EE040AB2EE040A41F288334FF445
:104A800080428D6D0121A847641C042CD1DB3EBD02
:104A900034010020000000000AD7A33C10B500F04C
:104AA0004BF810BD10B500F01FFF10BD9FED202A80
:104AB000F0EE401A42EE411AB3EE032A61EE821A7A
:104AC0009FED1C2AC1EE822AC0ED002A9FED182A14
:104AD000F0EE601A42EE011ABBEE032A61EE821A72
:104AE0009FED142AC1EE822AC0ED012A9FED102A03
:104AF000F0EE401A42EE011ABBEE032A61EE821A72
:104B00009FED0C2AC1EE822AC0ED022A9FED082AF1
:104B1000F0EE601A42EE411AB3EE032A61EE821AF9
:104B20009FED042AC1EE822AC0ED032A70470000DF
:104B3000AFB2FEBEE3A59B3D10B5002000F052F8D9
:104B400026490860012000F04DF824494860022001
:104B500000F048F821498860032000F043F81F491D
:104B6000C86008460068B0F9020000EE900AF8EE4E
:104B7000E00AB0EE600A1A48016E8847174840689C
:104B8000B0F9020000EE900AF8EEE00AB0EE600A1A
:104B90001348D0F8C4106430884710488068B0F9D2
:104BA000020000EE900AF8EEE00AB0EE600A0C484F
:104BB000D0F82811C83088470848C068B0F902000A
:104BC00000EE900AF8EEE00AB0EE600A0448D0F871
:104BD0008C1100F59670884710BD00000C03002072
:104BE00034010020014601F0030000EB8000024A7E
:104BF00002EB400070470000BC000020FCF7BCFE48
:104C0000FFF700F8FEF7C8FCFEF782FCFEF740FC59
:104C1000FEF782FFFEF79CFFFEF786FDFEF708FE1B
:104C2000FEF742FEFEF746FDFEF7A8FEFEF712FF76
:104C3000FEF74CFFFEF750FCFFF71AFE0F48FCF79B
:104C4000E4FA02210D48FBF7D1FDFFF7EFFE0C4817
:104C50000068C06840F0100009490968C860FF2278
:104C600008490748FEF7EEFBFFF762FD00F01CF86D
:104C7000FEF76AFC00F02CF800BFFEE7600400209D
:104C8000EC0600202C03002010B50146EFF3058050
:104C900010B16FF0050404E0002411B1084600F0E3
:104CA0008BFF204610BD0000EFF30580002802D0E6
:104CB0006FF0050070470548016811B14FF0FF30F3
:104CC0007047012101600020704700008C00002027
:104CD00010B5EFF30580002802D06FF0050010BD7D
:104CE00007480168012902D04FF0FF3010BD054A86
:104CF000002111700221016000F0CCFF002010BDE6
:104D00008C0000201FED00E02DE9F04385B00B463C
:104D10004FF000070497EFF3058100294ED10028DA
:104D20004CD080244FF0180C8946491E52B31668A7
:104D300006B1B146956905B1AC46ACF10105382D17
:104D400003D2157915F0010F03D005B00020BDE89E
:104D5000F083556905B1AC08D2F80880B8F1000FAE
:104D600007D0D6685C2E04D3166916B10DB10121A7
:104D700009E0B8F1000F06D1D56825B9156915B954
:104D8000002100E00021012901D061B116E0916805
:104D9000126901920291CDF800C02246494601F005
:104DA00097FB04900AE004A90191A2B2CDF800C0DB
:104DB000494601F057FB012800D00497049805B03C
:104DC000BDE8F083F0EE400AC0ED060A90ED070A58
:104DD00080ED080A90ED0C0A80ED0D0A90ED010AB5
:104DE00090ED061A30EE410A80ED070A90ED070AB1
:104DF000B0EEC00A90ED101AB4EEC10AF1EE10FA4E
:104E000065DD90ED030A90ED071A20EE010A80EDB2
:104E1000090A90ED0A0A90ED041AD0ED071A01EE86
:104E2000210A80ED0A0A90ED070A90ED081A30EE8B
:104E3000410A90ED051A20EE010A80ED0B0A90ED73
:104E40000A0A90ED0F1AB4EEC10AF1EE10FA03DD72
:104E500090ED0F0A80ED0A0A90ED0A0A90ED0F1A04
:104E6000B1EE411AB4EEC10AF1EE10FA05D290ED9E
:104E70000F0AB1EE400A80ED0A0A90ED090A90EDA2
:104E80000A1A30EE010A90ED0B1A30EE010A80ED9D
:104E90000C0A90ED0C0A90ED0E1AB4EEC10AF1EE78
:104EA00010FA03DD90ED0E0A80ED0C0A90ED0C0A6D
:104EB00090ED0E1AB1EE411AB4EEC10AF1EE10FAFD
:104EC00005D290ED0E0AB1EE400A80ED0C0A90ED8D
:104ED0000C0A7047034981650349C16503490166AE
:104EE00070470000F14E00084D4F0008C54D000806
:104EF0009DED002ADDED012A9DED023A0170F8EEEC
:104F0000423AC0ED113A80ED100A03EE903AF8EE05
:104F1000633AC0ED0F3A03EE902AF8EE633AC0ED23
:104F20000E3AF8EEE23AC0ED123AF8EEC33AC0EDAE
:104F3000013AC0ED030A80ED041AC0ED051ADFED59
:104F4000023AC0ED0C3A70470000000080ED030A01
:104F5000C0ED040A80ED051A704700002DE9F0410C
:104F600004460F46134EF5683068001D00F0E6FC5D
:104F7000B4F1FF3F07D137B13068BDE8F041011D02
:104F80000D4800F02EBD2C4430684460AC4206D27F
:104F90003068011DB06BBDE8F04100F007BD30681E
:104FA000011D706B00F002FDB06A844200D2B46251
:104FB000BDE8F0813C000020C80C002070B504461C
:104FC00000F01CFD1C4DA868401CA860286810B1AA
:104FD000686938B10CE02C60A868012808D100F09D
:104FE00093F905E02868E16AC06A884200D82C601D
:104FF000686A401C68626064E06A2969884200D976
:1050000028610E4900EB800001EB8000211D00F0BB
:10501000E8FC00F013FD686900280CD02868E16AFC
:10502000C06A884207D206494FF080500860BFF33B
:105030004F8FBFF36F8F70BD3C0000201808002019
:1050400004ED00E038B500F0D9FC0F4C2068B8B989
:105050000E4800F09DFC0E4800F09AFC0B48E06002
:105060001430206100200B4B009003F150021021FE
:105070000A2000F07BFF206010B107A100F062FD64
:10508000BDE8384000F0DABC78000020CC0D0020EC
:10509000E00D0020DC0C0020546D72510000000077
:1050A00070B50D4C6068002815D00C4E00F0A6FCC1
:1050B000F068C568281D00F041FCA068401EA06093
:1050C0006068401E606000F0B9FC284600F051F8AE
:1050D00060680028EAD170BD3C000020B40C0020BC
:1050E0000B46026C002A0CD0C1681144C160D0F894
:1050F00008C0614501D30168C160C1681846FBF76B
:105100008AB970472DE9F041044616460027A56B81
:10511000226C002A10D0C6B1E068FBF77CF9E16888
:10512000206C091AE1602268914202D2A168081A33
:10513000E060022E16D017E02068A8B9A06801F040
:1051400071FA07460020A0600EE06068FBF763F983
:10515000216C606808446060A168884204D32068BC
:10516000606001E005B16D1E681CA0633846BDE8B3
:10517000F08110B5044694F8591000290BD001298C
:1051800011D0022914D0502080F31188BFF34F8F23
:10519000BFF36F8FFEE7206B00F066FC2046BDE892
:1051A000104000F061BC2046BDE8104000F05CBC3F
:1051B00010BD00000749CA681168002904D0002109
:1051C000016019B1002070470121F9E7D06800683B
:1051D00070470000780000204FF47051104810F024
:1051E000070F06D0C01D20F007000D49411AC1F578
:1051F00070510C4A1060002353600144083921F0BB
:105200000701183A11604B600B600B1A4360016094
:105210004068906050604FF000405061704700005F
:10522000AC140020A8000020074E4FF08054074D1A
:10523000FFF736FF30680128FAD92C60BFF34F8F93
:10524000BFF36F8FF4E700001808002004ED00E0C2
:1052500070B51D46049C002909D02260E0632164DA
:105260000121204600F0BAFE84F84C5070BD246045
:10527000F4E72DE9F05F82460B9F0A9D0C9C0E46D9
:1052800090469B464FEA8801A522206BFBF708F960
:10529000206BA8F1010100EB810020F007094FF01D
:1052A000000866B100202218315C82F83410315CAD
:1052B00011B1401C1028F6D384F8438001E084F833
:1052C0003480382D00D33725E562E564C4F850807A
:1052D000201D00F068FB04F1180000F064FB24615D
:1052E000C5F13800A0616462C4F8548084F8588025
:1052F0005A465146484600F0E1FA2060002F00D09F
:105300003C60BDE8F09F000070B500240F4D04EB39
:10531000840005EB800000F03BFB641C382CF6D3C6
:105320000B4800F035FB0B4800F032FB0A4800F058
:105330002FFB0A4800F02CFB094800F029FB094824
:10534000034941631431816370BD000018080020D7
:10535000780C00208C0C0020A00C0020B40C002045
:10536000C80C00203C00002010B4144900E0114695
:105370000A688242FBD34B6803EB010C844503D1DE
:1053800040681844486008460C68D0F804C00CEB2C
:105390000003A3420CD10A4B1B689A4206D0526804
:1053A000624442600A681268026002E0036000E042
:1053B0000260814200D0086010BC7047A800002045
:1053C0009000002010B5002441600061DFF838C073
:1053D00091420BD8D11A8269914201D3012410E085
:1053E000011DDCF8100000F0E1FA0AE09A4203D255
:1053F000994201D3012404E0011DDCF80C0000F007
:10540000D5FA204610BD00007800002010B50446F3
:1054100000F0F4FAA06B20B1002400F00FFB20464E
:1054200010BD0124F9E710B5044600F0E7FAA06BBF
:10543000E16B884201D1012400E0002400F0FEFA73
:10544000204610BDF8B505460E461748C068C0682E
:10545000C468201D00F072FA94F8280010F0040FC0
:1054600018D0A0692B46411932462046FFF7AAFF03
:10547000A0B100200346014600902A46204601F0D4
:105480002FFA58B9502080F31188BFF34F8FBFF324
:105490006F8FFEE720F0010084F82800216A01B038
:1054A0002046BDE8F04008477800002030B587B0BE
:1054B000414D002202A9286800F0F0FE002875D0B6
:1054C0000298002803DA039A0599049890470298F5
:1054D000002864DB049C606910B1201D00F02EFAE6
:1054E00001A800F0B3F8024602980A2857D2DFE874
:1054F00000F00505052F364D05052F3694F82800D8
:1055000040F0010084F828000398A1690346014493
:105510002046FFF757FF002841D0216A20468847E0
:1055200094F8280010F0040F39D000200090039860
:10553000A169002342181946204601F0D1F970BB39
:10554000502080F31188BFF34F8FBFF36F8FFEE7BA
:1055500094F8280020F0010084F828001FE094F857
:10556000280040F0010084F828000398A06128B1C9
:10557000811813462046FFF725FF10E0502080F3E6
:105580001188BFF34F8FBFF36F8FFEE794F82800A9
:1055900010F0020F0CD020F0010084F82800002247
:1055A00002A9286800F07AFE002889D107B030BD32
:1055B000204600F059FAF2E778000020F8B50546D9
:1055C0000C4600F0FDFB684600F040F806460098E7
:1055D00010B101F0A3F8F8BD44B9B54206D801F006
:1055E0009DF831462846FFF72DFFF8BD0C481CB149
:1055F0000169096891B10024A91B2246006800F0E6
:10560000B5FA01F08BF80028EFD106494FF0805031
:105610000860BFF34F8FBFF36F8FF8BD0124EBE736
:105620007800002004ED00E00749486B006800287E
:1056300005D0486BC068C0684068886270474FF00A
:10564000FF308862704700003C00002070B50446BF
:1056500000F07CFF0546074EB068854204D200F09A
:105660000BF80120206001E000202060B560284692
:1056700070BD000078000020F8B51C4EF06800688E
:10568000002826D00027F068C0680568C468201D7F
:1056900000F054F9216A2046884794F8280010F059
:1056A000040F12D0A0692844A84206D96060246182
:1056B000211DF06800F07AF907E000232A46194618
:1056C0002046009701F00CF940B1F068006800280E
:1056D000D9D1F0683169F1603061F8BD502080F3B4
:1056E0001188BFF34F8FBFF36F8FFEE77800002064
:1056F0000A484068B0F1FF3F07D0502080F311887E
:10570000BFF34F8FBFF36F8FFEE7502080F31188F8
:10571000BFF34F8FBFF36F8FFEE70000B000002094
:10572000002100280AD00B4B42699A420FD1806AAF
:10573000A3F1280290420AD040B108E0502080F343
:105740001188BFF34F8FBFF36F8FFEE7012108462B
:1057500070470000C80C002082B001A8FFF72AFDA6
:105760000199FFF72BFFFFF7A1FEF6E770B504469E
:1057700000F044F994F94550002D0CDD606A50B1F9
:1057800004F1240000F08EFF08B100F045FA681E15
:1057900045B2002DF2DC4FF0FF3684F8456000F092
:1057A0004DF900F02BF994F94450002D0CDD2069DF
:1057B00050B104F1100000F075FF08B100F02CFAB0
:1057C000681E45B2002DF2DC84F84460BDE87040EC
:1057D00000F034B92DE9F0410546002600F0F0FA5A
:1057E000344F386808B9FFF7F7FC7869054251D1A2
:1057F0009DB1083515F0070F0FD005F00700C0F177
:105800000800054415F0070F07D0502080F31188D9
:10581000BFF34F8FBFF36F8FFEE7002D3AD078684C
:10582000854237D824490846046801E021460446E9
:105830006068A84202D220680028F7D13868844204
:1058400028D0086800F10806206808606068411BDD
:1058500010290FD9601910F0070F07D0502080F3DE
:105860001188BFF34F8FBFF36F8FFEE74160656014
:10587000FFF77AFD61687868401A7860BA689042EC
:1058800000D2B86078690843606000202060F86842
:10589000401CF86000F042FF16F0070F07D05020C0
:1058A00080F31188BFF34F8FBFF36F8FFEE7304651
:1058B000BDE8F08190000020A8000020001F4FF0FC
:1058C00080730360001F21F001010160001F054982
:1058D000016014380260001F6FF00201016020387F
:1058E00070470000F156000810B5134C94ED570AAC
:1058F000BDEEC00A10EE104A23B20F4C94ED3E0AE2
:10590000BDEEC00A10EE104A22B20B4C94ED250AEF
:10591000BDEEC00A10EE104A21B2074C94ED0C0AFD
:10592000BDEEC00A10EE104A20B2FAF783FE022044
:10593000FBF7ECFE10BD0000340100200169436854
:1059400082689A60836842685A604A68824201D1DC
:1059500082684A60002202610868401E0860086888
:1059600070470000034B036003F15C000860802077
:1059700010607047F40D0020044B036003F15C00DD
:1059800008604FF4807010607047000050100020D5
:1059900000F1080141604FF0FF328260C160016197
:1059A00000210160704700210161704710B4D1F8F7
:1059B00000C0BCF1FF3F02D000F1080202E0026922
:1059C00004E01A4653681C686445FAD953684B6072
:1059D00099608A60516008610168491C016010BCCF
:1059E000704742684A6093688B6093685960916021
:1059F00008610168491C016070470000502080F375
:105A00001188BFF34F8FBFF36F8F0A494868401C5E
:105A1000486001280CD10848006810F0FF0F07D03B
:105A2000502080F31188BFF34F8FBFF36F8FFEE7D5
:105A300070470000B000002004ED00E0094948680C
:105A4000002806D0401E4860002801D180F311884C
:105A50007047502080F31188BFF34F8FBFF36F8FD3
:105A6000FEE70000B000002070B500282AD0A0F1A9
:105A70000804154D60686969084207D1502080F319
:105A80001188BFF34F8FBFF36F8FFEE722683AB1E3
:105A9000502080F31188BFF34F8FBFF36F8FFEE765
:105AA0008843606000F08CF9606869680844686049
:105AB0002046FFF759FC2869401C2861BDE870406A
:105AC00000F02CBE70BD0000900000204FF0E020E0
:105AD00000210161816105494FF47A720968B1FBC7
