:020000040800F2
:100000000811002029020008512600089524000844
:100010004D2600081F0400087D2D00080000000088
:10002000000000000000000000000000572600084B
:10003000C1050008000000005526000859260008E8
:10004000430200084302000843020008430200087C
:10005000430200084302000843020008430200086C
:10006000430200084302000843020008430200085C
:10007000430200084302000843020008430200084C
:10008000430200084302000843020008430200083C
:100090002504000843020008430200084302000848
:1000A000430200084302000843020008430200081C
:1000B000430200084302000843020008430200080C
:1000C00043020008430200084302000843020008FC
:1000D00043020008692D000843020008430200089B
:1000E00043020008430200084302000843020008DC
:1000F00043020008430200084302000843020008CC
:1001000043020008430200084302000843020008BB
:1001100043020008430200084302000843020008AB
:100120004302000843020008850400084302000857
:10013000430200084302000843020008430200088B
:10014000430200084302000843020008430200087B
:10015000430200084302000843020008430200086B
:10016000430200084302000843020008430200085B
:100170004302000843020008430200080000000098
:10018000430200084302000800F002F800F03CF8C7
:100190000AA090E8000C82448344AAF10107DA45E2
:1001A00001D100F031F8AFF2090EBAE80F0013F0F8
:1001B000010F18BFFB1A43F0010318474C31000030
:1001C0006C310000103A24BF78C878C1FAD85207C1
:1001D00024BF30C830C144BF04680C6070470000C1
:1001E0000023002400250026103A28BF78C1FBD840
:1001F000520728BF30C148BF0B6070471FB503F0DE
:100200006EF81FBD10B510BD00F0CFF81146FFF716
:10021000F5FF02F067FF00F0EDF803B4FFF7F2FF1F
:1002200003BC00F0F5F80000094880470948004782
:10023000FEE7FEE7FEE7FEE7FEE7FEE7FEE7FEE796
:10024000FEE7FEE704480549054A064B70470000F3
:10025000192700088901000808050020081100205E
:10026000080900200809002053EA020C00F0698008
:100270002DE9F04B4FF00006002B1FBFB3FA83F5BA
:1002800003FA05F424FA05F65E4012BF1643B2FAEB
:1002900082F502FA05F4C5F120051EBF22FA05FC1D
:1002A00044EA0C04203556EA044C4FEA144418BFC3
:1002B000641C4FF000084FF00009904271EB030CF2
:1002C00039D3002919BFB1FA81F701FA07F6B0FA5C
:1002D00080F700FA07F6C7F120071EBF20FA07FCD7
:1002E00046EA0C062037B6FBF4FCA7EB0507103FE7
:1002F00007F01F0BCBF120060CFA0BFB2CFA06F6CD
:1003000044BFB3460026202FA4BF5E464FF0000B2B
:100310005BEA060C08BF4FF0010B19EB0B09ABFBB6
:10032000027C48EB0608C01B06FB02CC0BFB03CC8F
:1003300071EB0C01C1E70B46024641464846BDE859
:10034000F08B13B54FF000004FF00001AFF30080C9
:10035000BDE81C4070474FF0000200B513469446BC
:100360009646203922BFA0E80C50A0E80C50B1F10D
:100370002001BFF4F7AF090728BFA0E80C5048BF21
:100380000CC05DF804EB890028BF40F8042B08BFBF
:10039000704748BF20F8022B11F0804F18BF00F8BB
:1003A000012B7047704770477047754600F02CF876
:1003B000AE4605006946534620F00700854618B052
:1003C00020B5FFF73FFFBDE820404FF000064FF09B
:1003D00000074FF000084FF0000B21F00701AC467A
:1003E000ACE8C009ACE8C009ACE8C009ACE8C00999
:1003F0008D46704710B50446AFF300802046BDE837
:100400001040FFF70ABF000000487047A404002016
:1004100001491820ABBEFEE726000200704700BF6E
:10042000FEE7000010B5024800F0DEFA10BD000043
:10043000B0030020F8B507460C4615461E464FF49B
:1004400000700D49086000208860C86008200861BD
:10045000380A0A4908704F70200A8870CC70280A40
:1004600008714D71300A8871CE716B460A46024997
:10047000034800F0BEF8F8BD9400002008000020FA
:10048000B003002010B5024800F04EFE10BD000081
:10049000440400200146087810381823B0FBF3F21A
:1004A0000848805CC865032A05D908686FF309000D
:1004B000001D886503E008686FF309008865886D92
:1004C00070470000E8320008014600208A6A8B6904
:1004D000CBB932B1012A0DD0022A03D0032A10D1A0
:1004E0000EE000BFCB6A03F08073B3F1807F00D1D0
:1004F000012007E0CB6AB3F1C07F00D1012001E009
:1005000000E000BF34E08B69B3F5005F1AD132B16F
:10051000012A07D0022A03D0032A11D10AE000BF22
:1005200001200EE0CB6A03F08073B3F1807F00D12D
:10053000012006E0CB6AB3F1C07F00D1012000E0CA
:1005400000BF15E032B1012A05D0022A04D0032AE7
:100550000CD103E000BF00BF012008E0CB6A03F02C
:100560008073B3F1807F00D1012000E000BF00BFA5
:10057000704730B50468246824F4802405682C6032
:10058000046863608468402C04D10468A260046835
:10059000E16003E00468A1600468E26030BD10B56A
:1005A0000246002009E043005B1CD35C12F81040B7
:1005B00043EA042321F81030401C0D28F3DB10BD62
:1005C000704772B600BFFEE710B5024692F82030C1
:1005D000012B01D0022B06D1106840690843146832
:1005E0006061002010BD506A40F4802050620120FC
:1005F000F8E7F0B504460D461E4694F820702068D2
:100600008368A86800B900E000BF012F01D0022F65
:100610007CD103F0806030B903F0006018B903F0BA
:100620008050002873D0C3F30161022905D9606AA4
:1006300040F4000060620120F0BD0120884030607D
:10064000A86860B9B5F800C0E86840EA4C5C20686A
:1006500000F5C07000EB0110C0F800C00FE0D5E954
:1006600001C040EACC00D5F80CC040EA0C00D4F838
:1006700000C00CF5C07C0CEB011CCCF80000D5F8D8
:1006800010C0206800F5C07000EB0110C0F804C075
:10069000287D01280ED1206800F5C07000EB011004
:1006A000406840F4807C206800F5C07000EB0110C9
:1006B000C0F804C0D079000692F806C040EA0C40A9
:1006C00092F805C040EA0C2C10794CEA000C206826
:1006D00000F5C07000EB0110C0F80CC0D078000627
:1006E00092F802C040EA0C4092F801C040EA0C20A7
:1006F00092F800C040EA0C00D4F800C00CF5C07CB1
:100700000CEB011CCCF80800206801E016E00FE0BB
:1007100000F5C07000EB0110006840F0010C20688B
:1007200000F5C07000EB0110C0F800C0002083E7A6
:10073000606A40F40010606201207DE7606A40F466
:1007400080206062012077E7F0B504460A46216800
:1007500094F82050012D01D0022D7ED1424901F59F
:100760000071086840F001000860086820F47C50BF
:1007700008600868566A40EA06200860107D00F0AC
:100780001F06012000FA06F3C8699843C861A1F565
:100790000071D069C8B9D1F80C029843C1F80C02B5
:1007A000908880B2968940EA064601F51070576934
:1007B00040F83760108880B2168940EA064601F595
:1007C0001070576900EBC7004660D069012819D145
:1007D000D1F80C021843C1F80C02908880B2168838
:1007E00040EA064601F51070576940F83760908975
:1007F00080B2168940EA064601F51070576900EB91
:10080000C7004660906928B9D1F804029843C1F83E
:10081000040204E0D1F804021843C1F8040210698C
:1008200028B9D1F814029843C1F8140204E0D1F8B1
:1008300014021843C1F81402106A012804D1D1F837
:100840001C021843C1F81C02D1F8000220F001007C
:10085000C1F800020020F0BDFFE7606A40F480208C
:1008600060620120F7E7000000640040704770B547
:10087000044694F82050012D01D0022D7DD151B9AC
:100880002068C06800F0030080B9606A40F400107E
:100890006062012070BD2068006900F0030028B983
:1008A000606A40F4001060620120F3E7206800F500
:1008B000D87000EB0110006800F0040090609068B0
:1008C00040B9206800F5D87000EB01100068400DB9
:1008D000106007E0206800F5D87000EB0110006898
:1008E000C0085060206800F5D87000EB0110006867
:1008F00000F00200D060206800F5D87000EB011015
:10090000406800F00F001061206800F5D87000EB1F
:100910000110406800F47F40000A9061206800F5F3
:10092000D87000EB01104068000C5061206800F5A1
:10093000D87000EB011080681870206800F5D8703E
:1009400000EB0110806800F47F40000A58702068B6
:1009500000F5D87000EB0110806800F47F00000CF7
:100960009870206800F5D87000EB01108068000EC8
:10097000D870206800F5D87000E02FE000EB01107F
:10098000C0681871206800F5D87000EB0110C068CD
:1009900000F47F40000A5871206800F5D87000EB21
:1009A0000110C06800F47F00000C9871206800F509
:1009B000D87000EB0110C068000ED87131B9206802
:1009C000C06840F020002668F06005E020680069FB
:1009D00040F020002668306100205BE7606A40F448
:1009E00080206062012055E72DE9F05F0446002574
:1009F000206846692068D0F80490206887682068DD
:100A0000D0F80CA02068D0F810B02068D0F818807A
:100A100006F00100002855D007F00100C0B1012008
:100A20002168886007F0020018B1204600F00BFB37
:100A30000EE007F0040010B145F4006508E007F08F
:100A4000080010B145F4805502E0204600F0FAFAA3
:100A500007F48070C8B14FF480702168886007F493
:100A6000007018B1204600F0F0FA0EE007F4806044
:100A700010B145F4005508E007F4006010B145F4EA
:100A8000804502E0204600F0DFFA07F48030C8B16C
:100A90004FF480302168886007F4003018B1204698
:100AA00000F0D5FA0EE007F4802010B145F40045BF
:100AB00008E007F4002010B145F4803502E020463C
:100AC00000F0C4FA06F0080038B10AF0100020B1B6
:100AD00045F4007510202168C86006F0040040B19C
:100AE0000AF0080028B108202168C860204600F0FC
:100AF00007FA06F0020038B12068C06800F0030071
:100B000010B1204600F0FEF906F0400038B10BF0BD
:100B1000100020B145F4806510202168086106F0BE
:100B2000200040B10BF0080028B1082021680861BE
:100B3000204600F055FA06F0100038B12068006930
:100B400000F0030010B1204600F04BFA06F400302C
:100B500040B109F0100028B11020216848602046FB
:100B600000F040FA06F4803040B109F0080028B1E6
:100B7000082021684860204600F06AFA06F4004028
:100B800088B309F0040078B306F4807020B108F04F
:100B9000010008B145F0010506F4007020B108F02D
:100BA000020008B145F0020506F4806020B108F0AB
:100BB000040008B145F0040506F40060A0B108F097
:100BC000700088B108F07000402817D006DC1028AB
:100BD0000BD020280CD0302819D10CE0502810D090
:100BE000602814D110E01DE019E045F008050FE081
:100BF00045F010050CE045F0200509E045F0400502
:100C000006E045F0800503E045F4807500E000BF94
:100C100000BF2068806920F070002168886104208E
:100C2000216848602DB1606A284360622046FFF762
:100C30001DFEBDE8F09F70B504460CB9012070BDE3
:100C400094F8200010B9204600F0B0F82068006841
:100C500040F001002168086000F05AFD05460DE0F3
:100C600000F056FD401B0A2808D9606A40F40030A5
:100C70006062052084F820000120E0E720684068D9
:100C800000F001000028EBD02068006820F002008E
:100C90002168086000F03CFD05460DE000F038FDDD
:100CA000401B0A2808D9606A40F4003060620520C1
:100CB00084F820000120C2E72068406800F00200AC
:100CC0000028EBD1207E012806D12068006840F082
:100CD00080002168086005E02068006820F080003E
:100CE00021680860607E012806D12068006840F015
:100CF00040002168086005E02068006820F040009E
:100D000021680860A07E012806D12068006840F0B4
:100D100020002168086005E02068006820F02000BD
:100D200021680860E07E012806D12068006820F074
:100D300010002168086005E02068006840F010009D
:100D400021680860207F012806D12068006840F0F3
:100D500008002168086005E02068006820F00800AD
:100D600021680860607F012806D12068006840F093
:100D700004002168086005E02068006820F0040095
:100D800021680860D4E902010843216908436169C8
:100D900008436168491E08432168C86100206062F9
:100DA000012084F82000002049E7000010B586B03B
:100DB0000446142101A8FFF7CEFA4B492068884267
:100DC00042D14A480068401C48490860084600680B
:100DD00001280FD100BF002000904548006840F076
:100DE0000070434908600846006800F000700090F9
:100DF00000BF00BF00BF002000903D4810380068D1
:100E000040F001003A49103908600846006800F0D7
:100E10000100009000BF00BF4FF4C05001900220BD
:100E2000029000200390032004900920059001A95E
:100E3000304800F06DFB00221146142000F0F2FC57
:100E4000142000F0DFFC4DE02B492068884249D196
:100E500000BF002000902648006840F080602449D0
:100E600008600846006800F08060009000BF00BF86
:100E70001E480068401C1D4908600846006801289B
:100E80000FD100BF002000901948006840F00070AA
:100E9000174908600846006800F00070009000BF25
:100EA00000BF00BF0020009011481038006840F0DB
:100EB00002000F49103908600846006800F002007F
:100EC000009000BF00BF4FF44050019002200290FC
:100ED00000200390032004900920059001A90748F1
:100EE00000F016FB06B010BD00640040200000209A
:100EF0004038024000000240006800400004024008
:100F00007047000010B58AB0044601AB03AA002167
:100F10002046FFF7ACFC0398A0F20120072851D22D
:100F2000DFE800F00405060708090A0000BF00BF5B
:100F300000BF00BF00BF00BF0398401E25490870D6
:100F40000846007800EB8000234931F8100000B219
:100F50002049097801EB81011F4A02EB4101088118
:100F60009DF805009DF8041040EA01201949097810
:100F700001EB810122F811009DF807009DF8061091
:100F800040EA012000B21349097801EB810102EB2C
:100F9000410148809DF809009DF8081040EA0120B1
:100FA00000B20C49097801EB810102EB4101888014
:100FB0009DF80A000749097801EB810102EB410124
:100FC000887100E000BF00BF02210448FFF7FCFA6F
:100FD0000AB010BD1000002034000020B003002033
:100FE00070477047704770B5044694F82000012898
:100FF00022D1022084F820002068006820F001003F
:101000002168086000F084FB05460DE000F080FBDD
:10101000401B0A2808D9606A40F40030606205204D
:1010200084F82000012070BD2068406800F00100B5
:101030000028EBD16062F6E7606A40F4002060624D
:101040000120F0E77047704770477047704770475E
:10105000704770B50446A56D00F05AFB064694F83B
:101060003500022808D08020606500BF002084F889
:10107000340000BF012070BD2068006820F0160019
:10108000216808602068406920F08000216848617C
:10109000206C08B9A06C28B12068006820F0080016
:1010A000216808602068006820F00100216808605D
:1010B00010E000F02DFB801B05280BD92020606577
:1010C000032084F8350000BF002084F8340000BFFE
:1010D0000320D0E72068006800F001000028E8D174
:1010E00094F85C103F208840A860012084F8350007
:1010F00000BF002084F8340000BF00BFBBE70146FA
:1011000091F83500022803D08020486501207047FF
:10111000052081F835000868006820F001000A68A1
:1011200010600020F3E70000F8B5044600200090AE
:101130008C4800684FF41651B0FBF1F7A56D2E688E
:1011400094F85C1008208840304098B1206800680E
:1011500000F0040070B12068006820F004002168ED
:10116000086094F85C1008208840A860606D40F02A
:101170000100606594F85C1001208840304068B13F
:101180002068406900F0800040B194F85C100120B4
:101190008840A860606D40F00200606594F85C10C3
:1011A00004208840304068B12068006800F00200E8
:1011B00040B194F85C1004208840A860606D40F055
:1011C0000400606594F85C1010208840304078B3CB
:1011D0002068006800F0080050B394F85C101020FC
:1011E0008840A8602068006800F4802080B12068F2
:1011F000006800F4002028B9206CC8B12046216C9A
:10120000884715E0A06C98B12046A16C88470FE094
:101210002068006800F4807028B92068006820F019
:10122000080021680860206C10B12046216C8847B6
:1012300094F85C10202088403040002865D0206859
:10124000006800F0100000285FD094F85C102020A7
:101250008840A86094F83500052828D120680068E7
:1012600020F01600216808602068406920F08000A6
:1012700021684861206C08B9A06C28B1206800681A
:1012800020F008002168086094F85C103F20884036
:10129000A860012084F8350000BF002084F83400E5
:1012A00000BF206D10B12046216D8847F8BD206831
:1012B000006800F4802080B12068006800F40020FD
:1012C00028B9606C10B12046616C88471DE0E06B66
:1012D000D8B12046E16B884717E02068006800F429
:1012E000807068B92068006820F0100021680860EC
:1012F000012084F8350000BF002084F8340000BFCE
:10130000E06B10B12046E16B8847606D38B3606DCB
:1013100000F00100F0B1052084F835002068006875
:1013200020F001002168086000BF0098401C009078
:10133000B84200D905E02068006800F001000028EC
:10134000F3D100BF012084F8350000BF002084F8ED
:10135000340000BFE06C10B12046E16C884700BF4C
:10136000A4E70000300000202DE9F04104460025EC
:1013700000F0CEF9074614B90120BDE8F081606A9B
:1013800000B100BF022084F8350000BF002084F8BF
:10139000340000BF2068006820F001002168086068
:1013A0000AE000F0B5F9C01B052805D920206065CA
:1013B000032084F83500E0E72068006800F00100B1
:1013C0000028EED12068056821480540D4E90101D4
:1013D0000843E16808432169084361690843A1693A
:1013E0000843E1690843216A08430543606A042809
:1013F00003D1D4E90B010843054320680560206848
:10140000456925F00705606A0543606A04280DD127
:10141000A06A0543E06A48B12046FFF755F828B1B5
:1014200040206065012084F83500A6E7206845610A
:101430002046FFF72FF8064694F85C103F208840BE
:10144000B06000206065012084F83500002094E73A
:101450003F8010F02DE9F04704460D4616461F4622
:101460004FF00008D4F8589000BF94F834000128D9
:1014700002D10220BDE8F087012084F8340000BFCB
:1014800094F83500012825D1022084F83500002089
:1014900060653B46324629462046FFF76AF894F8D5
:1014A0005C103F208840C9F808002068006840F0C0
:1014B000160021680860206C28B12068006840F0A0
:1014C0000800216808602068006840F00100216879
:1014D000086006E000BF002084F8340000BF4FF031
:1014E00002084046C6E7000070B5044600F010F957
:1014F00006462546681C10B104480078054400BF24
:1015000000F006F9801BA842FAD370BD2C00002021
:10151000F8B502460B460025002400200021D6E045
:10152000012606FA01F51E6806EA0504AC4274D1EC
:101530001E7906F00306012E04D01E7906F003067C
:10154000022E13D190684F000326BE40B0434F00D7
:10155000DE68BE4030439060506801268E40B04344
:101560001E79C6F300168E40304350601E7906F097
:101570000306032E09D0D0684F000326BE40B043B7
:101580004F009E68BE403043D0601E7906F00306CF
:10159000022E13D1CF0802F1200656F827004E077D
:1015A000F70E0F26BE40B0434F07FF0E1E69BE4028
:1015B0003043CF0802F1200646F8270010684F009C
:1015C0000326BE40B0431E7906F003064F00BE401E
:1015D000304310605E6806F44036002E76D000BFBF
:1015E000002600963C4E366846F480463A4F3E60F0
:1015F0003E46366806F48046009600BF00BF374E70
:101600008F0856F827008E07370F0F26BE40B043CD
:10161000334EB24202D1002624E057E0314EB242AE
:1016200001D101261EE0304EB24201D1022619E05E
:101630002E4EB24201D1032614E02D4EB24201D10A
:1016400004260FE02B4EB24201D105260AE02A4EB5
:10165000B24201D1062605E0284EB24201D107264A
:1016600000E008268F073F0FBE4030431B4E8F0817
:1016700046F82700224E3068A0435E6806F48016C4
:1016800006B120431E4E3060361D3068A0435E68B0
:1016900006F4001606B12043194E361D3060184E70
:1016A000361F3068A0435E6806F4003606B120435A
:1016B000134E361F3060361F3068A0435E6806F454
:1016C000803606B120430E4E083E3060491C10297A
:1016D000FFF426AFF8BD000044380240083801404E
:1016E000000002400004024000080240000C0240DA
:1016F000001002400014024000180240001C02408A
:10170000083C01400AB1816101E00B04836170472C
:10171000014800687047000024000020034800686A
:1017200003490978084401490860704724000020F3
:101730002C00002010B50D48006840F400700B49E3
:1017400008600846006840F4806008600846006849
:1017500040F480700860032000F0A2F80F2000F031
:1017600007F800F02BF8002010BD0000003C0240FC
:1017700070B504460E4800784FF47A71B1FBF0F072
:101780000C490968B1FBF0F5284600F02BFC08B1C4
:10179000012070BD102C07D200222146501E00F0FF
:1017A00041F80548046001E00120F2E70020F0E77D
:1017B0002C000020300000202800002008B500BFC9
:1017C000002000900E48006840F480400C490860FA
:1017D0000846006800F48040009000BF00BF00BFD2
:1017E00000200090081F006840F08050091F08602A
:1017F0000846006800F08050009000BF00BF08BDA0
:101800004438024001460846002809DB00F01F0367
:1018100001229A4043099B0003F1E023C3F8002111
:1018200000BF70472DE9F05F80460D461646002741
:1018300001F0C6FA074639462A46334601F007004A
:10184000C0F1070ABAF1040F02D94FF0040A01E00F
:10185000C0F1070AD14600F1040ABAF1070F02D21B
:101860004FF0000A01E0A0F1030AD4464FF0010A4C
:101870000AFA09FAAAF1010A0AEA020A0AFA0CFAB1
:101880004FF0010B0BFA0CFBABF1010B0BEA030B56
:101890004AEA0B042146404601F09AFABDE8F09F5F
:1018A00000BF00F00702064B19684FF6FF0319400E
:1018B000044B0B4343EA0221014B196000BF704700
:1018C0000CED00E00000FA0570B504460D460CB9B9
:1018D000012070BD5848006800F00700A84209D2F6
:1018E00055490D700846006800F00700A84201D075
:1018F0000120EEE7207800F0020002281DD12078B8
:1019000000F00400042805D14C48006840F4E05081
:101910004A490860207800F00800082805D14748A7
:10192000006840F46040454908604448006820F081
:10193000F000A168084341490860207800F00100E8
:10194000A8B36068012807D13C4808380068C0F394
:101950004040B8B90120BCE76068022802D0606846
:10196000032807D1354808380068C0F3406048B9FB
:101970000120AEE7314808380068C0F3400008B9DC
:101980000120A6E72D48006820F0030061680843A5
:101990002A490860FFF7BCFE064609E0FFF7B8FEDB
:1019A000801B41F28831884202D9032091E707E089
:1019B0002248006800F00C006168B0EB810FEDD1A7
:1019C0001D48006800F00700A84209D91A490D70A7
:1019D0000846006800F00700A84201D0012078E71F
:1019E000207800F00400042807D11448006820F48F
:1019F000E050E168084311490860207800F00800D1
:101A0000082808D10D48006820F46040216940EAA8
:101A1000C1000A49086000F03FF808490968C1F3AD
:101A20000311074A515CC84006490860064800682F
:101A3000FFF79EFE00204CE7003C024008380240C1
:101A4000F032000830000020280000200148006823
:101A5000704700003000002000B5FFF7F7FF044991
:101A60000968C1F38221034A515CC84000BD0000EF
:101A7000083802400033000800B5FFF7E7FF0449CB
:101A80000968C1F34231034A515CC84000BD0000FF
:101A900008380240003300082DE9F04700240025F3
:101AA0000026A1462548006800F00C0020B104285B
:101AB00005D008283AD105E0DFF8849039E0DFF856
:101AC000849036E01D48001F006800F03F041B486A
:101AD000001F006800F4800078B11A481749091FF8
:101AE0000968C1F38811A0FB01700146224600235A
:101AF0003846FEF7B9FB05460EE011480F49091FAD
:101B00000968C1F38811A0FB017001462246002339
:101B10003846FEF7A9FB05460848001F0068C0F3D9
:101B20000140401C4600B5FBF6F902E0DFF81090DA
:101B300000BF00BF4846BDE8F087000008380240FB
:101B40000024F400001BB700F8B504460CB90120CE
:101B5000F8BD207800F00100002874D0F948006832
:101B600000F00C0004280DD0F648006800F00C00CE
:101B7000082813D1F348001F006800F48000B0F576
:101B8000800F0BD1EF4808380068C0F340400028B0
:101B900059D06068002856D10120D9E700BF60689D
:101BA000B0F5803F08D1E7480838006840F480303D
:101BB000E449083908601EE06068B0F5A02F0DD137
:101BC000E0480838006840F48020DE4908390860A1
:101BD0000846006840F4803008600CE0D9480838B6
:101BE000006820F48030D74908390860084600684A
:101BF00020F48020086000BF606890B1FFF788FD86
:101C0000054606E0FFF784FD401B642801D9032048
:101C10009EE7CC4808380068C0F340400028F1D067
:101C200011E0FFF775FD054606E0FFF771FD401B6B
:101C3000642801D903208BE7C24808380068C0F344
:101C400040400028F1D1207800F0020002285FD146
:101C5000BC48006800F00C0058B1BA48006800F0B9
:101C60000C0008281CD1B748001F006800F4800051
:101C7000B0B9B44808380068C0F3400020B1E0684B
:101C8000012801D0012063E7AE480838006820F041
:101C9000F800216940EAC100AA490839086037E024
:101CA000E06800B30120A8490860FFF731FD054650
:101CB00006E0FFF72DFD401B022801D9032047E76E
:101CC000A04808380068C0F340000028F1D09D48C3
:101CD0000838006820F0F800216940EAC1009949FD
:101CE0000839086014E0002097490860FFF710FDEC
:101CF000054606E0FFF70CFD401B022801D9032032
:101D000026E7904808380068C0F340000028F1D169
:101D1000207800F0080008282CD16069A8B10120C3
:101D20008A490860FFF7F4FC054606E0FFF7F0FC7F
:101D3000401B022801D903200AE782486C30006862
:101D4000C0F340000028F1D014E000207F49086073
:101D5000FFF7DEFC054606E0FFF7DAFC401B022831
:101D600001D90320F4E677486C300068C0F34000E6
:101D70000028F1D1207800F00400042870D1002759
:101D800070483830006800F0805090B900BF0020E3
:101D900000906C483830006840F080506949383114
:101DA00008600846006800F08050009000BF00BF47
:101DB00001276748006800F48070B0B96448006883
:101DC00040F4807062490860FFF7A2FC054606E017
:101DD000FFF79EFC401B022801D90320B8E65C48AF
:101DE000006800F480700028F2D000BFA0680128CD
:101DF00008D154486830006840F00100514968310A
:101E000008601DE0A06805280DD14E4868300068C4
:101E100040F004004B49683108600846006840F013
:101E2000010008600CE047486830006820F00100BD
:101E30004449683108600846006820F004000860E2
:101E400000BFA068A8B1FFF763FC054609E0FFF7F3
:101E50005FFC401B41F28831884202D9032077E6BB
:101E600026E0384868300068C0F340000028EED013
:101E700013E0FFF74DFC054608E0FFF749FC401B67
:101E800041F28831884201D9032061E62D4868304B
:101E90000068C0F340000028EFD1012F07D1294886
:101EA0003830006820F0805026493831086000BF83
:101EB000A069002845D02348006800F00C000828DD
:101EC0005DD0A069022845D100201F490866FFF7B0
:101ED0001FFC054606E0FFF71BFC401B022801D94A
:101EE000032035E6174808380068C0F34060002832
:101EF000F1D1D4E907010843616A40EA8111012266
:101F0000A06AC2EB500041EA00412C20005D41EA8A
:101F100000600C49091F086001200B490866FFF7A3
:101F2000F7FB054606E0FFF7F3FB401B022801D94B
:101F300003200DE6034808380068C0F3406000281D
:101F4000F1D049E00838024000004742800E474285
:101F500000700040002021490866FFF7D9FB0546C4
:101F600006E0FFF7D5FB401B022801D90320EFE56F
:101F70001B480068C0F340600028F2D12CE0A06943
:101F8000012800D1E4E51648001D0668A069012873
:101F900020D006F48001E06981421BD106F03F01A8
:101FA000206A814216D147F6C0703040616AB0EBBA
:101FB000811F0FD106F440310122A06AC2EB50000C
:101FC000B1EB004F06D106F070612C20005DB1EB43
:101FD000006F01D00120BBE50020B9E500004742B9
:101FE0000038024070B504462546681EB0F1807F77
:101FF00001D301200FE0681E4FF0E02148610F215E
:102000004FF0FF3000F0E4FE00204FF0E021886147
:1020100007200861002070BD704770472DE9F84F18
:102020000446206805682068C668206847694FF044
:102030000009CA4605F00F09B9F1000F0AD105F0F1
:10204000200038B106F0200020B1204600F061FCED
:10205000BDE8F88FB9F1000F7CD007F0010018B986
:1020600006F49070002875D005F0010030B106F438
:10207000807018B1206C40F00100206405F004006D
:1020800030B107F0010018B1206C40F0020020646C
:1020900005F0020030B107F0010018B1206C40F0EB
:1020A0000400206405F0080048B106F0200010B9D3
:1020B00007F0010018B1206C40F008002064206C8B
:1020C000002846D005F0200028B106F0200010B10D
:1020D000204600F01EFC20684069C0F3801A206C86
:1020E00000F0080010B9BAF1000F2DD0204600F022
:1020F000B7FB2068406900F04000402820D100BFB5
:1021000000BF2168143151E8001F21F04000216810
:10211000143141E80002002AF3D100BFA06B50B196
:102120007548A16B0865A06BFEF7E9FF88B1A06B4D
:10213000016D88470DE02046FFF76FFF09E009E0D9
:102140002046FFF76AFF04E02046FFF766FF002005
:1021500020647DE7206B012876D105F0100000286F
:1021600072D006F010000028FAD000BF00200090C6
:1021700020680068009020684068009000BF00BFA1
:102180002068406900F0400040285ED1A06B0068E4
:1021900040681FFA80F8B8F1000F54D0A08D404578
:1021A00051DDA4F82E80A06BC069B0F5807F43D0CC
:1021B00000BF00BF21680C3151E8001F21F480707E
:1021C00021680C3141E80002002AF3D100BF00BFB2
:1021D00000BF2168143151E8001F21F0010021687F
:1021E000143141E80002002AF3D100BF00BF00BF54
:1021F0002168143151E8001F21F04000216814319A
:1022000041E80002002AF3D100BF202084F83E00FC
:102210000020206300BF00BF21680C3151E8001F7F
:1022200021F0100021680C3141E80002002AF3D1AE
:1022300000BFA06BFEF70DFFA08DE28D801A81B26A
:102240002046FFF7E9FE03E740E0A08DE18D401A4C
:102250001FFA80F8E08DC0B3B8F1000F35D000BF91
:1022600000BF21680C3151E8001F21F490702168F3
:102270000C3141E80002002AF3D100BF00BF00BFCB
:102280002168143151E8001F21F001002168143148
:1022900041E80002002AF3D100BF202084F83E006C
:1022A0000020206300BF00BF21680C3151E8001FEF
:1022B00021F0100021680C3141E80002002AF3D11E
:1022C00000BF41462046FFF7A7FEC1E605F08000AB
:1022D00030B106F0800018B1204600F015FDB7E6D9
:1022E00005F0400030B106F0400018B1204600F083
:1022F000EDFAADE600BFABE62D27000810B50446A9
:102300000CB9012010BDA06900B100E000BF94F835
:102310003D0028B9002084F83C00204600F028F851
:10232000242084F83D002068C06820F40050216813
:10233000C860204600F06AFB2068006920F49040E5
:10234000216808612068406920F02A0021684861FE
:102350002068C06840F400502168C86000202064F4
:10236000202084F83D0084F83E000020CAE70000E9
:1023700010B586B00446142101A8FDF7ECFF2E49E4
:102380002068884255D100BF002000902B4800688B
:1023900040F01000294908600846006800F010006D
:1023A000009000BF00BF00BF0020009023481438F9
:1023B000006840F0010021491439086008460068AF
:1023C00000F00100009000BF00BF4FF4C06001901A
:1023D0000220029000200390032004900720059023
:1023E00001A91748FFF794F81648174908604FF0FD
:1023F00000604860002114488160C1604FF4806132
:102400000161002141618161C16101624162FEF7A8
:10241000ABFF08B1FEF7D5F800BF0B48A06384639B
:1024200000BF002211462520FFF7FCF92520FFF709
:10243000E9F906B010BD0000001001404438024028
:1024400000000240406402404404002070B504468D
:102450000D46164694F83E00202816D105B10EB957
:10246000012070BD00BF94F83C00012801D102207A
:10247000F7E7012084F83C0000BF002020633246CB
:102480002946204600F0D8FBEBE70220E9E7704739
:102490007047704700BFFEE710B50F480F4908604E
:1024A0000320486000210D488160C1604FF4002185
:1024B00001614FF440114161002101760121417613
:1024C00000218176C17601774177FEF7B4FB08B130
:1024D000FEF777F810BD000000640040B003002054
:1024E00010B50E480E4908600320486000210C48D2
:1024F0008160C1604FF4002101614FF440114161DE
:102500000021017641768176C17601774177FEF729
:1025100092FB08B1FEF755F810BD000000680040BE
:10252000D803002008B500BF002000900A480068CA
:1025300040F48000084908600846006800F4800004
:10254000009000BF00BF002211463A20FFF76AF951
:102550003A20FFF757F908BD3038024000B587B080
:10256000142102A8FDF7F7FE00BF002001902748C4
:10257000006840F02000254908600846006800F027
:102580002000019000BF00BF00BF0020019008465E
:10259000006840F0800008600846006800F0800095
:1025A000019000BF00BF00BF0020019008460068F6
:1025B00040F0020008600846006800F00200019048
:1025C00000BF00BF00BF002001900846006840F037
:1025D000010008600846006800F00100019000BF9B
:1025E00000BF00224FF4C0610948FFF78BF84FF499
:1025F000C06002900120039000200490059002A981
:102600000348FEF785FF07B000BD000030380240E8
:102610000014024010B50B480B4908604FF4E1303C
:102620004860002108488160C16001610C2141615E
:1026300000218161C161FFF761FE08B1FDF7C1FFB3
:1026400010BD0000001001400004002000BFFEE7A4
:1026500000BFFEE77047704710B5FFF75FF810BD89
:1026600000B593B0302107A8FDF775FE142102A82C
:10267000FDF771FE00BF002001902548006840F082
:102680008050234908600846006800F0805001909F
:1026900000BF00BF00BF002001901E48006840F44A
:1026A00080401C4908600846006800F480400190A2
:1026B00000BF00BF0220079001200A9010200B905D
:1026C00002200D9000210E9108210F91A821109158
:1026D000022111910421129107A8FFF735FA08B1E0
:1026E000FDF76FFF0F20029002200390002004905E
:1026F0004FF4A05005904FF480500690052102A899
:10270000FFF7E2F808B1FDF75CFF13B000BD000071
:1027100040380240007000400348006840F47000F8
:10272000014908607047000088ED00E070B505467B
:10273000AC6B0020E085E0842046FFF76EFC70BDA6
:1027400070B506460025B46B20684069C0F3C0151B
:1027500094F83D00212805D125B10020E0842046D1
:1027600000F0C4F820684069C0F3801594F83E007A
:10277000222805D125B10020E085204600F070F820
:10278000206C40F0100020642046FFF746FC70BD2E
:1027900070B50546AC6B2868006800F480700028AE
:1027A00042D1E08500BF00BF21680C3151E8001F15
:1027B00021F4807021680C3141E80002002AF3D135
:1027C00000BF00BF00BF2168143151E8001F21F095
:1027D00001002168143141E80002002AF3D100BF52
:1027E00000BF00BF2168143151E8001F21F04000F4
:1027F0002168143141E80002002AF3D100BF2020F3
:1028000084F83E00206B01280ED100BF00BF216874
:102810000C3151E8001F21F0100021680C3141E813
:102820000002002AF3D100BF206B012804D1A18D42
:102830002046FFF7F1FB02E02046FFF728FE70BDBF
:1028400070B50546AC6B206B012805D1A08D410801
:102850002046FFF7E1FB02E02046FFF719FE70BDBE
:1028600000BF00BF02680C3252E8002F22F49071C2
:1028700002680C3242E80013002BF3D100BF00BF06
:1028800000BF0268143252E8002F22F001010268F2
:10289000143242E80013002BF3D100BF016B012971
:1028A0000ED100BF00BF02680C3252E8002F22F0A8
:1028B000100102680C3242E80013002BF3D100BF74
:1028C000202180F83E1000210163704710B50446B6
:1028D0002068C06820F040002168C860202084F88B
:1028E0003D002046FFF7D5FD002010BD00BF00BF12
:1028F00002680C3252E8002F22F0C00102680C324C
:1029000042E80013002BF3D100BF202180F83D10D6
:102910007047F8B5044694F83E00222873D1A068A9
:10292000B0F5805F0CD1206950B90025A66A2068F7
:102930004068C0F308003080A06A801CA06215E0E7
:10294000A56A0026A068B0F5805F03D0A06828B90A
:10295000206918B920684068287004E02068406841
:1029600000F07F002870A06A401CA062E08D401E2D
:1029700080B2E085002844D12068C06820F02000A3
:102980002168C8602068C06820F480702168C86031
:102990002068406920F0010021684861202084F807
:1029A0003E00206B012826D10020206300BF00BF1D
:1029B00021680C3151E8001F21F0100021680C3112
:1029C00041E80002002AF3D100BF2068006800F04F
:1029D000100010280AD100BF002000902068006875
:1029E000009020684068009000BF00BFA18D204685
:1029F000FFF712FB02E02046FFF749FD0020F8BD7B
:102A000001E00020FBE70220F9E700002DE9F84F84
:102A100004462068006920F44050E16808432168BA
:102A200008612169A068084361690843E1690843B6
:102A300000902068C06849F20C61884300990843FF
:102A40002168C8602068406920F44070A16908438B
:102A50002168486176492068884203D0754920681A
:102A6000884203D1FFF708F8814602E0FEF7F4FF41
:102A70008146E069B0F5004F6CD102206168A0FB8F
:102A8000015003461920A9FB007001462A4638462A
:102A9000FDF7EAFB6421B0FBF1F04FEA001A0220D7
:102AA0006168A0FB01510B461920A9FB00712A4661
:102AB0003846FDF7D9FB834602206168A0FB015030
:102AC00003461920A9FB00712A463846FDF7CCFBC6
:102AD0006421B0FBF1F000EBC00101EB0010ABEBA7
:102AE0008000322101EBC0006421B0FBF1F000F066
:102AF000F8000AEB400A02206168A0FB015003467F
:102B00001920A9FB007001462A463846FDF7ACFBA8
:102B1000834602206168A0FB015003461920A9FBEF
:102B200000712A463846FDF79FFB6421B0FBF1F0A7
:102B300000EBC00101EB0010ABEB8000322101EB98
:102B4000C0006421B0FBF1F000F0070050442168A0
:102B500088606AE004206168A0FB015003461920E8
:102B6000A9FB007001462A463846FDF77DFB8246E8
:102B700004206168A0FB015003461920A9FB0070E6
:102B800001462A463846FDF76FFB6421B0FBF1F0A1
:102B900000EBC00101EB0010AAEB8000322101EB39
:102BA00000106421B0FBF1F000F0F00A042061682D
:102BB000A0FB017003461920A9FB00513A462846A4
:102BC000FDF752FB6421B0FBF1F00AEB001A042080
:102BD0006168A0FB01510B461920A9FB00712A4630
:102BE0003846FDF741FB834604206168A0FB015095
:102BF00003461920A9FB007001462A463846FDF716
:102C000033FB6421B0FBF1F000EBC00101EB0010DD
:102C1000ABEB8000322101EB00106421B0FBF1F03E
:102C200000F00F00504421688860BDE8F88F000074
:102C3000001001400014014077B581B004461546EC
:102C40000298A062A58500202064222084F83E001E
:102C50002A48A16BC8632A48A16B08642948A16B64
:102C6000C8640020A16B086502AE32682368191D94
:102C70002B46A06BFEF7EEFB00BF00200090206803
:102C80000068009020684068009000BF00BF00BF4F
:102C9000002084F83C0000BF206970B100BF00BF75
:102CA00021680C3151E8001F41F4807021680C311B
:102CB00041E80002002AF3D100BF00BF00BF216835
:102CC000143151E8001F41F001002168143141E83E
:102CD0000002002AF3D100BF00BF00BF21681431F9
:102CE00051E8001F41F040002168143141E8000222
:102CF000002AF3D100BF002004B070BD9127000866
:102D00004128000841270008014691F83D0021288C
:102D100028D18868B0F5805F0BD1086948B90A6A84
:102D20001088C0F308000B685860086A801C0862AD
:102D300005E00B6A581C086218780B685860C88C4C
:102D4000401E80B2C88458B90868C06820F080006E
:102D50000B68D8600868C06840F040000B68D86015
:102D6000002070470220FCE710B5034800F008F887
:102D70000148FFF753F910BD0004002000BFFEE733
:102D800038B5044620680068C0F3001098B100BF51
:102D90000020009020680068009020684068009043
:102DA00000BF00BF04490548FDF7F9FBFF220349B6
:102DB0002046FFF74BFB38BD94020020AE020020F6
:102DC00002480068C0F30220704700000CED00E0EC
:102DD00010B5002804DB0A07130E054A135406E059
:102DE0000A07140E034A00F00F031B1FD45410BD32
:102DF00000E400E018ED00E000B58BB00120099080
:102E0000002007900120089000200190029003907C
:102E100004900690059001A90548FDF795FC04482B
:102E2000FEF7E1F802210248FDF7CEFB0BB000BD32
:102E3000B003002070B5044694ED000AF3EE0E0ACC
:102E400020EE200ADFED450A80EE201A444880ED8E
:102E5000011A94ED010AF3EE0E0A20EE200ADFEDCE
:102E60003F0A80EE201A80ED1A1A94ED020AF3EE62
:102E70000E0A20EE200ADFED390A80EE201A80EDDE
:102E8000331A94ED030AF3EE0E0A20EE200ADFED6A
:102E9000330A80EE201A80ED4C1A32480068B0F9EF
:102EA000020000EE900AF8EEE00AB0EE600A2C484C
:102EB000016E88472B484068B0F9020000EE900A86
:102EC000F8EEE00AB0EE600A2548D0F8C41064308D
:102ED000884724488068B0F9020000EE900AF8EEB6
:102EE000E00AB0EE600A1E48D0F82811C8308847C2
:102EF0001C48C068B0F9020000EE900AF8EEE00A43
:102F0000B0EE600A1648D0F88C1100F5967088472C
:102F1000134D95ED570ABDEEC00A10EE105A2BB2B4
:102F20000F4D95ED3E0ABDEEC00A10EE105A2AB2C2
:102F30000B4D95ED250ABDEEC00A10EE105A29B2D0
:102F4000074D95ED0C0ABDEEC00A10EE105A28B2DE
:102F5000FDF770FA0220FEF7C7FA70BDDA0F49409C
:102F6000AC000020840200203EB500242BE004EBDE
:102F7000C40101EB0411154A02EB810000F06CF969
:102F800000204FF4FA51CDE9000104EBC40101EB3C
:102F900004110E4A029002EB810004EBC40101EB24
:102FA000041102EB8101DFED0A1A9FED0A1AF2EE1D
:102FB000040AB2EE040A41F288334FF480428D6D68
:102FC0000121A847641C042CD1DB3EBDAC000020CD
:102FD000000000000AD7A33C10B5002000F076F8EE
:102FE00008490860012000F071F806494860022095
:102FF00000F06CF803498860032000F067F801498D
:10300000C86010BD840200201FB500200090019010
:10301000029003906846074991ED001A0649D1EDE8
:10302000000A064991ED000A00F00AF86846FFF729
:1030300001FF1FBD1C00002018000020140000200C
:103040009FED202AF0EE401A42EE011AB3EE032A59
:1030500061EE821A9FED1C2AC1EE822AC0ED002A81
:103060009FED182AF0EE601A42EE411ABBEE032AD9
:1030700061EE821A9FED142AC1EE822AC0ED012A68
:103080009FED102AF0EE401A42EE411ABBEE032AE1
:1030900061EE821A9FED0C2AC1EE822AC0ED022A4F
:1030A0009FED082AF0EE601A42EE011AB3EE032AF1
:1030B00061EE821A9FED042AC1EE822AC0ED032A36
:1030C00070470000AFB2FEBEE3A59B3D014601F094
:1030D000030000EB8000024A02EB40007047000052
:1030E00034000020FEF726FBFFF7BAFAFFF736FAA6
:1030F000FFF718FAFFF7D0F9FFF7F2F9FFF78AFAAE
:10310000FFF77AFE0D48FDF76EFF02210B48FDF731
:103110005BFAFFF729FF0A480068C06840F010001A
:1031200007490968C860FF2206490548FFF78EF97C
:1031300003E0FFF769FFFFF74FFFFAE7B003002056
:1031400000040020AE020020F0EE400AC0ED060AA6
:1031500090ED070A80ED080A90ED0C0A80ED0D0A4B
:1031600090ED010A90ED061A30EE410A80ED070A53
:1031700090ED070AB0EEC00A90ED101AB4EEC10A45
:10318000F1EE10FA65DD90ED030A90ED071A20EEDE
:10319000010A80ED090A90ED0A0A90ED041AD0EDBB
:1031A000071A01EE210A80ED0A0A90ED070A90ED58
:1031B000081A30EE410A90ED051A20EE010A80ED62
:1031C0000B0A90ED0A0A90ED0F1AB4EEC10AF1EE67
:1031D00010FA03DD90ED0F0A80ED0A0A90ED0A0A5D
:1031E00090ED0F1AB1EE411AB4EEC10AF1EE10FAE9
:1031F00005D290ED0F0AB1EE400A80ED0A0A90ED7B
:10320000090A90ED0A1A30EE010A90ED0B1A30EE21
:10321000010A80ED0C0A90ED0C0A90ED0E1AB4EE46
:10322000C10AF1EE10FA03DD90ED0E0A80ED0C0AF2
:1032300090ED0C0A90ED0E1AB1EE411AB4EEC10AEF
:10324000F1EE10FA05D290ED0E0AB1EE400A80EDD3
:103250000C0A90ED0C0A7047034981650349C1656A
:10326000034901667047000075320008D13200083A
:10327000493100089DED002ADDED012A9DED023A5D
:103280000170F8EE423AC0ED113A80ED100A03EEFB
:10329000903AF8EE633AC0ED0F3A03EE902AF8EE5A
:1032A000633AC0ED0E3AF8EEE23AC0ED123AF8EEAB
:1032B000C33AC0ED013AC0ED030A80ED041AC0ED37
:1032C000051ADFED023AC0ED0C3A7047000000002D
:1032D00080ED030AC0ED040A80ED051A70474FF037
:1032E0004070E1EE100A7047000610160006101636
:1032F00000000000000000000102030406070809A6
:103300000000000001020304283300080000002030
:1033100034000000C40100085C33000834000020C1
:10332000D4100000E00100080000000000000000D0
:10333000000000000000000000000000000000008D
:10334000000000000000000000000000000000007D
:0C33500010000000010000000024F40048
:040000050800018965
:00000001FF
