:020000040800F2
:10000000A05C002029020008BD4D0008F945000849
:10001000B94D000821050008D95A00080000000069
:10002000000000000000000000000000614E000819
:100030008106000800000000F14D0008C54E0008D0
:10004000430200084302000843020008430200087C
:10005000430200084302000843020008430200086C
:10006000430200084302000843020008430200085C
:10007000430200084302000843020008430200084C
:100080009D050008430200084302000843020008DF
:100090002505000843020008430200084302000847
:1000A000430200084302000843020008430200081C
:1000B000430200084302000843020008430200080C
:1000C00043020008430200084302000843020008FC
:1000D000430200081D5A00082D5A00084302000878
:1000E0008506000843020008430200084302000896
:1000F00043020008430200084302000843020008CC
:1001000043020008430200084302000843020008BB
:100110004302000843020008994F0008A94F000855
:10012000430200084302000843020008430200089B
:10013000430200084302000843020008430200088B
:10014000430200084302000843020008430200087B
:10015000430200084302000843020008430200086B
:10016000430200084302000843020008430200085B
:100170004302000843020008430200080000000098
:10018000430200084302000800F002F800F03CF8C7
:100190000AA090E8000C82448344AAF10107DA45E2
:1001A00001D100F031F8AFF2090EBAE80F0013F0F8
:1001B000010F18BFFB1A43F001031847CC80000061
:1001C000EC800000103A24BF78C878C1FAD85207F2
:1001D00024BF30C830C144BF04680C6070470000C1
:1001E0000023002400250026103A28BF78C1FBD840
:1001F000520728BF30C148BF0B6070471FB507F0DA
:1002000015FF1FBD10B510BD00F054F91146FFF7E2
:10021000F5FF05F053FE00F072F903B4FFF7F2FFAB
:1002200003BC00F075F90000094880470948004701
:10023000FEE7FEE7FEE7FEE7FEE7FEE7FEE7FEE796
:10024000FEE7FEE704480549054A064B70470000F3
:10025000854F000889010008A0500020A05C002004
:10026000A0540020A054002053EA020C00F0698042
:100270002DE9F04B4FF00006002B1FBFB3FA83F5BA
:1002800003FA05F424FA05F65E4012BF1643B2FAEB
:1002900082F502FA05F4C5F120051EBF22FA05FC1D
:1002A00044EA0C04203556EA044C4FEA144418BFC3
:1002B000641C4FF000084FF00009904271EB030CF2
:1002C00039D3002919BFB1FA81F701FA07F6B0FA5C
:1002D00080F700FA07F6C7F120071EBF20FA07FCD7
:1002E00046EA0C062037B6FBF4FCA7EB0507103FE7
:1002F00007F01F0BCBF120062CFA06F60CFA0BFBCD
:1003000044BFB3460026202FA4BF5E464FF0000B2B
:100310005BEA060C08BF4FF0010B19EB0B0948EB29
:100320000608ABFB027C06FB02CC0BFB03CCC01B1C
:1003300071EB0C01C1E70B46024641464846BDE859
:10034000F08B13B5084318BF4FF0FF300146AFF3F1
:100350000080BDE81C407047032A40F2308010F056
:10036000030C00F0158011F8013BBCF1020F624450
:1003700098BF11F801CB00F8013B38BF11F8013BE1
:10038000A2F1040298BF00F801CB38BF00F8013B8E
:1003900011F0030300F02580083AC0F0088051F8FE
:1003A000043B083A51F804CBA0E80810F5E7121D09
:1003B0005CBF51F8043B40F8043BAFF30080D20728
:1003C00024BF11F8013B11F801CB48BF11F8012BF4
:1003D00024BF00F8013B00F801CB48BF00F8012B17
:1003E000704710B5203AC0F00B80B1E81850A0E873
:1003F0001850B1E81850A0E81850203ABFF4F5AFF3
:100400005FEA027C24BFB1E81850A0E8185044BF4E
:1004100018C918C0BDE810405FEA827C24BF51F8BB
:10042000043B40F8043B08BF7047D20728BF31F8AF
:10043000023B48BF11F8012B28BF20F8023B48BF00
:1004400000F8012B704702F0FF0343EA032242EA5F
:10045000024200F002B84FF0000200B51346944685
:100460009646203922BFA0E80C50A0E80C50B1F10C
:100470002001BFF4F7AF090728BFA0E80C5048BF20
:100480000CC05DF804EB890028BF40F8042B08BFBE
:10049000704748BF20F8022B11F0804F18BF00F8BA
:1004A000012B704770477047704700000048704745
:1004B000100000207546FFF7F9FFAE4605006946BB
:1004C000534620F00700854618B020B5FFF7BAFE66
:1004D000BDE820404FF000064FF000074FF0000845
:1004E0004FF0000BAC46ACE8C009ACE8C009ACE882
:1004F000C009ACE8C00921F007018D46704710B56E
:100500000446AFF300802046BDE81040FFF785BEEB
:1005100001491820ABBEFEE726000200704700002C
:10052000FEE7000080B540F22830C2F2000000F083
:1005300009FB80BD10B582B040F2801CC2F2000CF5
:100540004FF4007ECCF800E04FF0000ECCE902EE54
:1005500040F2781E0824C2F2000ECCF81040040AC3
:100560008EF80100080A8EF80200100A8EF80400C6
:10057000180A8EF8060040F228308EF803108EF824
:1005800005208EF80730C2F2000001AB61467246CA
:100590008EF8004000F0B2F802B010BD80B540F215
:1005A0007830C2F2000000F063FE80BDD0F800C0D9
:1005B0006FF00F024AF6AB2352FA8CF2CAF6AA2366
:1005C0000146A2FB0330000905A31B5C40F2FF308B
:1005D0002CEA00005F2A88BF0430C1E91603704787
:1005E00000061016000610168269816AB2F5005FD7
:1005F00006D06AB9022912D0012914D0D1B90EE06F
:10060000032917D8DFE801F0020B020F0120704721
:1006100003293CBF012070471CBF00207047C06AFF
:10062000C0F300607047C06AA0F1C070B0FA80F0FB
:10063000400970470020704780B5D0F800C0D0F85E
:1006400008E0DCF80000BEF1400F20F48020CCF878
:1006500000000846CCF8043004BF10460A46CCF827
:100660000800CCF80C2080BD002200BF30F812300A
:100670001BBA1B0C21F8123001320D2AF6D170473B
:100680007047000080B54FF4006001F0D1F84FF4DE
:10069000805001F0CDF84FF4804001F0C9F84FF4DC
:1006A000004001F0C5F880BDEFF3108072B600BFC6
:1006B000FEE7000070B5054690F8206048F68070AF
:1006C000C0F203000C46814207D348F2BF00C0F6D7
:1006D00000004FF4D06105F07FFA701E012804D8A5
:1006E000286800F11401002004E005F12401012034
:1006F0004FF480240A6822430A6070BD2DE9F0435C
:1007000081B0054690F8207000680E4684688868BD
:10071000994640F004000428904607D048F2BF00F4
:10072000C0F6000040F2E94105F056FAF06840F0EA
:100730000200022807D048F2BF00C0F6000040F2D5
:10074000EA4105F049FA3069092807D348F2BF00A9
:10075000C0F6000040F2EB4105F03EFAB06850B13F
:100760007068B0F1005F12D348F2BF00C0F600001D
:1007700040F2F24109E03068B0F5006F07D348F26B
:10078000BF00C0F6000040F2EE4105F025FA307DD2
:10079000022807D348F2BF00C0F6000040F2F4413F
:1007A00005F01AFA781E01280CD814F0E05F0FD07B
:1007B000C4F30160032811D105F1240101204FF495
:1007C000000236E005F1240101204FF4802230E0E0
:1007D00005F1240101204FF400122AE0012181409B
:1007E000C9F80010B16819B1726841EAC20101E0AC
:1007F00031684905D6E903232F68114307EB001040
:10080000C0F88011C0F88431317D012905D100F58F
:10081000C2710A6842F480720A60D8F80410C0F805
:100820008C11D8F8002000F5C071C0F88821002094
:1008300001220B681A430A6001B0BDE8F083000092
:10084000F0B581B090F82020013A012A00F29D8095
:1008500008680C46B0F5803F07D348F2BF00C0F6E9
:1008600000004FF4547105F0B7F96068B0F5803FAF
:1008700007D348F2BF00C0F6000040F2513105F046
:10088000ABF9A068B0F5803F07D348F2BF00C0F6CF
:10089000000040F2523105F09FF9274657F80C0F3F
:1008A000B0F5803F07D348F2BF00C0F6000040F229
:1008B000533105F091F9A069022807D348F2BF002F
:1008C000C0F600004FF4557105F086F9E069022882
:1008D00007D348F2BF00C0F6000040F2553105F0E2
:1008E0007BF92069022807D348F2BF00C0F6000058
:1008F00040F2563105F070F9206A022807D348F219
:10090000BF00C0F6000040F2573105F065F960699C
:100910001C2807D348F2BF00C0F6000040F2723135
:1009200005F05AF9606A1C2807D348F2BF00C0F6E8
:10093000000040F2733105F04FF946F20060C4F256
:100940000000016841F001010160016821F47C515F
:1009500001606369E569616A0268012D42EA01216B
:10096000016003F01F014FF00102C66902FA01F1B4
:100970006FEA010226EA0106C6610DD0EDB9C6682C
:1009800006EA02053E4627460AE0416A41F4802114
:100990004162012001B0F0BDC66846EA0105264665
:1009A000C5603668A58800EBC30345EA06461E64A9
:1009B000A6683F8847EA06475F644368A56943EA3B
:1009C00001072669246A002D08BF03EA0207476071
:1009D0004369002E43EA010708BF03EA0207012C1E
:1009E000476102D1C2691143C161016821F001016F
:1009F0000160002001B0F0BD704700002DE9F0411A
:100A000090F8206098460D4604460229174607D301
:100A100048F2BF00C0F600004FF4BE6105F0DCF8FC
:100A2000701E01280AD8206875B1006980070ED1B0
:100A300004F1240101204FF4001277E004F12401B5
:100A400001204FF4802271E0C068800773D02068D5
:100A500000EB0510D0F8B01111F00401B960D0F826
:100A6000B02100F5D87119BFD2087A60520D3A60F2
:100A70000968002D01F00201F960D0F8B4114FF0BF
:100A8000200201F00F013961D0F8B411C1F3072140
:100A9000B961D0F8B4114FEA11417961D0F8B801C9
:100AA00088F80000206800EB0510D0F8B8014FEA84
:100AB000102088F80100206800EB0510D0F8B8017C
:100AC0004FEA104088F80200206800EB0510D0F8CB
:100AD000B8014FEA106088F80300206800EB0510A9
:100AE000D0F8BC0188F80400206800EB0510D0F8AD
:100AF000BC014FEA102088F80500206800EB0510C3
:100B0000D0F8BC014FEA104088F80600206800EBDE
:100B10000510D0F8BC014FEA106088F80700206883
:100B200014BF00F1100100F10C0100200B681A4302
:100B30000A60BDE8F08104F1240101204FF40012A5
:100B4000F4E700002DE9F04F81B0044600684669E3
:100B5000D0F804908768D0F80CB0D0F810A0D0F886
:100B60001880F10703D1002530071CD423E0F907D2
:100B700010D00121BA07816009D4780700F1AA805A
:100B8000380700F1B080204600F012FB02E020465A
:100B900000F010FB0025F80500F18480F80300F157
:100BA000AA80300707D51BF0100004D0206845F458
:100BB00000751021C160700708D51BF0080005D032
:100BC00020680821C160204600F086FAB00706D5EB
:100BD0002068C068800702D0204600F07FFA7006C7
:100BE00007D51AF0100004D0206845F48065102164
:100BF0000161B00608D51AF0080005D02068082168
:100C00000161204600F0A0FAF00606D520680069D0
:100C1000800702D0204600F099FAB00308D519F0F9
:100C2000100005D0206810214160204600F090FAA5
:100C3000F00308D519F0080005D0206808214160AC
:100C4000204600F0C1FA300440F18F805FEA49701D
:100C500040F1888006F4807008EA102028435FEA9B
:100C60008871014648BF41F00201B20558BF0146F4
:100C70005FEA48700D4648BF45F00405700558BF4F
:100C80000D4630056ED518F070006BD01038000995
:100C9000052862D8DFE800F0035356595C5F45F041
:100CA00008055AE020684FF48071BA0581600AD4C3
:100CB000780512D4380519D4204600F07DFAF803DF
:100CC0007FF56FAF17E0204600F078FAF8037FF564
:100CD00068AF10E04FF400655DE705F50055F803D7
:100CE0007FF55FAF07E04FF4805554E705F5804589
:100CF000F8037FF556AF20684FF48031BA03816066
:100D00000AD478030FD4380313D4204600F058FADD
:100D100030073FF548AF4EE7204600F053FA300762
:100D20003FF541AF47E705F5004530073FF53BAFDD
:100D300041E705F5803530073FF535AF3BE745F036
:100D400010050AE045F0200507E045F0400504E005
:100D500045F0800501E045F480752068816921F047
:100D6000700181612068042141602DB1606A2843CF
:100D700060622046FFF740FE01B0BDE8F08F000042
:100D8000B0B5002800F0B2800446006846F2004189
:100D9000C4F2000188420DD046F60001C4F2000101
:100DA000884207D048F2BF00C0F6000040F21D1193
:100DB00004F012FF207E022807D348F2BF00C0F6DD
:100DC00000004FF48F7104F007FF607E022807D304
:100DD00048F2BF00C0F6000040F21F1104F0FCFE14
:100DE000A07E022807D348F2BF00C0F600004FF4EF
:100DF000907104F0F1FEE07E022807D348F2BF00B4
:100E0000C0F6000040F2211104F0E6FE207F022827
:100E100007D348F2BF00C0F600004FF4917104F010
:100E2000DBFE607F022807D348F2BF00C0F6000057
:100E300040F2231104F0D0FEA068800007D048F2F1
:100E4000BF00C0F600004FF4927104F0C5FEE068E8
:100E50004FEA3060042807D348F2BF00C0F6000014
:100E600040F2251104F0B8FE20694FEA3040102806
:100E700007D348F2BF00C0F600004FF4937104F0AE
:100E8000ABFE6069B0F5E00F0BD04FEA3050072899
:100E900007D348F2BF00C0F6000040F2271104F06B
:100EA0009BFE60680138B0F5806F07D348F2BF0041
:100EB000C0F600004FF4947104F08EFE94F8200008
:100EC00010B9204600F070F82068016841F0010177
:100ED000016000F02FFE054620684168C90707D170
:100EE00000F028FE401B0B28F6D312E00120B0BD15
:100EF000016821F00201016000F01CFE054600BF00
:100F00002068416889070DD500F014FE401B0B28AE
:100F1000F6D3606A052140F400306062012084F855
:100F20002010B0BD217E0268012922F0800208BF96
:100F300080320260617E0268012922F0400208BF0F
:100F400040320260A17E0268012922F0200208BF1F
:100F500020320260E17E0268012922F0100218BFEF
:100F600010320260217F0268012922F0080208BFC6
:100F700008320260617F0268012922F0040208BF82
:100F800004320260D4E901C2D4E9033561691A432D
:100F90002A431143ACF101021143C1610020012138
:100FA000606284F82010B0BD80B586B0006846F657
:100FB0000002C4F2000200219042CDE90411CDE903
:100FC0000211019146D046F20041C4F2000188426C
:100FD00040F0808040F27001C2F200010A6843F6DE
:100FE0004000C4F20200531C0B6052B90021009172
:100FF000016841F000710160016801F00071009129
:1010000000990021009150F8102C42F0080240F89D
:10101000102C50F8100C022200F0080000900098EC
:101020000320019004900920059040F20040C4F292
:101030000200CDE9022100F5006001A900F006FCE4
:1010400014200A21002200F031FE142000F01EFEC0
:1010500006B080BD43F64000C4F202000091016872
:1010600041F080610160016801F0806100910099A8
:1010700040F27001C2F200010A68531C0B6052B9C1
:1010800000210091016841F000710160016801F0E8
:101090000071009100990021009150F8102C42F04D
:1010A000020240F8102C50F8100C00F002000090E2
:1010B00000984FF4405001900220CDE90201032036
:1010C00004900920059040F20040C4F2020001A9FA
:1010D00000F0BCFB06B080BD7047000080B58AB050
:1010E00003AA01AB0021FFF789FC0398A0F20121BC
:1010F000062920D80138C1B2BDF80420890051FA70
:1011000080F040F2BA6112BAC2F20001120C31F85A
:10111000103021F8102001EB4000BDF80610BDF89A
:10112000082009BA090C418011BA9DF80A20090C5F
:1011300003818180827140F22830C2F200000221D6
:10114000FFF7B8FA0AB080BD704700007047000092
:1011500070470000B0B5044690F8200001281DD16A
:10116000022084F820002068016821F0010101605C
:1011700000F0E0FC054600BF20684068C00713D0BF
:1011800000F0D8FC401B0B28F6D3606A40F4003016
:101190006062052084F820000120B0BD606A40F440
:1011A000002060620120B0BD00206062B0BD000080
:1011B0007047000070470000704700007047000053
:1011C00070470000704700007047000070B5866DE2
:1011D000044600F0AFFC94F83510022925D10546ED
:1011E0002068216C026822F016020260426922F037
:1011F0008002426109B9A16C19B1016821F00801AE
:101200000160016821F00101016000BF20680068F1
:10121000C0070ED000F08EFC401B0628F6D320201D
:101220006065032084F835000CE0802060650120B3
:1012300008E0E06D3F2101FA00F0B060012084F881
:1012400035000020002184F8341070BD90F835106E
:10125000022909D1052180F835100068016821F0C4
:101260000101016000207047802141650120704725
:10127000F0B581B004460020009040F20000C2F2B8
:1012800000000268D4E9166048F2B51337680821F7
:10129000C1F64E3381403942A2FB03250CD02268AF
:1012A00013685B0708D5136823F004031360B1606B
:1012B000616D41F00101616501218140394208D031
:1012C00022685269120604D5B160616D41F00201D5
:1012D000616504218140394208D022681268920772
:1012E00004D5B160616D41F0040161651021814058
:1012F000394215D020680268120711D5B160026822
:101300000168520306D4C90506D4016821F008011A
:10131000016001E0080342D4216C09B120468847EE
:10132000E16D202000FA01F23A4244D020680368BF
:10133000DB0640D5B26094F835300268052B1ED12B
:1013400022F016020260426922F080024261226CA1
:101350000AB9A26C1AB1026822F0080202603F20AA
:101360008840B060012084F83500216D00200029FC
:1013700084F8340040D02046884701B0F0BD0168B1
:10138000520310D4C90512D4016821F01001016084
:10139000012084F83500002084F8340007E0A16CB7
:1013A0000029BBD1BCE7080301D4616C00E0E16B0C
:1013B00009B120468847606DF0B1606DC00717D055
:1013C000052084F835002068A90A026822F001028D
:1013D000026000BF009A01328A42009202D802687D
:1013E000D207F7D1012084F83500002084F83400BA
:1013F000E16C09B12046884701B0F0BD2DE9F0410C
:10140000044600F097FBE4B10546206846F20F4120
:10141000C4F20201884217DC46F26F01C4F20201F5
:10142000884226DC46F23F01C4F2020188423EDCDB
:1014300046F21001C4F20201884260D046F228014F
:1014400058E00120BDE8F08146F26F41C4F202018C
:1014500088421DDC46F23F41C4F2020188422FDC83
:1014600046F21041C4F20201884248D046F22841B7
:1014700040E046F29F01C4F20201884229DC46F2B4
:101480007001C4F20201884239D046F2880131E08D
:1014900046F29F41C4F20201884223DC46F27041C9
:1014A000C4F2020188422AD046F2884122E046F284
:1014B0004001C4F20201884221D046F2580119E0ED
:1014C00046F24041C4F20201884218D046F2584127
:1014D00010E046F2A001C4F2020188420FD046F2A9
:1014E000B80107E046F2A041C4F20201884206D0EA
:1014F00046F2B841C4F20201884240F00C816068B3
:10150000B0F1606F0AD04FEA7060072806D348F246
:101510006810C0F60000B82104F05EFBA068002847
:1015200018BF402840F0C880E06840F40070B0F573
:10153000007F06D048F26810C0F60000BA2104F01F
:101540004BFB206940F48060B0F5806F06D048F214
:101550006810C0F60000BB2104F03EFB6069002863
:1015600018BFB0F5006F40F0B280A069002818BF26
:10157000B0F5005F40F0B780E069002818BF202870
:1015800040F0BD80206A4FEA3040042806D348F27C
:101590006810C0F60000BF2104F01EFB606A40F036
:1015A0000400042806D048F26810C0F60000C021EC
:1015B00004F012FB606A08B3A06A042806D348F25C
:1015C0006810C0F60000C52104F006FBE06A4FEA8F
:1015D000F050042806D348F26810C0F60000C62177
:1015E00004F0FAFA206B4FEA7050042806D348F250
:1015F0006810C0F60000C72104F0EEFA022084F85B
:1016000035000020216884F83400086820F00100CB
:10161000086000BF26683068C00708D000F08AFA6A
:10162000401B0528F6D90321202203203FE0306823
:1016300048F23F01CFF21001251D00EA010C2ECD2A
:10164000D4E9050E41EA0C01114319432943D4E9B9
:101650000778084340EA0E01606A3943042841EAEA
:10166000080103D1D4E90B23114319433160716997
:10167000042821F0070141EA00050CD1D4E90A1041
:1016800045EA010538B12046FEF7AEFF18B1012149
:10169000402201200BE020467561FEF787FFE16DD7
:1016A0003F2202FA01F181600022012100206265DF
:1016B00084F83510BDE8F08180283FF435AF48F25A
:1016C0006810C0F60000B92104F086FA2CE7B0F5E6
:1016D000805F3FF44AAF48F26810C0F60000BC21BA
:1016E00004F07AFA41E7B0F5804F3FF445AF48F295
:1016F0006810C0F60000BD2104F06EFA3CE7B0F5BA
:10170000807F3FF43FAF48F26810C0F60000BE2172
:1017100004F062FA36E748F26810C0F60000B7211C
:1017200004F05AFAEBE600002DE9F04116460446B3
:10173000D0F85880581E4FF6FF721D4690420F4653
:1017400007D348F26810C0F6000040F2CB1104F055
:1017500043FA94F8340001282CD0012084F8340096
:1017600094F83500012822D1022084F835000020A9
:1017700060652046394632462B46FEF75DFFE26D36
:101780003F23206803FA02F2216CC8F8082002689F
:1017900042F01602026019B1016841F008010160CF
:1017A000016841F0010101600020BDE8F0810020E6
:1017B00084F834000220BDE8F0810000B0B5044692
:1017C00000F0B8F9054640F20400C2F200000078CB
:1017D000611C18BF044400BF00F0ACF9401BA042DC
:1017E000FAD3B0BD40F2D831B0F5804FC2F200015B
:1017F00006DAB0F5006F09D0B0F5805F0ED0704703
:1018000010D0B0F5004F18BF704703E00868002201
:101810004263826308680022C2630264086800228F
:101820004263826308680021C1630164704700005D
:1018300080B543F61441C4F201010A68024208BFB0
:1018400080BD0860FFF7CEFF80BD00002DE9F04F9E
:1018500085B0844600F13E4000F1FF704FEAB020B1
:1018600009280D460390CDF804C008D348F22F1084
:10187000C0F60000AC2104F0AFF9DDF804C0286820
:101880000021B1EB104F01D180B240B948F22F10C6
:10189000C0F60000AD2104F09FF9DDF804C06868CF
:1018A000B0F5881F80F20081122800F21781012113
:1018B00001FA00F00F21C0F20601084200F00E818B
:1018C00041F60040C4F2020008214FF0010E03244B
:1018D0004FF0000B4FF0000A0027844508BF072196
:1018E000029107E001370AF1040A102F0BF1020BF5
:1018F00000F0D78028680EFA07F910EA0908F1D03D
:10190000686800F003000138012823D8E86804283B
:101910000AD348F22F10C0F60000C02104F05CF991
:10192000DDF804C04FF0010EDCF8080004FA0BF1FA
:101930008843E9686A6801FA0BF10843CCF80800AB
:10194000DCF80400C2F3001120EA0900B9400843A2
:10195000CCF80400686800F00300032818D0A868D9
:1019600003280AD348F22F10C0F60000D12104F05A
:1019700033F9DDF804C04FF0010EDCF80C00AA6862
:1019800004FA0BF1884302FA0BF10843CCF80C007F
:10199000686800F00300022812D128690E2872D26C
:1019A0006FF0030000EA57006044016A0AF01C026D
:1019B0000F232E699340994306FA02F21143016204
:1019C000DCF800006A6804FA0BF1884302F00301B6
:1019D00001FA0BF1084312F4403FCCF800003FF449
:1019E00081AF002043F644010490C4F2020108686C
:1019F00043F6004440F4804008600868C4F20104E3
:101A000000F480400490049827F003004FF6084942
:101A10002044CFF6FF7950F809100AF00C020F238A
:101A20009340039E9943029B072E38BF334603FA27
:101A300002F2114340F80910A068696840EA080200
:101A400043F60C46CB0258BF20EA0802A260C4F25B
:101A5000010630688B0240EA080258BF20EA0802FB
:101A6000326060688B0340EA080258BF20EA08022F
:101A700062602068C90340EA080158BF20EA0801F3
:101A8000216003242EE70F288AD048F22F10C0F6D9
:101A90000000DE2104F0A0F8DDF804C04FF0010ED4
:101AA0007EE705B0BDE8F08FB0F5081F0CDAB0F5A1
:101AB000881F3FF405AFB0F5901F3FF401AFB0F5BC
:101AC000041F3FF4FDAE09E03FF4FAAEB0F5441F49
:101AD0003FF4F6AEB0F5481F3FF4F2AE48F22F10D7
:101AE000C0F60000AE2104F077F8DDF804C0E7E6A8
:101AF00070B516460C46054621B16EB1012E0ED1C9
:101B0000AC6170BD48F22F10C0F6000040F29D118C
:101B100004F062F8002EF1D12404AC6170BD48F2EB
:101B20002F10C0F600004FF4CF7104F055F8AC61EF
:101B300070BD000044F6A400C2F2000000687047C7
:101B400040F2040044F6A401C2F20000C2F2000117
:101B500000780A68104408607047000080B543F6BA
:101B60000040C4F20200016841F4007101600168A4
:101B700041F480610160016841F4807101600320DB
:101B800000F0B6F80F2000F005F800F05BF8002038
:101B900080BD000070B586B0002543F64001019578
:101BA000C4F202010A68044642F020020A60096891
:101BB00001A801F0200101910199694600F0C0F9E6
:101BC000049E002E18BF012600F0E0F94DF6836157
:101BD000B040C4F21B31A0FB01014FF0FF3000EB1D
:101BE000914140F2D05041F20042C2F20000C4F2F2
:101BF000000240F2E733C0E90021C0E90253056169
:101C0000856100F0D1FD0546C0B940F2D050C2F266
:101C1000000000F0FFFE054680B9372000F036F8DE
:101C20000F2C0AD837202146002200F03FF840F25E
:101C30000800C2F20000046000E00125284606B05A
:101C400070BD000080B582B0002043F640010190D5
:101C5000C4F202014A6842F480424A604A6802F4CF
:101C600080420192019A00900868002240F0805062
:101C7000086008680F2100F08050009000986FF015
:101C8000010000F013F802B080BD000010B504465A
:101C9000B0F1FF3F06DC48F2A010C0F60000BC2106
:101CA00003F09AFF204603F055FF10BD70B51546AE
:101CB0000E46102A044606D348F2A010C0F60000D3
:101CC000A82103F089FF102E06D348F2A010C0F619
:101CD0000000A92103F080FF03F04CFF31462A46A3
:101CE00003F070F80146204603F04CFF70BD000081
:101CF00010B504460338052806D348F2A010C0F6F4
:101D00000000902103F068FF204603F055FF10BD4E
:101D1000704700002DE9F041002800F0DB80044608
:101D200000680D4601380F2807D348F2F700C0F6C7
:101D3000000040F25A2103F04FFF082D07D348F26C
:101D4000F700C0F6000040F25B2103F045FF43F6C8
:101D50000808C4F20208D8F8F80300F00700A84207
:101D600008D288F8F853D8F8F80300F00700A84222
:101D700040F0B080206881071FD5410705D5D8F80D
:101D8000001041F4E051C8F80010000705D5D8F85C
:101D9000000040F46040C8F80000A0686FF0070140
:101DA00001EB3011082980F0B680D8F80000A16856
:101DB00020F0F0000843C8F800002078C00764D184
:101DC000D8F8F80300F00700A84207D988F8F853BC
:101DD000D8F8F80300F00700A8427BD1207840072C
:101DE00019D5E0686FF0030101EBB02104290AD393
:101DF0004FEAB02038B148F2F700C0F6000040F2D8
:101E0000C32103F0E9FED8F80000E16820F4E050B7
:101E10000843C8F80000207800071AD520696FF041
:101E2000030101EBB02104290AD34FEAB02038B1F5
:101E300048F2F700C0F6000040F2CA2103F0CCFEE1
:101E4000D8F80000216920F4604040EAC100C8F8D9
:101E5000000000F0BFF8D8F8001048F24602C1F3C5
:101E60000311C0F60002515C40F2000220FA01F1B9
:101E700040F20800C2F200000068C2F200021160E5
:101E8000FFF788FE0020BDE8F0816068042807D3D2
:101E900048F2F700C0F6000040F2852103F09CFEF6
:101EA0006068811E022907D258F8081C89015CBFAE
:101EB0000120BDE8F08110E0012807D158F8081C86
:101EC00089035CBF0120BDE8F08106E058F8081CDA
:101ED000890702D40120BDE8F081D8F8001021F074
:101EE00003010843C8F80000FFF724FE064641F24C
:101EF000883700BFD8F80000616800F00C00B0EB34
:101F0000810F3FF45DAFFFF715FE801BB842F1D99A
:101F10000320BDE8F0814FEA301000283FF445AFC0
:101F200048F2F700C0F6000040F27E2103F054FEB4
:101F30003BE700004C20C4F24720012101607047BC
:101F40000F22026043F60802C4F20202136803F093
:101F500003034360136803F0F0038360136803F422
:101F6000E053C360D2F800C04FF4E05303EADC034F
:101F70000361D2F8F80300F0070008607047000022
:101F800040F20000C2F200000068704780B5FFF721
:101F9000F7FF43F60801C4F20201096848F256024D
:101FA000C1F38221C0F60002515CC84080BD000030
:101FB00080B5FFF7E5FF43F60801C4F202010968A6
:101FC00048F25602C1F34231C0F60002515CC840EB
:101FD00080BD000010B543F60404C4F2020460683A
:101FE00000F00C0142F200400829C0F2F40007D0D2
:101FF000042918BF10BD41F20020C0F27A0010BDC4
:10200000216801F03F02216823684902C3F3881167
:1020100005D4A1FB00010023FEF726F906E041F2FA
:102020000020C0F27A004843B0FBF2F0216802229F
:10203000C1F3014102EB4101B0FBF1F010BD000022
:1020400010B543F60C04C4F202042068000658BF21
:1020500010BDFFF75DFE8020A07010BD2DE9F0419E
:1020600082B0002800F0DF8004460068102806D304
:1020700048F2F700C0F60000E62103F0ADFD20783D
:1020800043F60006C007C4F2020655D06068002877
:1020900018BFB0F5803F22D1B06800F00C000428D2
:1020A00006D13068800347D56068002844D1BAE083
:1020B000B06800F00C00082802D170684002F0D42B
:1020C0006568B5F5A02F15D0B5F5803F16D03068FE
:1020D00020F480303060306820F4802011E0B0F5CA
:1020E000A02FD9D048F2F700C0F60000EB2103F092
:1020F00073FDD1E7306840F480203060306840F4F0
:1021000080303060FFF716FD002D054611D000BF6E
:102110003068800310D4FFF70DFD401B6428F7D909
:1021200096E100BFFFF706FD401B64284FF0030057
:1021300076D830688003F5D42078800730D5E06801
:10214000022807D348F2F700C0F6000040F21D1144
:1021500003F042FD2069202807D348F2F700C0F6BB
:1021600000004FF48F7103F037FDB06810F00C0FD2
:1021700009D0B06800F00C00082840F0B280706808
:10218000400200F1AE803068800702D5E068012887
:1021900049D13068216920F0F80040EAC100306080
:1021A0002078000743D42078400762D4A069032830
:1021B00007D348F2F700C0F6000040F2CD1103F05B
:1021C0000BFDA06958B3B16801F00C01082940F07B
:1021D000BF80012827D07068E16900F480028A423C
:1021E00021D1216A00F03F028A421CD147F6C0711A
:1021F000626A0140B1EB821F15D1A26A0023CFF6BB
:10220000FF7303EBC23200F440316FF30F029142CF
:1022100009D1E16A00F07060B0EB016F03D10020DA
:1022200002B0BDE8F081012002B0BDE8F081606934
:10223000022807D348F2F700C0F600004FF4AF7150
:1022400003F0CAFC6069002840F26000C4F2472035
:102250006DD00121C0F8201EFFF76CFC054600BFC1
:10226000706F80079FD4FFF765FC401B0228F7D9E9
:10227000EEE0A068052805D8012101FA00F010F071
:10228000230F07D148F2F700C0F600004FF4C571E4
:1022900003F0A2FC306C10F080580AD100200190AD
:1022A000306C40F080503064306C00F08050019011
:1022B000019847F20007C4F200073868C00527D428
:1022C000386840F480703860FFF734FC054600BF82
:1022D0003868C0051CD4FFF72DFC401B0228F7D935
:1022E000B6E0E068002800F086806020C4F2472055
:1022F000012140F8601CFFF71DFC0546306880078F
:102300003FF547AFFFF716FC401B0228F6D99FE0C8
:10231000A568052D00F08480012D00F08580306FC8
:1023200020F001003067306F20F004007FE00021D2
:10233000C0F8201EFFF7FEFB054600BF706F800748
:102340007FF531AFFFF7F6FB401B0228F6D97FE09F
:10235000022840F09580E06940F48000B0F5800FDD
:1023600007D048F2F700C0F600004FF4EB7103F01D
:1023700033FC206A402807D348F2F700C0F600007B
:1023800040F2D71103F028FC606A3238B0F5BF7F05
:1023900007D948F2F700C0F600004FF4EC7103F0E3
:1023A0001BFCA06A082800F2A180012101FA00F0BC
:1023B00010F4AA7F00F09A80E06A02380E2807D352
:1023C00048F2F700C0F600004FF4ED7103F004FC92
:1023D0006027C4F2472700203860FFF7ABFB0546B3
:1023E0003068800160D5FFF7A5FB401B02284FF045
:1023F0000300F5D914E76020C4F24720002140F81B
:10240000601CFFF797FB0546306880077FF5C8AE74
:10241000FFF790FB401B02284FF00300F4D9FFE6C2
:10242000306F40F004003067306F40F001003067DB
:10243000FFF780FB002D054641F2883714D000BF1E
:10244000306F800713D4FFF775FB401BB842F7D9F4
:10245000032002B0BDE8F081FFF76CFB401BB842DF
:102460004FF003003FF6DCAE306F8007F4D4B8F1D4
:10247000000F7FF49BAE306C20F08050306495E606
:102480006020C4F2472000210160FFF753FB04469F
:10249000306880017FF5C3AEFFF74CFB001B0228BC
:1024A0004FF00300F4D9BBE604F11C052FCD08431F
:1024B0000021CFF6FF7140EA821001EBC3316FF3C8
:1024C0000F0140EA05600843706001203860FFF7A3
:1024D00031FB0446306880013FF5A1AEFFF72AFBCF
:1024E000001B02284FF00300F4D999E648F2F700E8
:1024F000C0F6000040F2D91103F06EFB5CE700006B
:102500007047000070470000F0B581B007460068D2
:1025100040F2004240F48060C4F2010290420D4655
:1025200007D048F21320C0F6000040F2EE7103F02D
:1025300053FB286840F40060B0F5006F07D048F204
:102540001320C0F6000040F2EF7103F045FB68680D
:1025500040F48060B0F5806F07D048F21320C0F6D9
:1025600000004FF4FE6103F037FBA8684FEA30200B
:10257000042807D348F21320C0F6000040F2F1719E
:1025800003F02AFBE868B0F5807F07D348F21320F8
:10259000C0F6000040F2F27103F01EFB286940F41F
:1025A0008050B0F5805F07D048F21320C0F60000DD
:1025B00040F2F37103F010FB686940F40050B0F58D
:1025C000005F07D048F21320C0F6000040F2F4711B
:1025D00003F002FBE86940F48040B0F5804F07D07B
:1025E00048F21320C0F6000040F2F57103F0F4FA4F
:1025F00097F83C00012802D1022001B0F0BD95E817
:102600005F0023F47C5322F470521A4321F4F0410A
:10261000114320F4E040084324F4C0410843304310
:10262000E96920F480403A6808435064002087F844
:102630003C0001B0F0BD0000B0B50446006840F6B3
:10264000FF72C4F2000290420D460BDC40F2FF71B3
:10265000C4F20001884214DCB0F1804F31D040F266
:10266000004116E04FF6FF71C4F20001884215DC0C
:1026700041F20001C4F20001884222D041F200413F
:1026800007E040F60001C4F20001884219D040F68C
:102690000041C4F20001884213D00AE00021C4F2D4
:1026A000010188420DD040F20041C4F2010188428C
:1026B00007D048F21320C0F6000040F2B17103F0D9
:1026C0008BFA28684FEA3010082807D348F2132005
:1026D000C0F6000040F2B27103F07EFA686840F084
:1026E0008000802807D048F21320C0F6000040F296
:1026F000B37103F071FA94F83C0001284FF0020026
:1027000008BFB0BD012184F83C1084F83D0020686A
:10271000426881682B6822F070021A4341F2FF730D
:10272000C4F20003984242600DDC40F2FF72C4F232
:102730000002904215DCB0F1804F29D040F20042F7
:10274000C4F2000222E040F2FF32C4F201029042E1
:1027500012DC41F60002C4F20002904218D00022BE
:1027600012E040F60002C4F20002904210D040F69F
:102770000042C4F2000209E044F20002C4F2010285
:10278000904205D040F20042C4F20102904204D1CE
:102790006A6821F0800111438160012084F83D00C6
:1027A000002084F83C00B0BD002804BF0120704721
:1027B000B0B50446006841F6FF31C4F2000188421A
:1027C00016DC40F6FF31C4F20001884225DD41F2FB
:1027D000FF31C4F2000188423BDC40F60041C4F204
:1027E000000188424CD041F20001C4F2000145E0F2
:1027F00040F2FF31C4F2010188421CDD44F2FF3196
:10280000C4F2010188422FDC40F20041C4F2010110
:10281000884235D044F200012EE0B0F1804F2FD035
:1028200040F20041C4F20001884229D040F6000184
:10283000C4F2000122E041F60041C4F200018842E6
:102840001ED042F20001C4F20001884218D00021DB
:1028500012E041F20041C4F20001884210D041F67A
:102860000001C4F2000109E044F20041C4F2010198
:10287000884205D044F60001C4F2010188425AD1D1
:10288000A0684FEA301006284CD8012101FA00F068
:1028900010F0570F46D02069002818BFB0F5807F90
:1028A00034D1A069251D40F08000802807D048F26F
:1028B000DB10C0F600004FF48B7103F08DF994F833
:1028C0003D0028B9002084F83C00204600F03CF888
:1028D000022084F83D002068294602F06DFB0120AB
:1028E00084F8460084F83E0084F83F0084F84000F5
:1028F00084F8410084F8420084F8430084F84400DE
:1029000084F8450084F83D000020B0BDB0F5007F9C
:10291000C7D048F2DB10C0F6000040F2151103F0FA
:102920005BF9BEE748F2DB10C0F600004FF48A7195
:1029300003F052F9AFE748F2DB10C0F6000040F2B6
:10294000131103F049F99BE780B582B0006840F6A7
:10295000FF71C4F20001884219DC40F20041C4F268
:10296000000188422CD040F60001C4F200018842E8
:102970004ED10020019043F64000C4F202000168ED
:1029800041F004010160006800F0040025E041F21C
:102990000001C4F20001884223D00021C4F20101E9
:1029A000884235D10020019043F64000C4F2020075
:1029B000416841F001014160406800F001000CE015
:1029C0000020019043F64000C4F20200016841F08B
:1029D00002010160006800F002000190019802B05D
:1029E00080BD0020019043F64000C4F2020001685F
:1029F000002241F01001016000680A2100F010007F
:102A0000019001983620FFF751F93620FFF73EF983
:102A100002B080BD10B50446006841F6FF31C4F233
:102A20000001884216DC40F6FF31C4F20001884202
:102A300025DD41F2FF31C4F2000188423BDC40F663
:102A40000041C4F2000188424CD041F20001C4F2BE
:102A5000000145E040F2FF31C4F2010188421CDD73
:102A600044F2FF31C4F2010188422FDC40F2004100
:102A7000C4F20101884235D044F200012EE0B0F1E9
:102A8000804F2FD040F20041C4F20001884229D08B
:102A900040F60001C4F2000122E041F60041C4F218
:102AA000000188421ED042F20001C4F200018842B7
:102AB00018D0002112E041F20041C4F20001884226
:102AC00010D041F60001C4F2000109E044F20041D7
:102AD000C4F20101884205D044F60001C4F20101AC
:102AE000884253D194F83D0001281CBF012010BD3D
:102AF000022084F83D00206841F2FF72C168C4F2F0
:102B00000002904241F00101C1600DDC40F2FF7112
:102B1000C4F20001884215DCB0F1804F29D040F2A8
:102B20000041C4F2000122E040F2FF31C4F2010191
:102B3000884212DC41F60001C4F20001884218D03C
:102B4000002112E040F60001C4F20001884210D0DA
:102B500040F60041C4F2000109E044F20001C4F271
:102B60000101884205D040F20041C4F201018842CF
:102B700006D1816801F00701062904BF002010BDBD
:102B8000016841F001010160002010BD48F2DB1036
:102B9000C0F6000040F2CF1103F01EF8A2E70000DB
:102BA000B0B5044690F83C0001284FF0020008BF81
:102BB000B0BD0D46012184F83C1084F83D00286822
:102BC0004F2808DC1F2811DD20281FD030281DD0F9
:102BD00040281BD012E06F280CDD702816D0B0F50D
:102BE000805F13D0B0F5005F10D007E070B11028FF
:102BF0000CD003E0502809D0602807D048F2DB1041
:102C0000C0F6000041F2B74102F0E6FF21684FF63E
:102C100077728868904388602A6801204F2A1FDCF9
:102C20001F2A4CDD202A4ED0302A4CD0402A40F0BA
:102C3000AC8241F2FF70C4F20000814200F3E280F6
:102C400040F2FF70C4F20000814200F38D81B1F1C7
:102C5000804F00F0C48140F20040C4F20000BBE1AC
:102C60006F2A45DD702A6DD0B2F5005F00F08180DB
:102C7000B2F5805F40F0898241F6FF30C4F2000077
:102C800081424FF0000000F3CD8040F6FF32C4F2E5
:102C90000002914240F3808241F2FF32C4F200020E
:102CA000914200F3958240F60042C4F20002914244
:102CB00000F06B8241F20002C4F200029DE212B108
:102CC000102A40F0628241F2FF70C4F2000081429B
:102CD0002ADC40F2FF70C4F20000814260DCB1F1F6
:102CE000804F00F08C8040F20040C4F2000083E08E
:102CF000502A60D0602A40F0488241F2FF70C4F24E
:102D00000000814200F3A68040F2FF70C4F2000090
:102D1000814200F33481B1F1804F00F0948140F2A0
:102D20000040C4F200008BE140F2FF30C4F2010029
:102D3000814257DC41F60000C4F2000081425ED0BF
:102D4000002057E041F2FF70C4F20000814200F31E
:102D5000918040F2FF70C4F20000814200F31A81BA
:102D6000B1F1804F00F0A38140F20040C4F20000B6
:102D70009AE140F6FF30C4F20000814200F38A80FD
:102D8000B1F1804F00F09F8040F20040C4F200009B
:102D9000814200F0988040F60000C4F2000088E014
:102DA00040F60000C4F20000814228D040F6004006
:102DB000C4F2000020E041F2FF70C4F20000814242
:102DC00000F3B98040F2FF70C4F20000814200F3CA
:102DD000ED80B1F1804F00F0AF8140F20040C4F2CD
:102DE0000000A6E140F20040C4F20100814206D09A
:102DF00044F20000C4F20100814240F0AC8020683F
:102E00002968BFE140F2FF30C4F20100814200F3C3
:102E1000D98041F60000C4F20000814200F0DF805A
:102E20000020D7E040F2FF32C4F20102914240F3A9
:102E3000C18144F2FF32C4F20102914200F3D38116
:102E400040F20042C4F20102914200F09E8144F23D
:102E50000002D0E140F2FF30C4F20100814200F3F1
:102E6000E58041F60000C4F20000814200F0EB80F2
:102E70000020E3E040F2FF30C4F20100814200F3A1
:102E8000098141F60000C4F20000814200F00F8188
:102E9000002007E140F60040C4F20000814212D059
:102EA0000020C4F2010081420DD040F20040C4F283
:102EB0000100814207D048F2DB10C0F6000041F269
:102EC000E24102F089FEA8684FEA3030042807D3B7
:102ED00048F2DB10C0F6000041F2E54102F07CFE52
:102EE00068680A2805D80121814040F20542114254
:102EF0000AD1B0F5004F07D048F2DB10C0F6000051
:102F000041F2E64102F068FEE868102807D348F273
:102F1000DB10C0F6000041F2E74102F05DFE2068E0
:102F2000D5E90121EB6802F059F92068816841F484
:102F30008041816028E140F2FF30C4F2010081420B
:102F400000F3ED8041F60000C4F20000814200F081
:102F5000F3800020EBE048F2DB10C0F6000041F205
:102F6000295102F039FE4AE740F60000C4F20000A1
:102F7000814234D040F60040C4F200002CE040F61C
:102F80000000C4F2000081425DD040F60040C4F26F
:102F9000000055E040F60000C4F20000814200F05D
:102FA000868040F60040C4F200007DE040F600005C
:102FB000C4F20000814200F0BF8040F60040C4F23D
:102FC0000000B6E040F20040C4F20100814206D0A9
:102FD00044F20000C4F20100814240F019816868A7
:102FE0000A2805D80121814040F2054211420AD148
:102FF000B0F5004F07D048F2DB10C0F6000041F2F8
:10300000195102F0E9FDE868102807D348F2DB10F7
:10301000C0F6000041F21A5102F0DEFD2068696836
:10302000EA6802F059FA20684021ABE040F2004023
:10303000C4F20100814206D044F20000C4F2010053
:10304000814240F0EE8068680A2805D8012181405D
:1030500040F2054211420AD1B0F5004F07D048F2C4
:10306000DB10C0F6000041F2095102F0B5FDE8683E
:10307000102807D348F2DB10C0F6000041F20A51D5
:1030800002F0AAFD20686968EA6802F037FA206851
:10309000602177E040F20040C4F20100814206D096
:1030A00044F20000C4F20100814240F0C380A868ED
:1030B0004FEA3030042807D348F2DB10C0F6000096
:1030C00041F2CD4102F088FD68680A2805D8012147
:1030D000814040F2054211420AD1B0F5004F07D0BD
:1030E00048F2DB10C0F6000041F2CE4102F074FD60
:1030F000E868102807D348F2DB10C0F6000041F260
:10310000CF4102F069FD2068D5E90121EB6802F0AA
:1031100065F82068816841F07701816034E040F211
:103120000040C4F20100814206D044F20000C4F223
:103130000100814240F0878068680A2805D8012193
:10314000814040F2054211420AD1B0F5004F07D04C
:1031500048F2DB10C0F6000041F2F94102F03CFDFC
:10316000E868102807D348F2DB10C0F6000041F2EF
:10317000FA4102F031FD20686968EA6802F0ACF9B2
:103180002068502102F036F80020012184F83D101B
:10319000002184F83C10B0BDB1F1804FF5D040F271
:1031A0000042C4F200029142EFD040F60002C4F2A5
:1031B000000222E041F60042C4F200029142E4D053
:1031C00042F20002C4F200029142DED0002212E07C
:1031D00041F20042C4F200029142D6D041F6000210
:1031E000C4F2000209E044F20042C4F2010291423A
:1031F000CBD044F60002C4F201029142C5D048F29D
:10320000DB10C0F6000041F2C34102F0E5FCBBE771
:1032100048F2DB10C0F6000041F2165102F0DCFC6F
:10322000DDE648F2DB10C0F6000041F2065102F084
:10323000D3FC08E748F2DB10C0F6000041F2CA41B7
:1032400002F0CAFC33E748F2DB10C0F6000041F29E
:10325000F64102F0C1FC6FE7002804BF012070476F
:103260002DE9F04704460D46006841F2FF71C4F2B3
:10327000000188420DDC40F2FF71C4F20001884277
:1032800015DCB0F1804F2AD040F20041C4F20001B9
:1032900022E040F2FF31C4F20101884212DC41F623
:1032A0000001C4F20001884219D0002112E040F66A
:1032B0000001C4F20001884211D040F60041C4F27E
:1032C000000109E040F20041C4F20101884206D049
:1032D00044F20001C4F20101884240F0F780A06886
:1032E0004FEA3010062800F2E880012101FA00F0D0
:1032F00010F0570F00F0E1802069002818BFB0F5EA
:10330000807F40F0CD80A06940F08000802807D009
:1033100048F2DB10C0F6000040F6D43102F05CFC4D
:1033200028680138032807D348F2DB10C0F60000F4
:1033300040F6D53102F050FCA8680138032807D3C5
:1033400048F2DB10C0F6000040F6D63102F044FC33
:10335000A8690138032807D348F2DB10C0F6000043
:1033600040F6D73102F038FC686840F002000228CD
:1033700007D048F2DB10C0F6000040F6D83102F06A
:103380002BFC686940F00200022807D048F2DB10ED
:10339000C0F6000040F6D93102F01EFCE8684FEAA2
:1033A000B000042807D348F2DB10C0F6000040F656
:1033B000DA3102F011FCE8694FEAB000042807D3C3
:1033C00048F2DB10C0F6000040F6DB3102F004FCEE
:1033D0002869102807D348F2DB10C0F6000040F639
:1033E000DC3102F0F9FB286A261D102807D348F2C9
:1033F000DB10C0F6000040F6DD3102F0EDFB94F882
:103400003D0028B9002084F83C00204600F068F810
:10341000022084F83D00206844F20702816891434D
:103420008160314601F0C8FD20684FF6FF78816861
:103430008269D0F820E0D5E9006CD5E9023A46EA85
:103440000109AE6922EA080243EA06234FF6FC4668
:10345000B343D5E9076742EA0A0229691A4342EAF7
:10346000062242EA01112EF0AA026B6942EA0C021E
:1034700041EA073142EA0312C0F808908161026212
:10348000012084F8460084F83E0084F83F0084F868
:10349000420084F8430084F83D000020BDE8F08736
:1034A000B0F5007F3FF42FAF48F2DB10C0F600000C
:1034B00040F6D33102F090FB25E748F2DB10C0F66E
:1034C000000040F6D23102F087FB15E748F2DB102E
:1034D000C0F6000040F6D13102F07EFBFFE60000AE
:1034E000F0B587B0006840F60042C4F20002002147
:1034F0009042CDE90511CDE9031102913DD0B0F123
:10350000804F5FD1002543F630000195C4F20200E0
:103510000169002441F0010101610169C4F2020462
:1035200001F001010191019901950168022641F024
:10353000010101600168012701F001010191019978
:103540000195016841F002010160006802A900F0E4
:10355000020001900198202002902046CDE90365E9
:1035600005950697FEF772F90820CDE90206CDE928
:103570000455069704F5806021E043F63000019180
:10358000C4F20200026942F008020261026902F01C
:1035900008020192019A0191026842F00102026060
:1035A000006800F0010001900198032002900220C1
:1035B000CDE90301CDE905100020C4F2020002A903
:1035C000FEF744F907B0F0BD7047000010B504469F
:1035D00000680169890744BFC1685FEA817138D416
:1035E00020680169490744BFC1685FEA41713CD462
:1035F00020680169090744BFC1685FEA017141D4CD
:1036000020680169C90644BFC1685FEAC16145D449
:1036100020680169C9071CBFC1685FEAC1714AD14E
:1036200020680169090644BFC1685FEA016149D4A5
:1036300020680169490644BFC1685FEA416148D416
:1036400020680169890644BFC1685FEA816147D487
:1036500010BD6FF0020101610121217780698007AF
:1036600045D02046FFF7B0FF47E06FF0040101614D
:1036700002212177806910F4407F41D02046FFF776
:10368000A3FF43E06FF00801016104212177C069C5
:1036900080073ED02046FFF797FF40E06FF0100113
:1036A000016108212177C06910F4407F3AD020469B
:1036B000FFF78AFF3CE06FF001010161204600F056
:1036C000C5FCADE76FF0800101612046FEF718FFF1
:1036D000AEE76FF040010161204600F0C3FCAFE7A8
:1036E0006FF0200101612046FEF70CFF10BD20465F
:1036F00000F0DAF8204600F053FB002020776FE757
:10370000204600F0D1F8204600F04AFB0020207748
:103710006EE7204600F0C8F8204600F041FB00208C
:1037200020776DE7204600F0BFF8204600F038FB18
:10373000002020776CE7000070B586B0006841F289
:10374000FF71C4F2000188424FF000010591CDE9FC
:103750000311CDE901112ADC40F20041C4F200015D
:1037600088424ED040F60001C4F20001884240F089
:103770009880002043F630010090C4F202010A68EC
:1037800042F008020A60096801F0080100910099FE
:103790004FF4704101910221CDE90210CDE90401FD
:1037A00040F20040C4F2020000F5006475E041F60A
:1037B0000001C4F20001884253D00021C4F201018B
:1037C00088426ED1002043F630010090C4F202011D
:1037D0000A6842F010020A60096801F010010091C5
:1037E00000994FF4D44101910221CDE902100490D7
:1037F0000120059040F20040C4F2020000F5406450
:103800004BE0002543F630000095C4F20200016849
:1038100040F2004441F0010101600168C4F2020479
:1038200001F001010091009900950168022641F024
:1038300002010160006801A900F0020000900098F8
:10384000C0200190A4F58060CDE90265CDE9045661
:10385000FDF7FCFF0320CDE90106CDE903550596F0
:103860001BE0002043F630010090C4F202010A6818
:1038700040F2004442F002020A600968C4F2020405
:1038800001F00201009100994FF4404101910221A1
:10389000CDE9021004900920059001A92046FDF70A
:1038A000D5FF06B070BD00007047000070B5164629
:1038B0000D460C2A044605D80120B04041F21111F2
:1038C000084209D13C2E07D048F2DB10C0F60000B8
:1038D00041F2770102F080F9286840F0100070286A
:1038E00007D048F2DB10C0F6000041F2780102F088
:1038F00073F9A86840F00200022807D048F2DB10F4
:10390000C0F6000041F2790102F066F9286940F042
:103910000400042807D048F2DB10C0F6000041F292
:103920007A0102F059F994F83C00012804BF022002
:1039300070BD4FEAB6010120032984F83C0000F273
:103940002D81DFE801F00220374E206841F6FF713B
:10395000C4F2000188425BDC40F6FF31C4F2000192
:10396000884200F3BD80B0F1804F00F0E78040F264
:103970000041C4F20001884200F0E08040F60001FE
:10398000C4F20001D8E0206841F2FF71C4F20001E6
:10399000884253DC40F2FF71C4F20001884200F318
:1039A000B080B0F1804F00F0E58040F20041C4F2F9
:1039B0000001DDE0206840F6FF31C4F200018842DA
:1039C0004CDCB0F1804F62D040F20041C4F2000103
:1039D00088425CD040F60001C4F20001884256D013
:1039E0004DE0206840F6FF31C4F20001884256DC09
:1039F000B0F1804F6CD040F20041C4F20001884227
:103A000066D040F60001C4F20001884260D057E061
:103A100043F6FF71C4F2010188427DDC42F20001ED
:103A2000C4F20001884200F089800021C4F2010143
:103A3000884200F0838040F200417BE040F2FF3199
:103A4000C4F20101884200F3898041F60001C4F20A
:103A50000001884200F08E80002187E040F600419E
:103A6000C4F20001884212D00021C4F20101884250
:103A70000DD040F20041C4F20101884207D048F263
:103A8000DB10C0F6000041F2A60102F0A5F82068A4
:103A9000294601F081FC206850F81C1F55E040F6D3
:103AA0000041C4F20001884212D00021C4F2010199
:103AB00088420DD040F20041C4F20101884207D093
:103AC00048F2DB10C0F6000041F2B70102F084F8C2
:103AD0002068294601F0C6FC206850F81C1F50E001
:103AE00040F60041C4F20001884227D041F60001AF
:103AF000C4F20001884221D041F60041C4F2000125
:103B00001AE040F60001C4F20001884232D040F6CB
:103B10000041C4F200012BE044F20001C4F20101B3
:103B200088420BD044F20041C4F20101884205D022
:103B300044F60001C4F2010188423CD120682946C4
:103B400001F060FB206850F8181F41F00801016087
:103B5000016821F00401016029691BE040F2004185
:103B6000C4F20101884205D044F20001C4F201010F
:103B7000884217D12068294601F0A8FB206850F838
:103B8000181F41F400610160016821F48061016047
:103B9000296909020268114301600020002184F8AC
:103BA0003C1070BD48F2DB10C0F6000041F29501F8
:103BB00002F012F8DEE748F2DB10C0F6000041F236
:103BC000840102F009F8B9E7002804BF012070471A
:103BD000B0B50446006841F6FF31C4F200018842E6
:103BE00016DC40F6FF31C4F20001884225DD41F2C7
:103BF000FF31C4F2000188423BDC40F60041C4F2D0
:103C0000000188424CD041F20001C4F2000145E0BD
:103C100040F2FF31C4F2010188421CDD44F2FF3161
:103C2000C4F2010188422FDC40F20041C4F20101DC
:103C3000884235D044F200012EE0B0F1804F2FD001
:103C400040F20041C4F20001884229D040F6000150
:103C5000C4F2000122E041F60041C4F200018842B2
:103C60001ED042F20001C4F20001884218D00021A7
:103C700012E041F20041C4F20001884210D041F646
:103C80000001C4F2000109E044F20041C4F2010164
:103C9000884205D044F60001C4F2010188425AD19D
:103CA000A0684FEA301006284CD8012101FA00F034
:103CB00010F0570F46D02069002818BFB0F5807F5C
:103CC00034D1A069251D40F08000802807D048F23B
:103CD000DB10C0F6000040F22C5101F07DFF94F89B
:103CE0003D0028B9002084F83C00204600F03CF854
:103CF000022084F83D002068294601F05DF901208A
:103D000084F8460084F83E0084F83F0084F84000C0
:103D100084F8410084F8420084F8430084F84400A9
:103D200084F8450084F83D000020B0BDB0F5007F68
:103D3000C7D048F2DB10C0F6000040F22B5101F072
:103D40004BFFBEE748F2DB10C0F6000040F22A51FC
:103D500001F042FFAFE748F2DB10C0F6000040F28E
:103D6000295101F039FF9BE781B0006841F600015D
:103D7000C4F20001884201D001B0704700200090D9
:103D800043F64000C4F20200016841F040010160C6
:103D9000006800F040000090009801B070470000FB
:103DA00070470000B0B50446006840F6FF32C4F228
:103DB000000290420D461FDCB0F1804F5CD040F213
:103DC0000041C4F20001884245D040F60001C4F22F
:103DD0000001884273D14FEAB50104297AD340F239
:103DE0000041C4F20101884265D040F60041C4F2AE
:103DF0000001884253D062E040F60041C4F2000165
:103E000088424CD040F2004CC4F2010C604552D0C4
:103E10000023C4F20103984251D14FEAB503042BA9
:103E200058D340F2FF73C4F2000398420ADD40F613
:103E30000002C4F200029042CDD088422FD06045EB
:103E400039D03CE0B0F1804F16D040F20041C4F2CE
:103E50000001884233D14FEAB50104293AD340F238
:103E60000041C4F20101884225D040F60041C4F26D
:103E700000018842A9D112E04FEAB501042929D3F3
:103E800090429CDD40F60041C4F20001884206D019
:103E900040F20041C4F20101884210D10BE04FEA28
:103EA000B501042916D341F60001C4F2000101F561
:103EB0006C41884203D14FEAB50104290AD325F0A9
:103EC000040241F60001C4F2000182B901F5943305
:103ED00098420CD145B1082D34D0042D14BF04F103
:103EE000410004F13F002FE004F13E002CE080EAA5
:103EF00001031A43EED0401AA0F59631A0F598338D
:103F0000B1FA81F1B3FA83F34909B5FA85F25B0995
:103F1000520919431140DDD15DB9A0F58061A0F5CA
:103F20000060B1FA81F1B0FA80F049094009084314
:103F3000D0D148F2DB10C0F6000040F2AF5101F0E2
:103F40004BFEC7E704F14000007801281CBF0120A8
:103F5000B0BD022045B1082D09D0042D14BF84F84E
:103F6000410084F83F0004E084F83E0001E084F85A
:103F7000400020682946012201F0B0F8206841F293
:103F8000FF71C4F2000188420FDC40F2FF71C4F2FD
:103F90000001884217DCB0F1804F49D040F2004167
:103FA000C4F20001884243D049E040F2FF32C4F23B
:103FB0000102904214DC41F60003C4F2000398426F
:103FC00036D0002314E040F60001C4F2000188421C
:103FD0002ED040F60041C4F20001884228D02EE0E5
:103FE00044F20003C4F20103984221D040F200439E
:103FF000C4F20103984222D1436C884243F4004347
:104000004364C2DD904207DC41F60001C4F20001C6
:1040100088420DD0002107E044F20001C4F2010102
:10402000884205D040F20041C4F20101884206D125
:10403000816801F00701062904BF0020B0BD0168B6
:1040400041F0010101600020B0BD000080B50068B2
:1040500041F20041C4F20001884208BFFDF770FD43
:1040600080BD0000704700007047000010B5044696
:104070000068406994F83D10212915D110F08000A6
:1040800012D000BF206850E8050F216820F08000A2
:1040900041E80502002AF5D1606B002818BFFDF742
:1040A00095F8204601F026FB2068406994F83E1000
:1040B000222915D110F0400012D000BF206850E82E
:1040C000050F216820F0400041E80502002AF5D1E3
:1040D000A06B002818BFFDF779F8204601F0D6FA4A
:1040E000002010BD70470000B0B582B003680446E0
:1040F0001868D9685A6900F02F05202D01F02005B5
:1041000005D125B1204601F003FB02B0B0BD5FEA46
:10411000007C1EBF02F0010E01F4907212EB0E0241
:1041200048D1226B0840C1063BD5012A39D1002075
:1041300001901868019058680190019858694006EC
:1041400040D4A08DE18DE28D002A1CBF401A5FEAA9
:10415000004101D102B0B0BD216851E8031F2268BF
:1041600021F4907142E80313002BF5D1216851E846
:10417000051F226821F0010142E80513002BF5D14B
:10418000202184F83E100021216300BF216851E8FE
:10419000031F226821F0100142E80313002BF5D120
:1041A00052E0010656D44006D4D5204601F096FAD6
:1041B00002B0B0BDC20718BF11F480724FD14207E0
:1041C00053D459E0A06B016849688AB2002AC1D073
:1041D000A38D9A42BED2E185C069B0F5807F30D010
:1041E000206850E8030F216820F4807041E8030242
:1041F000002AF5D1206850E8050F216820F0010061
:1042000041E80502002AF5D1206850E8050F216831
:1042100020F0400041E80502002AF5D1202084F872
:104220003E000020206300BF206850E8030F216893
:1042300020F0100041E80302002AF5D1A06BFCF742
:10424000C5FFA08DE18D401A81B22046FFF70CFF1B
:1042500002B0B0BD204601F0B7FB02B0B0BD226C89
:1042600042F001022264420706D5BEF1000F03D0DE
:10427000226C42F002022264820706D5BEF1000FD2
:1042800003D0226C42F004022264BCF1000F06D578
:104290005EEA050203D0226C42F008022264226C1E
:1042A000002A3FF457AF0840800602D5204601F0AF
:1042B0002FFA20684069216C00F0400001F00801ED
:1042C000401827D0204601F0E1F9206840694006F7
:1042D0001BD500BF206850E8050F216820F0400082
:1042E00041E80502002AF5D1A06B70B145F2955165
:1042F000C0F600010165FCF7A9FF00283FF42AAFD2
:10430000A06B016D884702B0B0BD2046FFF7EAFE02
:1043100002B0B0BD2046FFF7E5FE0020206402B0E9
:10432000B0BD0000002804BF0120704710B58169AE
:104330000446006891B140F6FF71C4F20101884261
:1043400025DC44F20041C4F20001884233D044F637
:104350000001C4F2000188422DD024E044F6FF7130
:10436000C4F20001884278DC44F20041C4F200014A
:1043700088422DD044F60001C4F20001884227D0C3
:1043800044F60041C4F20001884221D077E041F2B6
:104390000001C4F2010188420DD041F20041C4F293
:1043A0000101884207D048F24E20C0F6000040F2DA
:1043B000731101F011FCA0694FEA3020042807D3E3
:1043C00048F24E20C0F600004FF4BA7101F004FC30
:1043D000A06840F48050B0F5805F07D048F24E20CE
:1043E000C0F600004FF4BD7101F0F6FBE06940F447
:1043F0000040B0F5004F07D048F24E20C0F6000054
:1044000040F27B1101F0E8FB94F83D0028B9002050
:1044100084F83C00204600F039F8242084F83D0060
:104420002068C16821F40051C160204601F0D2F932
:104430002068016921F490410161416921F02A015C
:104440004161C16841F40051C16000202021206415
:1044500084F83D1084F83E1010BD45F20001C4F20E
:1044600000018842B4D041F20001C4F20101884247
:10447000AED041F20041C4F201018842A8D048F216
:104480004E20C0F600004FF4BC719FE770B586B0B7
:104490000446006844F20041C4F20001002688424C
:1044A000CDE90466CDE90266019633D041F2000100
:1044B000C4F2010188427BD1002043F63001009014
:1044C000C4F202014A6942F010024A614A6902F0EC
:1044D00010020092009A00900A6842F001020A60FD
:1044E000096801F00101009100994FF4C061019148
:1044F0000221CDE90210032004900720059000203E
:10450000C4F2020001A9FDF7A1F92520092100222A
:10451000252448E043F630000096C4F20200016909
:1045200041F400310161016901F400310091009909
:104530000096016841F001010160006801A900F0E6
:104540000100009000980C2001900220CDE90206A5
:1045500003200490072005900020C4F20200FDF71C
:1045600075F940F2783546F28800C2F20005C4F2CF
:1045700002004FF000614FF4806285E84300284656
:10458000C5E90362C5E90566C5E907666E62FCF721
:1045900035FF002818BFFCF787F8A563AC63262019
:1045A0000F2100222624FDF781FB2046FDF76EFB3C
:1045B00006B070BD10B590F83E30202B0BD100290D
:1045C0004FF0010418BF002A01D1204610BD90F819
:1045D0003C30012B01D1022010BD0123002480F8C2
:1045E0003C30046301F0A2F9204610BD7047000082
:1045F0007047000070470000FEE7000080B540F201
:10460000283046F20041C2F20000C4F20001032249
:10461000002380E80E0000F10C014FF4002C4FF451
:10462000401E81E808504FF480710183C0F81A30B1
:10463000FCF7A6FB002818BFFCF736F880BD000089
:1046400080B540F2503046F60001C2F20000C4F2DC
:1046500000010023102280E80E00C0E90333C0E906
:1046600005338383FCF78CFB002818BFFCF71CF88C
:1046700080BD000080B582B00020019043F630007C
:10468000C4F202000168002241F4001101600068D8
:104690000A2100F40010019001981020FDF706FB9C
:1046A0001020FDF7F3FA02B080BD000080B540F2A3
:1046B000A060C2F2000000210183C0E90011C0E93E
:1046C0000211C0E9041144F68D6048F26002C0F6A0
:1046D0000000C0F60002002101F076FC40F21071EB
:1046E000C2F20001086045F2215048F28402C0F68F
:1046F0000000C0F60002002101F066FC40F21471D7
:10470000C2F20001086080BD2DE9F04186B00026AC
:1047100043F630000596CDE90366CDE901660096C3
:10472000C4F20200016841F2004441F080010160DE
:104730000168C4F2020401F0800100910099009622
:104740000168002241F00101016001684FF4005846
:1047500001F00101009100990096016841F0020109
:104760000160016801F00201009100990096016862
:1047700041F020010160016801F0200100910099E1
:104780000096016841F010010160016801F010011C
:10479000009100990096016841F0080101600068ED
:1047A0004FF4005100F00800009000982046FDF7FB
:1047B0009FF94FF4584001904FF4881001AD0290DA
:1047C0000127204629460397FDF740F82046294651
:1047D000CDE90187CDE90376FDF738F828200A21D5
:1047E0000022FDF763FA2820FDF750FA06B0BDE875
:1047F000F081000010B588B040F2204041F6000181
:104800000024C2F20000C4F2000140F28F6307945A
:10481000CDE90544CDE90344CDE9014440F2E73256
:1048200080E81600C0E903348461FFF7CDF9002861
:1048300018BFFBF739FF6020CDE9010440F22040AA
:10484000C2F2000001A9002203940594FFF72EF89C
:10485000002818BFFBF728FF40F22040C2F20000FA
:1048600001A90422FFF722F8002818BFFBF71CFF5C
:1048700040F22040C2F20000FEF75EFF08B010BD1B
:1048800010B596B040F2D83000220021C2F20000EC
:10489000C4F20102142341F63F744FF0800C1591CD
:1048A000CDE91311CDE91111CDE90F11CDE90D11AC
:1048B000CDE90B11CDE90911CDE90711CDE90511BC
:1048C000CDE90311CDE90111C0E90023C0E90214CB
:1048D000C0E90411C0F818C0FDF766FF002818BF32
:1048E000FBF7E2FE4FF48050129040F2D830C2F253
:1048F000000012A9FEF754F9002818BFFBF7D4FEF8
:1049000040F2D830C2F20000FFF75EF9002818BF6D
:10491000FBF7CAFE40F2D8300024C2F2000010A912
:10492000CDE91044FDF788FE002818BFFBF7BCFE58
:104930006020CDE9090440F2D830C2F2000009A994
:104940000022CDE90B44CDE90D440F94FEF7AEFFF4
:10495000002818BFFBF7A8FE40F2D830C2F20000D2
:1049600009A90422FEF7A2FF002818BFFBF79CFE4E
:1049700040F2D830C2F2000009A90822FEF796FFE3
:10498000002818BFFBF790FE40F2D830C2F20000BA
:1049900009A90C22FEF78AFF002818BFFBF784FE46
:1049A00000200590CDE90300CDE901004FF400514E
:1049B000089040F2D8300691C2F2000001A9FDF73C
:1049C000A3FD002818BFFBF76FFE40F2D830C2F2FB
:1049D0000000FEF7B1FE16B010BD0000B0B58CB0FF
:1049E00003AC20462421FBF736FD40F26840002549
:1049F000C2F200004FF08041C0E900150321CDE96B
:104A0000031501214FF0FF32CDE90515CDE9091558
:104A10002146CDE90055C0E9025205618561CDE925
:104A200007550B95FEF718FC002818BFFBF73CFE56
:104A300040F26840C2F200006946CDE90055FDF73A
:104A4000FBFD002818BFFBF72FFE0CB0B0BD000027
:104A500010B58EB040F2B04040F200420021C2F2E8
:104A60000000C4F2000240F2A31363240D91CDE9CB
:104A70000B11CDE90911CDE90711CDE90511CDE9FA
:104A80000311CDE90111C0E90023C0E9021401615D
:104A90008161FDF789FE002818BFFBF705FE4FF482
:104AA00080500A9040F2B040C2F200000AA9FEF71E
:104AB00077F8002818BFFBF7F7FD40F2B040C2F2CC
:104AC0000000FFF781F8002818BFFBF7EDFD40F26A
:104AD000B0400024C2F2000008A9CDE90844FDF767
:104AE000ABFD002818BFFBF7DFFD6020CDE9010416
:104AF00040F2B040C2F2000001A9002203940594E4
:104B0000FEF7D4FE002818BFFBF7CEFD40F2B04000
:104B1000C2F2000001A90422FEF7C8FE002818BF57
:104B2000FBF7C2FD40F2B040C2F2000001A908222A
:104B3000FEF7BCFE002818BFFBF7B6FD40F2B04000
:104B4000C2F2000001A90C22FEF7B0FE002818BF37
:104B5000FBF7AAFD40F2B040C2F20000FEF7ECFD08
:104B60000EB010BD10B58EB040F2F84040F6000215
:104B70000021C2F20000C4F2000240F2A313632439
:104B80000D91CDE90B11CDE90911CDE90711CDE961
:104B90000511CDE90311CDE90111C0E90023C0E9F8
:104BA000021401618161FDF7FFFD002818BFFBF7CA
:104BB0007BFD4FF480500A9040F2F840C2F20000B2
:104BC0000AA9FDF7EDFF002818BFFBF76DFD40F2C5
:104BD000F840C2F20000FEF7F7FF002818BFFBF70D
:104BE00063FD40F2F8400024C2F2000008A9CDE9BC
:104BF0000844FDF721FD002818BFFBF755FD602094
:104C0000CDE901040220039040F2F840C2F2000016
:104C100001A900220594FEF749FE002818BFFBF702
:104C200043FD40F2F840C2F2000001A90422FEF761
:104C30003DFE002818BFFBF737FD40F2F840C2F2F6
:104C4000000001A90822FEF731FE002818BFFBF77B
:104C50002BFD40F2F840C2F2000001A90C22FEF741
:104C600025FE002818BFFBF71FFD40F2F840C2F2F6
:104C70000000FEF761FD0EB010BD0000B0B58CB0B5
:104C800003AC20462421FBF7E6FB40F2405040F6FF
:104C900000410025C2F20000C4F20001C0E9001585
:104CA0000321CDE9031501214FF0FF32CDE90515B0
:104CB000CDE909152146CDE90055C0E9025205614B
:104CC0008561CDE907550B95FEF7C6FA002818BF98
:104CD000FBF7EAFC40F24050C2F200006946CDE921
:104CE0000055FDF7A9FC002818BFFBF7DDFC0CB050
:104CF000B0BD000010B582B040F2885041F2000112
:104D00000024C2F20000C4F200014FF6FF72CDE9A8
:104D10000044C0E90014C0E902428461FDF744FD8B
:104D2000002818BFFBF7C0FC40F28850C2F2000018
:104D30006946CDE90044FDF77FFC002818BFFBF76A
:104D4000B3FC02B010BD000080B540F2186041F223
:104D50000001C2F20000C4F2010100234FF00C0C6C
:104D60004FF4E13280E80E00C0E90333C0E905C327
:104D7000C361FFF7D7FA002818BFFBF795FC80BD89
:104D800080B540F25C6044F20041C2F20000C4F21F
:104D9000000100234FF00C0C4FF4E13280E80E00CC
:104DA000C0E90333C0E905C3C361FFF7BBFA0028BC
:104DB00018BFFBF779FC80BDFEE70000FDF740F966
:104DC000FEE7000000F0070080F00703042B28BF77
:104DD00004234FF0FF3C03380CFA03F338BF0020E4
:104DE000994381400CFA00F022EA00000843704722
:104DF000EFF30980BFF36F8F154B1A681EF0100F89
:104E000008BF20ED108A20E9F04F10602DE909005D
:104E10004FF0500080F31188BFF34F8FBFF36F8FB7
:104E200002F032FA4FF0000080F31188BDE809006B
:104E300019680868B0E8F04F1EF0100F08BFB0EC1A
:104E4000108A80F30988BFF36F8F704700BF00BFDF
:104E50000C0800200000000000000000000000001E
:104E6000074B19680868B0E8F04F80F30988BFF372
:104E70006F8F4FF0000080F31188704700BF00BFB4
:104E80000C08002080B500F08FFE80BD00F08AFF86
:104E900000F084FF012001F059F8F7E740F2B0413B
:104EA000C2F200010968002248638A63C8630A6489
:104EB00040F2F841C2F20001096848638863C863A0
:104EC0000864704780B54EF21000CEF20000006812
:104ED00002F006FE012818BF02F0AEFA80BD000005
:104EE00070B592B006AC20463021FBF7B4FA00252D
:104EF00043F640000595CDE90355CDE901550095F0
:104F0000C4F202000168022641F08051016000688D
:104F100000F080500090009847F200000095C4F225
:104F20000000016841F4804101600068A82100F49C
:104F3000804000900098012006904FF48030079048
:104F40004FF480000D9004200E90119020460C9696
:104F5000CDE90F16FDF782F890B90F20CDE90106D3
:104F60004FF4A05004904FF48050059001A8052103
:104F70000395FCF7CFFE18B9FCF7DCFF12B070BD4B
:104F8000FBF792FB4EF68850CEF20000016841F428
:104F9000700101607047000080B540F28850C2F295
:104FA0000000FEF713FB80BD80B540F2D050C2F286
:104FB0000000FEF70BFB80BD10B540F6FF3E036816
:104FC000C4F2000E40F2004C7045C4F2010C0FDC3C
:104FD000B0F1804F19D040F20042C4F2000290427A
:104FE00013D040F60002C4F2000290420DD010E04F
:104FF00040F60042C4F20002904206D0604504D060
:105000000022C4F20102904203D14A6823F07003E7
:10501000134341F6FF72C4F2000290420DDC70456A
:105020001FDCB0F1804F41D040F20042C4F20002D8
:1050300090423BD040F6000221E043F6FF72C4F2FA
:105040000102904220DC42F20002C4F200029042CF
:105050002CD00022C4F20102904227D0604525D016
:1050600028E040F60042C4F2000290421ED041F611
:105070000002C4F20002904218D041F60042C4F28D
:105080000002904212D015E044F20002C4F2010284
:1050900090420BD044F60002C4F20102904205D0C7
:1050A00044F20042C4F20102904203D1CA6823F4E0
:1050B0004073134323F080024B69D1F800E08C6801
:1050C0001A430260C46240F48062C0F828E062457E
:1050D00004BF096901630121416110BD70B5054636
:1050E00041F6FF70C4F20000144685420E4613DC00
:1050F00040F6FF30C4F20000854221DCB5F1804F5C
:1051000041D040F20040C4F2000085423BD040F65E
:105110000000C4F2000034E043F6FF70C4F2010066
:1051200085421EDC42F20000C4F2000085422AD013
:105130000020C4F20100854225D040F200401EE06C
:1051400040F60040C4F2000085421CD041F6000049
:10515000C4F20000854216D041F60040C4F20000BF
:105160000FE044F20000C4F2010085420BD044F28B
:105170000040C4F20100854205D044F60000C4F2AC
:10518000010085421FD10C2E05D80120B04041F20C
:105190001111084209D13C2E07D048F2DB10C0F6AD
:1051A000000041F6955100F017FD06F01F000121A7
:1051B0002A6A814022EA01012962296A04FA00F080
:1051C0000843286270BD48F2DB10C0F6000041F6CB
:1051D000945100F001FD0C2ED7D9DCE7D0F808C0BF
:1051E00011432CF47F4C41EA032141EA0C01816018
:1051F00070470000826822F07002114341F00701FD
:10520000816070472DE9F04F81B00446006A0D4679
:1052100020F001002062206AD4F804A0D4F818809D
:10522000D1F80090896840F2004B20F0020044F46D
:105230008066C4F2010B5E4541EA000713D1E868BD
:1052400040F00800082807D048F2DB10C0F6000044
:1052500041F6C72100F0C0FCE86827F00C0120F0FF
:10526000040040EA01075E4522D1A86940F40070BD
:10527000B0F5007F07D048F2DB10C0F6000041F621
:10528000D42100F0A9FC686940F48070B0F5807FFB
:1052900007D048F2DB10C0F6000041F6D52100F03F
:1052A0009BFCD5E905122AF44070084340EA020A43
:1052B00028F0730040EA0900C4F804A0A0616868FF
:1052C0006063276201B0BDE8F08F00002DE9F04F68
:1052D00081B00446006A0D4620F010002062206A6A
:1052E000D4F804A0D4F81880D1F80090896840F26E
:1052F000004B20F0200044F48066C4F2010B5E45B0
:1053000040EA011715D1E86840F00800082807D0E6
:1053100048F2DB10C0F6000041F6123100F05CFCF0
:10532000E9686FF0400227F0C00002EA011141EA8B
:1053300000075E4523D1A86940F40070B0F5007FF6
:1053400007D048F2DB10C0F600004FF4D95100F04E
:1053500043FC686940F48070B0F5807F07D048F264
:10536000DB10C0F6000041F6213100F035FCD5E934
:1053700005122AF4406040EA810040EA820A28F4DB
:10538000E64040EA0920C4F804A0A0616868A06370
:10539000276201B0BDE8F08F2DE9F04F81B00446DF
:1053A000006A0D4620F480702062206AD4F804A0C0
:1053B000D4F81C80D1F80090896840F2004B20F4AA
:1053C000007044F48066C4F2010B5E4540EA012798
:1053D00015D1E86840F00800082807D048F2DB1033
:1053E000C0F6000041F65D3100F0F6FBE86840F2DF
:1053F000FF42000227F44061904340EA01075E4506
:1054000023D1A86940F40070B0F5007F07D048F2BE
:10541000DB10C0F6000041F66A3100F0DDFB686980
:1054200040F48070B0F5807F07D048F2DB10C0F602
:10543000000041F66B3100F0CFFBD5E905122AF4EC
:10544000405040EA011040EA021A28F0730040EA96
:105450000900C4F804A0E0616868E063276201B055
:10546000BDE8F08F2DE9F0470446006A0D4620F4B0
:1054700080502062266A6768D4F81C90D1F800A09A
:10548000D1F8088040F2004144F48060C4F2010188
:10549000884212D1686940F48070B0F5807F07D0EF
:1054A00048F2DB10C0F6000041F6A93100F094FB91
:1054B000686927F4804141EA801729F4E64141EA0E
:1054C0000A216760E16126F40050696840EA08300B
:1054D00021642062BDE8F087D0F820C0036A23F081
:1054E00001030362836923F0F00343EA02122CF004
:1054F0000A0319438261016270470000036A23F0C6
:10550000100303628369D0F820C023F4704343EA98
:1055100002322CF0A00343EA01118261016270475C
:1055200040F2A06440F6844540F214780026C2F2AE
:105530000004C2F20005C2F2000808E0288A2082B6
:10554000012000F003FDD8F8000001F02FFEA38831
:10555000A888E988AA89834205D1E3888B4202D1D1
:10556000A389934205D000F087FB6868A989606031
:10557000A181218A288A8142E2D0C006DED5B6FA0E
:1055800086F047090020002E08BF6320FFF786FC45
:105590003E46D3E780B5806B0021C185C184FEF70C
:1055A000A1FD80BD10B5846B2068406994F83D1062
:1055B000212907D110F0800004D00020E08420468B
:1055C00000F098F82068406994F83E10222907D12D
:1055D00010F0400004D00020E085204600F056F88E
:1055E000206C40F0100020642046FEF77BFD10BDCB
:1055F00080B50168806B0968C9052FD40021C18579
:10560000016851E8031F026821F4807142E8031326
:10561000002BF5D1016851E8051F026821F0010156
:1056200042E80513002BF5D1016851E8051F026817
:1056300021F0400142E80513002BF5D1202180F82C
:105640003E10016B012909D1016851E8031F02686E
:1056500021F0100142E80313002BF5D1016B012961
:1056600003D1818DFEF700FD80BDFEF7BFFF80BD39
:1056700080B5806B016B012904D1818D4908FEF74B
:10568000F3FC80BDFEF7B4FF80BD0000016851E867
:10569000031F026821F4907142E80313002BF5D137
:1056A000016851E8051F026821F0010142E8051375
:1056B000002BF5D1016B01290AD100BF016851E827
:1056C000031F026821F0100142E80313002BF5D1FB
:1056D000202180F83E1000210163704780B50168E9
:1056E000CA6822F04002CA60202180F83D10FEF70F
:1056F00081FF80BD016851E8031F026821F0C001ED
:1057000042E80313002BF5D1202180F83D107047AB
:1057100080B582B090F83E1022291ED18268B2F581
:10572000805F02D10169002948D0816AB2F5805FAB
:1057300007D00AB9026922B10268526802F07F02FA
:1057400001E0026852680A700121826A1144816294
:10575000C18D01390A04C18501D002B080BD016844
:10576000CA6822F02002CA60CA6822F48072CA6045
:105770004A6922F001024A61202180F83E10016B43
:10578000012923D100210163016851E8031F026848
:1057900021F0100142E80313002BF5D101680A68DB
:1057A000D20606D5002201920A6801924968019149
:1057B0000199818DFEF758FC02B080BD0168826AB4
:1057C00049686FF35F2111800221BEE7FEF70EFFEB
:1057D00002B080BD10B50446406843F2A171C0F22A
:1057E000A001884207D348F24E20C0F6000040F6E0
:1057F000616100F0F1F9E06840F40050B0F5005F3D
:1058000007D048F24E20C0F6000040F6626100F07A
:10581000E3F92069002818BFB0F5806F33D16069C3
:1058200018B14FF6F371084007D048F24E20C0F689
:10583000000040F6646100F0CFF92068D4E902C2AC
:105840002369016921F4405111430161626943EA0E
:105850000C01E3691143C268194349F20C639A438E
:105860001143C1604169A26921F4407141F20043D2
:10587000114340F48062C4F201039A4241610ED1A7
:10588000FCF796FB0DE0B0F5C06FC8D048F24E2093
:10589000C0F6000040F6636100F09EF9BFE7FCF738
:1058A00075FBE16963681922B1F5004FA0FB0201A5
:1058B0001CD15A00DB0FFAF7D7FC48F21F51C5F292
:1058C000EB11A0FB01235A096FF0630302FB0300F5
:1058D000322303EBC000A0FB01014FF4F87000EA93
:1058E000111000EB0210C1F342111AE09A009B0F55
:1058F000FAF7BAFC48F21F51C5F2EB11A0FB0123E5
:105900005A096FF0630302FB0300322303EB00101C
:10591000A0FB0101F02000EA511000EB0210C1F3DE
:10592000431122680843906010BD000070B582B03A
:10593000134600260446816283850664222084F88B
:105940003E000A462168A06B45F2F15C45F2716E9B
:1059500045F2A555C0F6000CC0F6000EC0F60005D5
:105960000431C0E90FCEC0E91356FBF7DDFE019606
:10597000206801680191406801900198206984F8CD
:105980003C6048B1206850E8030F216840F4807003
:1059900041E80302002AF5D1206850E8050F21688C
:1059A00040F0010041E80502002AF5D1206850E8E6
:1059B000050F216840F0400041E80502002AF5D1BA
:1059C000002002B070BD000090F83D10212923D1C5
:1059D0008168B1F5805F01D1016931B1016A026866
:1059E0004B1C03620978516007E0016A036831F8D3
:1059F000022B6FF35F225A600162C18C01390A04E5
:105A0000C18418BF70470068C16821F08001C1607F
:105A1000C16841F04001C1607047000080B540F2AC
:105A20001860C2F20000FEF75FFB80BD10B540F2C7
:105A30005C64C2F20004204600F050F82046FEF7F5
:105A400053FB10BD10B540F2D834C2F2000420461A
:105A50000021FEF7A7F920460421FEF7A3F920460E
:105A60000821FEF79FF920460C21FEF79BF940F232
:105A7000B044C2F2000420460021FEF793F920460C
:105A80000421FEF78FF920460821FEF78BF9204606
:105A90000C21FEF787F940F2F844C2F200042046D8
:105AA0000021FEF77FF920460421FEF77BF920460E
:105AB0000821FEF777F920460C21FEF773F940F232
:105AC0002044C2F2000420460021FEF76BF9204674
:105AD0000421FEF767F910BDFEE7000070B582B043
