:020000040800F2
:10000000904A002061020008CF520008894B000886
:10001000CD5200080D090008D56A00080000000054
:10002000000000000000000000000000A101000826
:10003000210A000800000000FD0100082D5C0008F6
:100040007B0200087B0200087B0200087B0200089C
:100050007B0200087B0200087B0200087B0200088C
:100060007B0200087B0200087B0200087B0200087C
:10007000710900087B0200087B0200087B0200086F
:100080007B0200087B0200087B0200081D090008B3
:10009000110900087B0200087B0200087B020008AF
:1000A0007B0200087B0200087B0200087B0200083C
:1000B0007B0200087B0200087B0200087B0200082C
:1000C0007B0200087B0200087B0200087B0200081C
:1000D0007B0200087B0200087B020008896A000896
:1000E0007B0200087B0200087B0200087B020008FC
:1000F0007B0200087B0200087B0200087B020008EC
:100100007B0200087B0200087B0200087B020008DB
:100110007B0200087B020008055D0008115D0008F5
:100120007B0200087B0200087B0200087B020008BB
:100130007B0200087B0200087B0200087B020008AB
:100140007B0200087B0200087B0200087B0200089B
:100150007B0200087B0200087B0200087B0200088B
:100160007B0200087B0200087B0200087B0200087B
:100170007B0200087B0200087B02000800000000F0
:100180007B0200087B020008DFF810D000F08AFB39
:1001900000480047E96D0008AFF30080904A002056
:1001A0002C4B19680868B0E8F04F80F30988BFF35A
:1001B0006F8F4FF0000080F311887047000000003F
:1001C00008480068006880F308884FF0000080F35A
:1001D000148862B661B6BFF34F8FBFF36F8F00DF35
:1001E00000BF00BF08ED00E0DFF80C00016841F43B
:1001F00070010160704700BF88ED00E0EFF30980F7
:10020000BFF36F8F134B1A681EF0100F08BF20ED5D
:10021000108A20E9F04F106009B44FF0500080F3CD
:100220001188BFF34F8FBFF36F8F07F09BFC4FF028
:10023000000080F3118809BC19680868B0E8F04F25
:100240001EF0100F08BFB0EC108A80F30988BFF3CE
:100250006F8F70477C000020EFF30580704700002F
:100260000648804706480047FEE7FEE7FEE7FEE750
:10027000FEE7FEE7FEE7FEE7FEE7FEE7F55C0008C7
:10028000890100082DE9F05F0546002092469B4653
:1002900088460646814640241BE02846414647469C
:1002A000224600F00AFA53465A46C01A914110D32A
:1002B00011461846224600F0F1F92D1A67EB0108A5
:1002C0004F4622460120002100F0E8F917EB000913
:1002D0004E41201EA4F10104DFDC484631462A4687
:1002E0004346BDE8F09F40EA01039B0703D009E0C5
:1002F00008C9121F08C0042AFAD203E011F8013B12
:1003000000F8013B521EF9D27047D2B201E000F86A
:10031000012B491EFBD270470022F6E710B51346A9
:100320000A4604461946FFF7F0FF204610BDF0B418
:1003300080EA0102D40F4200B2EB410F02D2024622
:10034000084611464A0042D0C30DDDB2C1F3C75280
:10035000AD1A202D35DAC1F3160141F4000204B1C3
:100360005242C5F1200602FA06F12A411044B3EBCD
:10037000D05F23D0C4B1012DA0EBC35009DCF0BC89
:100380004FF0004202EAC352DBB200F5000000F079
:10039000ADB9400000F1807000EBC350A0F1807057
:1003A00040EAD170490009E0490841EAC071A0EB78
:1003B000C35000F50000400800EBC350F0BC00F053
:1003C0008CB96142012202EB4101001BF6E7F0BC4F
:1003D000704781F00041AAE780F00040A7E780EA7B
:1003E000010210B502F00043400022D04A001FD0A5
:1003F000010E01EB1261C0F35600C2F3560240F445
:10040000000042F40002A0FB022000047F39140423
:1004100000D0401C50EA124001D44000491EC2B234
:100420000C0604EBD010401C4008802A02D003E0E8
:10043000002010BD20F00100002900DA0020184340
:1004400010BD2DE9FE4F81EA030404F0004421F0C1
:10045000004100944FF0000B23F0004350EA0104E8
:100460005ED052EA03045BD0C3F30A54C1F30A55C9
:100470002C44A4F2F3340194A0FB0254C1F3130101
:1004800041F48011C3F3130343F4801301FB0244CE
:1004900000FB034E840A970A44EA815447EA8357D3
:1004A000A4FB076802958D0A05FB07854FEA932C8C
:1004B00004FB0C542705029D4FEA065847EA1637FD
:1004C000B5EB08056EEB070C870E920E47EA811715
:1004D00042EA8312A7FB0201B6EB0B0164EB0004B6
:1004E0002B0D43EA0C335E1844EB1C50DA465146A0
:1004F000E7FB0201C5F313044FEA0B3343EA14533D
:100500004FEA0432019C43EA0603A4F10C0402946E
:10051000009CCDE900B400F026F903B0BDE8F08FEF
:1005200000200146F9E72DE9F04D81EA030404F0CB
:10053000004B21F0004514464FF0000A23F0004123
:1005400050EA050220D054EA01021DD0C5F30A5733
:100550000246C5F31303C1F31300C1F30A5640F476
:10056000801543F48013A7EB0608101BD64608F24B
:10057000FD3873EB050002D308F1010801E0921881
:100580005B41B8F1000F03DA00200146BDE8F08DB1
:1005900000204FF48011064684460EE0171B73EBD3
:1005A000050705D3121B63EB050306434CEA010C58
:1005B00049084FEA300092185B4150EA0107EDD13B
:1005C00052EA030012D082EA040083EA05010843DC
:1005D00005D0101BAB4106D20122002306E0002209
:1005E0004FF0004302E06FF0010253101AEB0600D7
:1005F0004CEB085110EB0A0041EB0B01BDE8F04D4C
:1006000000F0A2B80EB5C10F80EAE0700844CA0736
:10061000002140F233438DE80E000A460B4600F0FD
:10062000A2F803B000BD70B5C1F30A5201F0004555
:100630000024C1F3130140F2FF3341F480119A42C8
:1006400001DA002070BD40F233439A42A2F23342F5
:1006500003DC524200F031F800E090402C43F1D02E
:10066000404270BD01F0004330B421F0004150EA37
:10067000010206D00A0DA2F56072C1F31301002A2F
:1006800002DC30BC00207047440F44EAC104C100C2
:10069000E01830BC00EBC25000F01FB8202A04DB89
:1006A000203A00FA02F1002070479140C2F1200385
:1006B00020FA03F3194390407047202A04DB203AC4
:1006C00021FA02F00021704721FA02F3D040C2F172
:1006D000200291400843194670470029A8BF70477F
:1006E000401C490008BF20F00100704710B4B0FA68
:1006F00080FC00FA0CF050EA010404BF10BC704703
:1007000049B1CCF1200421FA04F411FA0CF118BF1C
:10071000012121430843A3EB0C01CB1D4FEA0061EB
:100720004FEA102042BF002010BC704700EBC350BE
:1007300010440029A4BF10BC7047401C490008BFEA
:1007400020F0010010BC704710B5141E73F10004B6
:1007500008DA401C41F1000192185B411A4301D1B3
:1007600020F0010010BD2DE9F04D92469B4611B1DD
:10077000B1FA81F202E0B0FA80F220329046FFF73F
:100780008DFF04460F4640EA0A0041EA0B0153463A
:100790005A46084313D0114653EA010019D0C8F154
:1007A00040025046FFF789FF05460E46504659461F
:1007B0004246FFF773FF084305D0012004E02046BE
:1007C0003946BDE8F08D0020054346EAE0762C432B
:1007D00037430A986305E40AA0EB08000022FD0AEB
:1007E00044EA47540A3002D500200146E9E70105F2
:1007F00010196941DDE9084500196941BDE8F04D6E
:10080000A2E72DE9F04D00231A461B1A8A4103DBAB
:1008100000200146BDE8F08DC1F30A52C1F3130177
:1008200041F480154FF0000BD10702D100186D4143
:10083000521E0027044640F2FF11384601EB620ABF
:100840003E468046024600204FF48011FFF735FFF8
:10085000C2197141BB1846EB0100B4EB030C75EBF8
:10086000000C04D3E41A65EB000517460E46241964
:1008700008F101006D4180463428E3DDF91946EBAB
:100880000600091BA84103D24FF0FF32134601E0D6
:10089000002213461BEB070046EB0A51BDE8F04D62
:1008A000FFF752BF064C074D06E0E06840F0010339
:1008B00094E8070098471034AC42F6D3FFF768FC81
:1008C000DC7F0008FC7F00082DE9F041D0E90667D5
:1008D000056A884604464FF0404185602846FFF788
:1008E0007EFD3146FFF775FD606030463946FFF703
:1008F0001EFD2946FFF71BFD2060B8F1000F1EBF4B
:100900000020C4E903006061BDE8F081FEE700005B
:10091000014800F051BB000084060020014800F0AF
:100920004BBB00008406002038B50E4C4FF4007518
:1009300025600025A560E560082525610A4C050AAB
:1009400025706070080AA070E170100A2071627151
:10095000180AA071E3716B4622460249034800F071
:10096000BDF838BD300100200100002084060020C1
:10097000014800F097BE0000F40800200168182329
:10098000CAB2103AB2FBF3F2054B6FF30901032A26
:100990009B5CC36500D9091D81650846704700004E
:1009A000807F000810B5014600208B698A6A4FF0ED
:1009B000C07453B1B3F5005F15D072B1012A0CD0E9
:1009C000022A0AD0032A09D104E01AB1012A06D06A
:1009D000022A03D1C96AC90100D5012010BDC96A24
:1009E000A142FAD010BD002AF7D0012AF2D0022A83
:1009F000F3D0032AF3D010BD30B50468256825F480
:100A000080252560046863608368402B036803D0F9
:100A100099600068C26030BD9A600068C16030BDF6
:100A2000704772B6FEE700002DE9F0410D460C4913
:100A300000EB800086B001EB80041F4616461421AF
:100A40006846DDF83080FFF767FC8DE8E00114228E
:100A500069462046FFF747FC06B0BDE8F08100007C
:100A60000803002070B590F820600D4604460C483D
:100A7000814204D94FF4D0610AA006F08FF8012E0C
:100A800007D0022E05D0606A40F480206062012009
:100A900070BD2068416929434161002070BD00009C
:100AA0007F8F03002E2E2F447269766572732F5349
:100AB000544D3332463478785F48414C5F44726914
:100AC0007665722F5372632F73746D333266347888
:100AD000785F68616C5F63616E2E63002DE9F0479B
:100AE00090F82080994616460D46044600688768AF
:100AF000886830B1042804D040F2E9414EA006F0E5
:100B00004DF8E86830B1022804D040F2EA414AA02A
:100B100006F044F82869082804D940F2EB4146A0C1
:100B200006F03CF8A86800281BD06868B0F1005FA8
:100B300004D340F2F24140A006F030F8287D30B1F5
:100B4000012804D040F2F4413BA006F027F8B8F1A8
:100B5000010F0DD0B8F1020F0AD0606A40F4802076
:100B600066E02868B0F5006FE8D340F2EE41E2E7B6
:100B700017F0406F01D1F80057D5C7F30160022884
:100B800003D9606A40F4000052E001218140C9F8B5
:100B90000010AA684FF4C0719AB1EB681A436B68F1
:100BA00042EAC302236801EB0017DA514FF4C27224
:100BB000276802EB00122B69BB502B7D012B05D05F
:100BC00009E02B88EA6842EA4352EBE723689D5824
:100BD00045F480759D503279F379757942EA036264
:100BE000B3791B0443EA05231A434FF4C6752368FF
:100BF00005EB00155A513278F378757842EA0362B2
:100C0000B3781B0443EA05231A434FF4C4752368E1
:100C100005EB00155A51226801EB0010115841F004
:100C2000010111500020BDE8F087606A40F4001017
:100C300060620120F7E700002E2E2F44726976656E
:100C400072732F53544D3332463478785F48414C99
:100C50005F4472697665722F5372632F73746D33BC
:100C600032663478785F68616C5F63616E2E630012
:100C700070B50C4690F82010012907D0022905D044
:100C8000416A41F480214162012070BD20684FF427
:100C90008035A84204D34FF4547163A005F07EFF61
:100CA0006068A84204D340F251315FA005F076FF9E
:100CB000A068A84204D340F252315BA005F06EFF59
:100CC000E068A84204D340F2533157A005F066FF14
:100CD000A06930B1012804D04FF4557152A005F03D
:100CE0005DFFE06930B1012804D040F255314EA0DB
:100CF00005F054FF206930B1012804D040F256318C
:100D000049A005F04BFF206A30B1012804D040F221
:100D1000573145A005F042FF6069514D1B2804D9A9
:100D200040F2723140A005F039FF606A1B2804D9F7
:100D300040F273313CA005F031FFD5F8000240F0DD
:100D40000100C5F80002D5F8000220F47C50C5F877
:100D50000002D5F80002616A40EA0120C5F80002ED
:100D6000207D00F01F0101208840D5F81C1281432E
:100D7000C5F81C12E169B1B9D5F80C128143C5F868
:100D80000C12A289616862F31F41626905EBC2021D
:100D9000C2F840122289216862F31F41626905EBA3
:100DA000C202C2F84412E169012916D1D5F80C1229
:100DB0000143C5F80C122288616862F31F41626921
:100DC00005EBC202C2F840122289E16862F31F41BA
:100DD000626905EBC202C2F84412A1690029D5F884
:100DE00004120FD051EA0001C5F80412216900294C
:100DF000D5F8141208D00143C5F81412216A01294C
:100E000004D008E08143EFE78143F5E7D5F81C12F1
:100E10000143C5F81C12D5F8000220F00100C5F806
:100E20000002002070BD00002E2E2F4472697665EE
:100E300072732F53544D3332463478785F48414CA7
:100E40005F4472697665722F5372632F73746D33CA
:100E500032663478785F68616C5F63616E2E630020
:100E60000064004003480068416941F002014161AB
:100E700070470000840600202DE9F04190F82080A2
:100E80001D4617460E00044606D0012E04D04FF42E
:100E9000BE613BA005F082FEB8F1010F06D0B8F1AB
:100EA000020F03D0606A40F480205EE02068002ECC
:100EB00056D00069800755D04FF4D870216800EBF8
:100EC0000610095811F00401B960216809584FD083
:100ED000C90879602168085800F00200F8604FF4F2
:100EE000DA70216800EB0610095801F00F01396132
:100EF00021680958C1F30721B96121680858000C1D
:100F000078614FF4DC70216800EB061009582970F5
:100F100021680958090A697021680958090CA970E3
:100F200021680858000EE8704FF4DE70216800EB6D
:100F300006100958297121680958090A6971216840
:100F40000958090CA97121680858000EE871206839
:100F50008EB1016941F0200101610020BDE8F081FE
:100F6000C068A7E7606A40F4001060620120F5E7FE
:100F7000490D3960AEE7C16841F02001C160ECE77E
:100F80002E2E2F447269766572732F53544D33326F
:100F9000463478785F48414C5F4472697665722FB9
:100FA0005372632F73746D3332663478785F68617F
:100FB0006C5F63616E2E63002DE9F05F054600688B
:100FC00000244669D0F804908768D0F80CB0D0F8B7
:100FD00010A0D0F81880F10748D0F90714D00121EB
:100FE0008160B80703D5284600F0FBFA0CE07807CB
:100FF00002D54FF4006407E0380702D54FF480545F
:1010000002E0284600F0ECFAF80516D529684FF4FE
:1010100080708860B80503D5284600F0E4FA0CE03B
:10102000780502D544F4005407E0380502D544F4AD
:10103000804402E0284600F0D5FAF80316D5296866
:101040004FF480308860B80303D5284600F0CDFA0D
:101050000CE0780302D544F4004407E0380302D5DD
:1010600044F4803402E0284600F0BEFA300707D589
:101070005FEACB6004D52968102044F40074C8608E
:1010800070074FF0080707D55FEA0B7004D5286892
:10109000C760284600F03EFAB00706D52868C06849
:1010A000800702D0284600F037FA700607D55FEABD
:1010B000CA6004D52968102044F480640861B00631
:1010C00007D55FEA0A7004D528680761284600F052
:1010D00057FAF00606D528680069800702D028462E
:1010E00000F04FFAB00308D55FEAC96005D529685A
:1010F00010204860284600F045FAF00307D55FEA63
:10110000097004D528684760284600F06FFA30045B
:1011100046D55FEA497040D5F00504D55FEAC8704E
:1011200001D044F00104B00504D55FEA887001D510
:1011300044F00204700504D55FEA487001D544F01C
:101140000404300529D518F0700F26D008F070007F
:10115000402815D006DC102809D020280AD03028D5
:1011600016D10AE050280ED0602811D10EE044F0CC
:1011700008040DE044F010040AE044F0200407E005
:1011800044F0400404E044F0800401E044F480743E
:101190002868816921F07001816129680420486014
:1011A000002C05D0686A204368622846FFF75AFE83
:1011B000BDE8F09F70B504007ED0A4492068884245
:1011C00007D0A349884204D040F21D11A1A005F028
:1011D000E5FC207E30B1012804D04FF48F719DA032
:1011E00005F0DCFC607E30B1012804D040F21F1114
:1011F00098A005F0D3FCA07E30B1012804D04FF4B4
:10120000907194A005F0CAFCE07E30B1012804D0B2
:1012100040F221118FA005F0C1FC207F30B10128E0
:1012200004D04FF491718BA005F0B8FC607F30B111
:10123000012804D040F2231186A005F0AFFCA0687D
:1012400068B1B0F1804F0AD0B0F1004F07D0B0F1D3
:10125000404F04D04FF492717EA005F09FFCE068EF
:1012600068B1B0F1807F0AD0B0F1007F07D0B0F153
:10127000407F04D040F2251176A005F08FFC206954
:1012800098B3B0F5803F30D0B0F5003F2DD0B0F529
:10129000403F2AD0B0F5802F27D0B0F5A02F24D022
:1012A000B0F5C02F21D0B0F5E02F1ED0B0F5002F43
:1012B0001BD0B0F5102F00E041E016D0B0F5202F84
:1012C00013D0B0F5302F10D0B0F5402F0DD0B0F5C1
:1012D000502F0AD0B0F5602F07D0B0F5702F04D092
:1012E0004FF493715BA005F059FC6069C8B1B0F58B
:1012F000801F16D0B0F5001F13D0B0F5401F10D0DE
:10130000B0F5800F0DD0B0F5A00F0AD0B0F5C00F2A
:1013100007D0B0F5E00F04D040F227114DA005F042
:101320003DFC6068401EB0F5806F04D34FF49471AB
:1013300048A005F033FC94F8200010B104E001202F
:1013400070BD204600F0A2F82068016841F001015C
:10135000016000F0C9FD0546052604E000F0C4FD6B
:10136000401B0A2811D820684068C007F6D02068C2
:10137000016821F00201016000F0B6FD05460BE0B6
:1013800000F0B2FD401B0A2806D9606A40F4003024
:10139000606284F82060D2E7206840688007EFD45C
:1013A000207E0128206801683DD021F08001016085
:1013B000607E01282068016838D021F0400101607A
:1013C000A07E01282068016833D021F0200101604F
:1013D000E07E0128206801682ED041F010010160F4
:1013E000207F01282068016829D021F008010160D0
:1013F000607F01282068016824D021F00401016089
:10140000D4E902010843D4E9041211430843616896
:10141000491E08432168C86100206062012084F8E9
:101420002000002070BD41F08001C0E741F0400184
:10143000C5E741F02001CAE721F01001CFE741F0F4
:101440000801D4E741F00401D9E70000006400403E
:10145000006800402E2E2F447269766572732F53F8
:10146000544D3332463478785F48414C5F4472695A
:101470007665722F5372632F73746D3332663478CE
:10148000785F68616C5F63616E2E630010B586B033
:10149000044614216846FEF73FFF1B492068884236
:1014A0002FD11A480021026842F0007202600068E1
:1014B00000F00070059015481038026842F00802EC
:1014C00002600068022200F0080005900320CDE9C8
:1014D0000210CDE900020920049069460C4800F092
:1014E00085FB00220521132000F036FE132000F0BA
:1014F00001FE00220521142000F02EFE142000F031
:10150000F9FD06B010BD0000006400404038024004
:10151000000C02407047000000B58BB001AB03AA7D
:101520000021FFF7A9FC0398A0F2012006281AD891
:101530001049C0B200EB800208700F4901EB420075
:1015400031F812300381BDF804305BBA21F8123053
:10155000BDF8061049BA4180BDF8081049BA81802B
:101560009DF80A10817102210448FFF77BFA0BB045
:1015700000BD000000000020E800002084060020DC
:10158000704770477047000070B5044690F820001F
:10159000012804D0606A40F40020606218E0022054
:1015A00084F820002068016821F00101016000F04A
:1015B0009BFC05460EE000BF00F096FC401B0A288D
:1015C00008D9606A40F400306062052084F8200089
:1015D000012070BD20684068C007EDD1606270BD19
:1015E00070477047704770477047704770472DE9E4
:1015F000F0410446876D00F077FC064694F835000C
:101600000025022806D08020606584F8345001202F
:10161000BDE8F0812068016821F0160101602068B2
:10162000416921F080014161206C08B9A06C20B1B2
:101630002068016821F0080101602068016821F03C
:10164000010101600CE000F04FFC801B052807D968
:1016500020206065032084F8350084F83450D7E7F3
:1016600020680068C007EED194F85C103F208840E5
:10167000B860012084F8350084F834500020C7E7B2
:1016800090F83510022903D0802141650120704770
:10169000052180F835100068016821F00101016022
:1016A000002070472DE9F84304464FF00009CDF8BB
:1016B000009063484FF41651A56D0068B0FBF1F738
:1016C0002E6894F85C10082000FA01F131420FD026
:1016D00021680A6852070BD50A6822F004020A60E2
:1016E00094F85C108840A860606D40F0010060656F
:1016F00094F85C104FF0010808FA01F0304208D06D
:1017000021684969090604D5A860606D40F00200AF
:10171000606594F85C1004208840304208D021684D
:101720000968890704D5A860606D40F00400606511
:1017300094F85C1010208840304218D02168096865
:10174000090714D5A86020680168490304D500681A
:10175000000308D5A16C07E00168C90503D401683E
:1017600021F008010160216C09B12046884794F8F6
:101770005C1020208840304231D021680968C906B9
:101780002DD5A86094F8350005282068016806D09A
:10179000490347D5006800031DD4616C1CE021F0AB
:1017A000160101602068416921F080014161206CCF
:1017B00008B9A06C20B12068016821F0080101601F
:1017C00094F85C103F208840A86084F8358084F845
:1017D0003490216D1FE0E16B09B120468847606DB0
:1017E00000282BD0606DC00714D0052084F8350088
:1017F0002068016821F0010101600098401C009000
:10180000B84203D820680068C007F6D184F8358054
:1018100084F83490E16C002910D001B02046BDE876
:10182000F04308470168C905D5D4016821F01001CB
:10183000016084F8358084F83490CCE7BDE8F88303
:10184000780000202DE9F041044600F04DFB0546EC
:10185000002C7CD0A249206888423ED0A049183193
:1018600088423AD09E493031884236D09C4948312E
:10187000884232D09A49603188422ED098497831D6
:1018800088422AD096499031884226D09449A8317E
:10189000884222D0934988421FD092491831884209
:1018A0001BD090493031884217D08E494831884248
:1018B00013D08C49603188420FD08A4978318842F0
:1018C0000BD088499031884207D08649A831884298
:1018D00003D0B72184A005F061F96068C0B1B0F110
:1018E000007F15D0B0F1806F12D0B0F1C06F0FD073
:1018F000B0F1006F0CD0B0F1206F09D0B0F1406FA3
:1019000006D0B0F1606F03D0B82177A005F046F99A
:10191000A06838B1402805D0802803D0B92172A032
:1019200005F03CF9E068B0F5007F04D018B1BA21A9
:101930006DA005F033F92069B0F5806F04D018B1BF
:10194000BB2169A005F02AF9606958B100E071E097
:10195000B0F5006F06D0B0F5805F03D0BC2162A067
:1019600005F01CF9A06948B1B0F5005F06D0B0F5EC
:10197000804F03D0BD215CA005F010F9E06940B1B3
:10198000B0F5807F05D0202803D0BE2156A005F0F9
:1019900005F9206A60B1B0F5803F09D0B0F5003F8D
:1019A00006D0B0F5403F03D0BF214FA005F0F6F8B8
:1019B000606A002832D0042806D0C0214AA005F071
:1019C000EDF8606A002829D0A06A48B1012807D044
:1019D000022805D0032803D0C52143A005F0DEF876
:1019E000E06A60B1B0F5000F09D0B0F1807F06D099
:1019F000B0F1C07F03D0C6213BA005F0CFF8206B2B
:101A000060B1B0F5001F09D0B0F5800F06D0B0F579
:101A1000C00F03D0C72134A005F0C0F8022084F81D
:101A20003500002684F834602068016821F0010147
:101A300001600EE00120BDE8F08100BF00F054FA23
:101A4000401B052805D920206065032084F8350057
:101A5000F1E720680068C007F0D1226811683048BB
:101A60000140D4E901031843D4E903352B4318435B
:101A700063691843A3691843E3691843236A184349
:101A80000843616A042903D1D4E90B1319430843BD
:101A9000106020684069656A20F007002946054308
:101AA000012704290CD1A06A0543E06A40B1204611
:101AB000FEF778FF20B14020606584F83570B9E703
:101AC000206845612046FEF759FF94F85C203F21CD
:101AD00091408160666584F835700020ABE70000B6
:101AE00010600240106402402E2E2F447269766509
:101AF00072732F53544D3332463478785F48414CDB
:101B00005F4472697665722F5372632F73746D33FD
:101B100032663478785F68616C5F646D612E630053
:101B20003F8010F02DE9F04789460446876D002577
:101B3000581E4FF6FF711E469046884204D340F26D
:101B4000CB111CA005F02AF894F8340001280DD020
:101B5000012084F8340094F835100020012907D0C2
:101B600084F8340002252846BDE8F0870220FBE710
:101B7000022184F8351060653346424649462046C6
:101B8000FEF73AFF94F85C103F208840B860206868
:101B9000016841F016010160206C20B120680168E5
:101BA00041F0080101602068016841F00101016015
:101BB000D9E700002E2E2F447269766572732F5379
:101BC000544D3332463478785F48414C5F447269F3
:101BD0007665722F5372632F73746D333266347867
:101BE000785F68616C5F646D612E63002DE9F84F6A
:101BF000DFF888B20D46044658451BD0A048844201
:101C000018D0A048844215D09F48844212D09F48E3
:101C100084420FD09E4884420CD09E48844209D012
:101C20009D48844206D09D48844203D0AC219CA0AC
:101C300004F0B4FF28680104090C01D0000C03D0A3
:101C4000AD2197A004F0AAFF6868F8B101281DD063
:101C500011281BD0022819D0122817D0B0F5881FE0
:101C600014D0B0F5041F11D0B0F5441F0ED0B0F55C
:101C7000901F0BD0B0F5081F08D0B0F5481F05D055
:101C8000032803D0AE2186A004F088FF00264FF081
:101C9000010A4FF0030900BF0AFA06F02F688046D8
:101CA000074047457ED1287900F00300012801D084
:101CB00002281DD1E86848B1012807D0022805D0C4
:101CC000032803D0C02176A004F068FFA168720049
:101CD00009FA02F08143E86890400843A060606818
:101CE000297920EA0800C1F30011B1400143616085
:101CF0002879C043800712D0A86838B1012805D0E0
:101D0000022803D0D12166A004F048FFE1687200E8
:101D100009FA02F08143A86890400843E0602879FE
:101D200000F0030002282ED12869F8B109281DD03F
:101D300001281BD0022819D0032817D0042815D059
:101D4000052813D0062811D007280FD008280DD059
:101D50000A280BD00B2809D00C2807D00D2805D055
:101D60000F2803D0DE214EA004F018FFF00804EB8A
:101D70008002106A7107CB0E0F21994088432969B0
:101D80009940014311622068720009FA02F1884308
:101D9000297901F00301914001432160686810F442
:101DA000403F00E063E062D04C48016841F480416C
:101DB0000160006826F0030100F48040009048486C
:101DC0000A18D2F80808B1070B0F0F219940884371
:101DD0005C4501D1002123E029498C4201D1012138
:101DE0001EE028498C4201D1022119E026498C428B
:101DF00001D1032114E025498C4201D104210FE0D7
:101E000023498C4201D105210AE022498C4201D1AB
:101E1000062105E020498C4201D1072100E008217C
:101E200099400143C2F808182E4908686A68B84307
:101E3000D20200D5384308602A49091D08686A683B
:101E4000B843920200D5384308602649091F086844
:101E50006A68B843920300D53843086021490839BD
:101E600008686A68B843D20300D538430860761C16
:101E7000102EFFF411AFBDE8F88F00000000024003
:101E80000004024000080240000C02400010024022
:101E90000014024000180240001C024000200240D2
:101EA0002E2E2F447269766572732F53544D333240
:101EB000463478785F48414C5F4472697665722F8A
:101EC0005372632F73746D3332663478785F686150
:101ED0006C5F6770696F2E63000000004438024039
:101EE00000300140083C0140014880687047000014
:101EF0006C00002070B5040033D026492068884269
:101F000003D0AE2124A004F049FE606878B1012816
:101F10000DD002280BD0032809D0042807D00528AB
:101F200005D0062803D0AF211BA004F037FEA0681F
:101F3000B0F5805F03D3B02117A004F02FFE216815
:101F40004CF6CC400860216845F255500860D4E951
:101F5000000141602168A0688860FFF7C5FF054661
:101F60000DE0012070BD00BFFFF7BEFF401B312810
:101F700005D92068C068800701D0032070BD2068A3
:101F8000C0688007F0D121684AF6AA2008600020C6
:101F900070BD0000003000402E2E2F44726976651F
:101FA00072732F53544D3332463478785F48414C26
:101FB0005F4472697665722F5372632F73746D3349
:101FC00032663478785F68616C5F697764672E6326
:101FD0000000000000684AF6AA2101600020704756
:101FE0000248816802781144816070476C000020CB
:101FF0000B4810B5016841F400710160016841F4BB
:1020000080610160016841F480710160032000F08B
:10201000F3F80F2000F006F800F050F8002010BD93
:10202000003C024030B505461F4887B000240168D7
:1020300041F020010160006806A900F02000009036
:1020400001A800F047FA0498A8B100F063FA400034
:102050001649174AB0FBF1F11648491E026040F2DA
:10206000E732C0E90324C0E90114846100F052FEA4
:10207000040003D015E000F04DFAE9E70D4800F048
:1020800089FF04000DD1372000F034F8102D07D25D
:1020900000222946372000F05FF80748056000E07D
:1020A000012407B0204630BD4038024040420F00B6
:1020B0000014004054090020700000200C4882B039
:1020C000016841F480410160006800F480400090A4
:1020D0000748001F016841F080510160006800223C
:1020E00000F0805000900F21901E02B000F034B834
:1020F0004438024010B5040003D5BC2107A004F009
:102100004DFD002C09DB04F01F010120884061090E
:10211000890001F1E021C1F8000110BD2E2E2F44ED
:102120007269766572732F53544D33324634787822
:102130005F48414C5F4472697665722F5372632F1A
:1021400073746D3332663478785F68616C5F636F87
:10215000727465782E63000070B515460C4606460D
:10216000102A03D3A82114A004F018FD102C03D3C7
:10217000A92111A004F012FD1E480068C0F302233B
:10218000C3F107022046042A00D90422191D072999
:1021900001D2002300E0DB1E012404FA02F1491EF3
:1021A000014099409C40641E2C4021433046BDE8CC
:1021B000704004F090BC00002E2E2F4472697665AA
:1021C00072732F53544D3332463478785F48414C04
:1021D0005F4472697665722F5372632F73746D3327
:1021E00032663478785F68616C5F636F72746578AB
:1021F0002E6300000CED00E010B5044607280BD05C
:10220000062C09D0052C07D0042C05D0032C03D0B4
:10221000902108A004F0C2FC154904F007020868E8
:102220004FF6FF03184040EA0220124A10430860AC
:1022300010BD00002E2E2F447269766572732F53E5
:10224000544D3332463478785F48414C5F4472696C
:102250007665722F5372632F73746D3332663478E0
:10226000785F68616C5F636F727465782E630000DD
:102270000CED00E00000FA05704700002DE9F04782
:102280000E4604007DD02068401E0E2804D940F27E
:102290005A217AA004F082FC96B1012E10D0022EB1
:1022A0000ED0032E0CD0042E0AD0052E08D0062EF8
:1022B00006D0072E04D040F25B2170A004F06EFC23
:1022C000DFF8F081D8F80000F7B200F00700B04264
:1022D00007D288F80070D8F8000000F00700B0427C
:1022E0004FD12068744D810729D5400703D5286850
:1022F00040F4E05028602078000703D5286840F4B7
:1023000060402860A068A0B1802812D0902810D02A
:10231000A0280ED0B0280CD0C0280AD0D02808D0D1
:10232000E02806D0F02804D040F27E2153A004F02B
:1023300035FC2868A16820F0F00008432860207868
:10234000C00743D0DFF870916068A9F1080988B12F
:10235000012822D0022824D0032822D040F285214F
:1023600046A004F01BFC6068012816D0022818D093
:10237000032816D0D9F800008007002833DA28682F
:1023800000E030E0616820F0030008432860FFF7B8
:10239000ABFD814641F2883A11E0D9F80000800394
:1023A000EBE7D9F800008001E7E700BFFFF79CFDED
:1023B000A0EB0901514502D90320BDE8F087286848
:1023C000616800F00C00B0EB810FEFD1D8F800107D
:1023D000404601F00701B14207D90770006800F0DC
:1023E0000700B04201D00120E7E720784FF4805683
:1023F00040074FF4A0574FF4C0584FF4E05914D59C
:10240000E06860B1B0420AD0B84208D0404506D07A
:10241000484504D040F2C32118A004F0BFFB28684F
:10242000E16820F4E050084328602078000715D5C3
:10243000206960B1B0420AD0B84208D0404506D009
:10244000484504D040F2CA210CA004F0A7FB28683C
:10245000216920F4604040EAC100286000F07AF869
:102460002968164AC1F30311515CC8401449086039
:1024700014480068FFF7D6FD00209EE72E2E2F445B
:102480007269766572732F53544D333246347878BF
:102490005F48414C5F4472697665722F5372632FB7
:1024A00073746D3332663478785F68616C5F726321
:1024B000632E6300003C024008380240887F000819
:1024C000780000207000002001490120C864704796
:1024D000000047420F2202600C4A136803F0030316
:1024E0004360136803F0F0038360136803F4E05360
:1024F000C36012684FF4E05303EAD2020261044859
:10250000006800F0070008607047000008380240CB
:10251000003C02400448054900680968044AC1F3C8
:102520008221515CC8407047780000200838024082
:10253000987F00080448054900680968044AC1F307
:102540004231515CC8407047780000200838024092
:10255000987F0008154810B5006810F00C02144868
:1025600013D04110042A0FD0082A0ED10F4C241F7B
:102570002268236802F03F025B0207D52068C0F39F
:102580008810A0FB010106E0084610BD2168C1F3D8
:102590008811A1FB00010023FDF774FE2168C1F33F
:1025A0000141491C4900B0FBF1F010BD0838024060
:1025B0000024F400054810B50068000605D5FFF7B3
:1025C0005BFE02498020891C087010BD0C38024057
:1025D0002DE9F84F04007DD020680F2803D9E621AB
:1025E000F7A004F0DBFA2078DFF80C94C007A9F11B
:1025F000040555D060684FF480364FF4A02738B1F9
:10260000B04205D0B84203D0EB21EDA004F0C6FAE9
:10261000F948001D0168C1F38101012908D0006853
:10262000C0F3810002280AD1D9F80000400206D583
:102630002868800334D560680028CCD030E060681A
:10264000B04203D1286840F480300CE0B8422868DA
:1026500003D140F480202860F4E720F48030286023
:10266000286820F480202860606860B1FFF73CFC97
:10267000064604E0FFF738FC801B64287ED82868F3
:102680008003F7D50CE0FFF72FFC064605E000BFFE
:10269000FFF72AFC801B6428F0D828688003F7D451
:1026A0002078DFF8588380074FF0000A56D5E0689D
:1026B00030B1012804D040F21D11C1A004F06EFA1F
:1026C00020691F2804D94FF48F71BDA004F066FA69
:1026D000C94800E092E0001D016811F00C0F08D01D
:1026E0000068C0F38100022810D1D9F80000400230
:1026F0000CD42868800702D5E06801287ED12868BC
:10270000216920F0F80040EAC10017E0E068B8B1A4
:102710000120C8F80000FFF7E7FB064605E000BF10
:10272000FFF7E2FB801B0228A8D828688007F7D5AE
:10273000286820F0F801206941EAC00028600DE017
:10274000C8F800A0FFF7D0FB064604E0FFF7CCFB7B
:10275000801B022892D828688007F7D420780007C9
:102760002ED5A54EA64F60697036D0B1012808D08D
:102770004FF4AF7192A004F011FA00E04BE16069F0
:1027800078B101203860FFF7AFFB074605E000BFD6
:10279000FFF7AAFBC01B0228C6D830688007F7D510
:1027A0000EE0C7F800A0FFF79FFB074605E000BF5B
:1027B000FFF79AFBC01B0228B6D830688007F7D411
:1027C0002078400776D5A068002740B1012806D0C0
:1027D000052804D04FF4C57179A004F0DFF9DFF8C3
:1027E00018B20BF13C0BDBF80000C0000DD4DBF895
:1027F000001041F08051CBF8001000E038E1DBF828
:102800000000012700F0805000907E4E3068C00527
:1028100011D4306840F480703060FFF765FB0090A1
:1028200006E000BFFFF760FB0099401A022891D82C
:102830003068C005F6D5704EA0686C3601280FD000
:102840000528306810D020F001003060306820F09A
:1028500004003060A068B8B1FFF746FB00900FE0BD
:10286000306840F00100F4E740F004003060F7E722
:10287000FFF73AFB0099411A41F2883081428BD828
:1028800030688007F4D50EE0FFF72EFB009007E0DC
:10289000FFF72AFB0099411A41F2883081428BD818
:1028A00030688007F4D42FB1DBF8001021F080519C
:1028B000CBF80010A069002876D0012809D00228A2
:1028C00007D040F2CD113EA004F068F9A0690028BD
:1028D000F2D04948001D0068C0F381000228A069B9
:1028E0006DD0022805D0C8F860A0FFF7FDFA0446B5
:1028F00094E0E06938B1B0F5800F04D04FF4EB718B
:102900002FA004F04BF9206A3F2804D940F2D711D8
:102910002BA004F043F9606A3238B0F5BF7F04D9C8
:102920004FF4EC7126A004F039F9A06A02280AD00D
:10293000042808D0062806D0082804D040F2D9116F
:102940001FA004F02BF9E06A801E0D2804D94FF473
:10295000ED711BA004F022F94746C8F860A0FFF70C
:10296000C3FA064605E000BFFFF7BEFA801B022847
:1029700051D828688001F7D4D4E907010843A16A37
:10298000214A490802EB0141626A41EA8211084387
:1029900094F82C1040EA0161C9F800100120386653
:1029A000FFF7A2FA044606E064E000BFFFF79CFAD6
:1029B000001B02282FD828688001F7D55AE031E0A3
:1029C0002E2E2F447269766572732F53544D333215
:1029D000463478785F48414C5F4472697665722F5F
:1029E0005372632F73746D3332663478785F686125
:1029F0006C5F7263632E630004380240000047423C
:102A0000800E4742007000400000FFFFFFF76CFAA5
:102A1000001B022802D90320BDE8F88F2868800136
:102A2000F4D427E00128F7D0D9F80000E26900F4D7
:102A3000800191421CD1226A00F03F01914217D1DE
:102A400047F6C071626A0140B1EB821F10D1A26AE1
:102A50004FF0FF3300F4403103EB5202B1EB024F71
:102A600006D194F82C1000F07060B0EB016F01D02B
:102A70000120D1E70020CFE77047704770B50C46C2
:102A8000054600683E49884207D03E49884204D046
:102A900040F2EE713CA004F081F82068B0F5006FC0
:102AA00005D020B140F2EF7137A004F077F86068EC
:102AB000B0F5806F05D020B14FF4FE6132A004F074
:102AC0006DF8A06868B1B0F5807F0AD0B0F5007FDE
:102AD00007D0B0F5407F04D040F2F1712AA004F095
:102AE0005DF8E068FF2804D940F2F27126A004F0F6
:102AF00055F82069B0F5805F05D020B140F2F37140
:102B000021A004F04BF8606938B1B0F5005F04D043
:102B100040F2F4711CA004F041F8E069B0F5804F78
:102B200005D020B140F2F57117A004F037F895F800
:102B30003C00012822D0012085F83C00E068A26812
:102B400020F440701043626820F4806010432268D3
:102B500020F400601043226920F480501043626921
:102B600020F400501043E269002120F4804010431B
:102B70002A68506485F83C10002070BD022070BDAA
:102B800000000140000401402E2E2F44726976653A
:102B900072732F53544D3332463478785F48414C2A
:102BA0005F4472697665722F5372632F73746D334D
:102BB00032663478785F68616C5F74696D5F6578E0
:102BC0002E6300002DE9F05F044600683A4E3B4F4B
:102BD000DFF8EC80DFF8EC90DFF8ECA00D464FF06A
:102BE000804BB04215D0584513D0B84211D0404563
:102BF0000FD048450DD04FEAB641884209D033493D
:102C0000884206D0504504D040F2B17130A003F0A4
:102C1000C5FF286890B1102810D020280ED0302889
:102C20000CD040280AD0502808D0602806D0702840
:102C300004D040F2B27126A003F0B0FF686880288B
:102C400005D020B140F2B37121A003F0A7FF94F8A2
:102C50003C0001282DD0012284F83C20022084F879
:102C60003D00216848688B6820F0700C286840EAB5
:102C70000C0048602068B0420FD058450DD0B842D3
:102C80000BD0404509D0484507D0504505D01F49D5
:102C9000884202D01E49884204D1696823F080032B
:102CA0001943816084F83D20002084F83C00BDE891
:102CB000F09F0220FBE700000000014000040040FC
:102CC00000080040000C00400004014000140040D7
:102CD0002E2E2F447269766572732F53544D333202
:102CE000463478785F48414C5F4472697665722F4C
:102CF0005372632F73746D3332663478785F686112
:102D00006C5F74696D5F65782E6300000040014060
:102D10000018004010B5040058D03F492068884290
:102D20002BD0B0F1804F28D03C49884225D03C4977
:102D3000884222D03B4988421FD03B4988421CD060
:102D40003A49884219D03A49884216D039498842CE
:102D500013D03949884210D0384988420DD03849BB
:102D600088420AD03749884207D03749884204D080
:102D700040F2131135A003F011FFA06860B11028D4
:102D80000AD0202808D0402806D0602804D04FF46C
:102D90008A712EA003F002FF206950B1B0F5807F48
:102DA00007D0B0F5007F04D040F2151127A003F042
:102DB000F5FEA06930B1802804D04FF48B7123A0B8
:102DC00003F0ECFE94F83D0010B107E0012010BDC7
:102DD000002084F83C00204600F054F8022084F8DB
:102DE0003D00211D206802F099FF012084F8460073
:102DF00084F83E0084F83F0084F8400084F84100E5
:102E000084F8420084F8430084F8440084F84500C4
:102E100084F83D00002010BD000001400004004087
:102E200000080040000C004000100040001400406A
:102E300000040140004001400044014000480140BE
:102E400000180040001C0040002000402E2E2F449F
:102E50007269766572732F53544D333246347878E5
:102E60005F48414C5F4472697665722F5372632FDD
:102E700073746D3332663478785F68616C5F74693F
:102E80006D2E630010B586B0044614216846FDF728
:102E900043FA3848226800233749824205D108683E
:102EA00040F00100086008682BE03348001FB2F1D1
:102EB000804F21D0314CA24227D1016841F002015C
:102EC0000160006800F0020005902B48143801688A
:102ED00041F0020101600068694600F002000590BF
:102EE000102000900220CDE90103CDE903302448F1
:102EF000FEF77CFE06B010BD016841F001010160E3
:102F0000006800F001000590F4E71E4B9A4207D1DB
:102F1000016841F004010160006800F00400F2E77C
:102F2000194B9A4210D1016841F01001016000680C
:102F3000002200F01000059005213620FFF70CF963
:102F40003620FFF7D7F8D5E71048824207D1086846
:102F500040F002000860086800F00200D3E70C4867
:102F60008242C7D1086840F480300860086800F4E5
:102F70008030C8E7000001404438024000040040AF
:102F8000000402400008004000100040000401401E
:102F9000004001402DE9F05F044600682F4D304E9F
:102FA000304FDFF8C480DFF8C490DFF8C4A0DFF84A
:102FB000C4B0A84226D0B0F1804F23D0B04221D077
:102FC000B8421FD040451DD04FEAB541884219D0C4
:102FD0002949884216D0484514D0504512D0274977
:102FE00088420FD0264988420CD058450AD025493E
:102FF000884207D02449884204D040F2CF1123A050
:1030000003F0CCFD94F83D00012802D00120BDE87A
:10301000F09F022084F83D002068C16841F0010162
:10302000C1602068A8420ED0B0F1804F0BD0B042F2
:1030300009D0B84207D0404505D0484503D0504597
:1030400001D0584504D1816801F00701062903D059
:10305000016841F0010101600020D8E70000014053
:103060000004004000080040000C00400004014043
:10307000004001400018004000140040004401409E
:1030800000480140001C0040002000402E2E2F442C
:103090007269766572732F53544D333246347878A3
:1030A0005F48414C5F4472697665722F5372632F9B
:1030B00073746D3332663478785F68616C5F7469FD
:1030C0006D2E63002DE9F84F05460020009095F81D
:1030D0003C000C46012841D0012085F83C0002202C
:1030E00085F83D0020684FF4805B584516D0702865
:1030F00014D0B0F5005F11D040280FD050280DD06B
:1031000060280BD050B1102808D0202806D03028D5
:1031100004D041F2B741D4A003F040FD2868816893
:1031200021F0770121F47F4181602068DC49DD4A8C
:10313000DD4BDE4EDE4FDFF87CC3DFF87C834FF0E3
:1031400080494FF4004A50287ED00FDC202804D05C
:1031500007DC0028FBD0102877D161E10220BDE810
:10316000F88F3028F9D04028F6D126E160286DD0BC
:10317000702874D0584544D04FF400584045EBD1E6
:10318000286888420ED048450CD090420AD0984218
:1031900008D0B04206D0B84204D041F2E241B2A019
:1031A00003F0FCFCA06858B1584509D0404507D051
:1031B000B0F5405F04D041F2E541ABA003F0EEFC76
:1031C0006068504509D040B1022806D00A2804D0D2
:1031D00041F2E641A4A003F0E1FCE0680F2804D925
:1031E00041F2E741A0A003F0D9FCD4E90121E36852
:1031F000286802F071FE2868816841F4804181608E
:1032000029E128688842FBD04845F9D09042F7D0A0
:103210009842F5D0B042F3D0A8498842F0D0A849EE
:103220008842EDD0B842EBD06045E9D0A54988424C
:10323000E6D0A5498842E3D04045E1D0A349884281
:10324000DED0A349884203E04FE002E180E006E0DF
:10325000D6D041F2C34184A003F0A0FCFBE0286873
:10326000884212D0484510D090420ED098420CD0DF
:10327000B0420AD0B84208D0604506D0404504D0DC
:1032800041F2CA4178A003F089FCA06860B15845BA
:103290000AD0B0F5005F07D0B0F5405F04D041F22E
:1032A000CD4171A003F07AFC6068504509D040B16F
:1032B000022806D00A2804D041F2CE416AA003F0C9
:1032C0006DFCE0680F2804D941F2CF4166A003F0FD
:1032D00065FCD4E90121E368286802F0FDFD296856
:1032E000886840F077008860B5E02868884212D08E
:1032F000484510D090420ED098420CD0B0420AD02F
:10330000B84208D0604506D0404504D041F2F641AD
:1033100055A003F043FC6068504509D040B1022835
:1033200006D00A2804D041F2F9414FA003F036FC40
:10333000E0680F2804D941F2FA414BA003F02EFCBB
:10334000E2686168286803F0F5F85021286831E0E8
:103350002868884212D0484510D090420ED098423A
:103360000CD0B0420AD0B84208D0604506D04045E3
:1033700004D041F206513CA003F010FC60685045B7
:1033800009D040B1022806D00A2804D041F20951E0
:1033900035A003F003FCE0680F2804D941F20A517C
:1033A00031A003F0FBFBE2686168286803F014F9C0
:1033B0006021286802F09AFD4DE02868884212D00A
:1033C000484510D090420ED098420CD0B0420AD05E
:1033D000B84208D0604506D0404504D041F21651AD
:1033E00021A003F0DBFB6068504509D040B1022802
:1033F00006D00A2804D041F219511BA003F0CEFBDD
:10340000E0680F2804D941F21A5117A003F0C6FB57
:10341000E2686168286803F08DF840212868C9E7F0
:103420002868884212D0484510D090420ED0984269
:103430000CD0B0420AD0B84208D0604506D0404512
:1034400004D041F2295108A003F0A8FB21682868A4
:10345000B0E701200090012085F83D00002085F8AC
:103460003C0000987BE600002E2E2F4472697665A2
:1034700072732F53544D3332463478785F48414C41
:103480005F4472697665722F5372632F73746D3364
:1034900032663478785F68616C5F74696D2E6300A2
:1034A000000001400004004000080040000C004003
:1034B000000401400040014000180040001000409E
:1034C000001400400044014000480140001C00403E
:1034D00000200040704700002DE9F84F054600200D
:1034E0000090924F2868DFF84882DFF84892DFF8B2
:1034F00048A2DFF848B216460C46B84221D0B0F1D7
:10350000804F1ED040451CD048451AD0504518D099
:10351000584516D08A49884213D08A49884210D02B
:10352000894988420DD0894988420AD08849884211
:1035300007D08849884204D041F2120186A003F0E6
:103540002DFB206840B1022806D00A2804D041F2A1
:10355000130181A003F022FB6068012808D0022833
:1035600006D0032804D041F214017BA003F016FB1F
:10357000A06850B1042808D0082806D00C2804D030
:1035800041F2150174A003F009FBE0680F2804D98B
:1035900041F2160170A003F001FB95F83C000128F0
:1035A00010D0012085F83C0076B1042E1CD0082EE6
:1035B00045D00C2E7CD00090002085F83C0000986F
:1035C000BDE8F88F0220FBE7D4E90012E368286821
:1035D00002F0C2FF2868816921F00C01816128682E
:1035E0008169A268114328E02868B84215D0B0F17B
:1035F000804F12D0404510D048450ED050450CD0D9
:1036000058450AD04E49884207D05049884204D0D4
:1036100041F22C0150A003F0C1FAD4E90012E36892
:10362000286802F0EBFF2868816921F4406181611C
:1036300028688169A26841EA02218161BCE72868A3
:10364000B8420FD0B0F1804F0CD040450AD0484569
:1036500008D0504506D0584504D041F23C013EA068
:1036600003F09CFA2868D4E90027267B016A21F43C
:1036700080710162C169036A21F00301394321F0BD
:10368000F00731074FF4206647EA116123F4206305
:1036900006EA02221A43C16102622868C16921F068
:1036A0000C01C1612868C169A26811433BE0FFE7D2
:1036B0002868B8420FD0B0F1804F0CD040450AD0F6
:1036C000484508D0504506D0584504D041F24C0139
:1036D00021A003F063FA2868D4E90021E668036AB0
:1036E00023F480530362C769036A27F4407747EAEB
:1036F000012121F470474FF6FF7101EA0631394389
:103700004FF4204623F4204306EA02321A43C161F3
:1037100002622868C16921F44061C1612868C169F9
:10372000A26841EA0221C16146E7000000000140B1
:103730000004004000080040000C0040000401406C
:103740000040014000440140004801400018004092
:10375000001C0040002000402E2E2F447269766528
:1037600072732F53544D3332463478785F48414C4E
:103770005F4472697665722F5372632F73746D3371
:1037800032663478785F68616C5F74696D2E6300AF
:1037900010B5040058D03F49206888422BD0B0F1C2
:1037A000804F28D03C49884225D03C49884222D0CD
:1037B0003B4988421FD03B4988421CD03A49884245
:1037C00019D03A49884216D03949884213D039492C
:1037D000884210D0384988420DD0384988420AD0F2
:1037E0003749884207D03749884204D040F2BF7138
:1037F00035A003F0D3F9A06860B110280AD02028C2
:1038000008D0402806D0602804D04FF4F8612EA0DC
:1038100003F0C4F9206950B1B0F5807F07D0B0F54E
:10382000007F04D040F2C17127A003F0B7F9A0696E
:1038300030B1802804D040F2C27123A003F0AEF969
:1038400094F83D0010B107E0012010BD002084F87D
:103850003C00204600F054F8022084F83D00211D71
:10386000206802F05BFA012084F8460084F83E00EC
:1038700084F83F0084F8400084F8410084F8420056
:1038800084F8430084F8440084F8450084F83D003F
:10389000002010BD0000014000040040000800406E
:1038A000000C0040001000400014004000040140E3
:1038B0000040014000440140004801400018004021
:1038C000001C0040002000402E2E2F4472697665B7
:1038D00072732F53544D3332463478785F48414CDD
:1038E0005F4472697665722F5372632F73746D3300
:1038F00032663478785F68616C5F74696D2E63003E
:10390000704700002DE9F05F0C0005464FF00008FD
:1039100067D0042C6AD0082C6DD095F8416095F8DA
:103920004570DFF8A4912868DFF8A0A1DFF8A0B106
:10393000484507D1002C51D0042C4FD0082C4DD035
:103940000C2C4BD0B0F1804F5AD0504506D1ECB37F
:10395000042C43D0082C41D00C2C3FD0584506D124
:10396000A4B3042C3AD0082C38D00C2C36D05949AA
:10397000884206D154B3042C30D0082C2ED00C2C05
:103980002CD05549884206D104B3042C26D0082CEB
:1039900024D00C2C22D05149884202D1B4B1042C3D
:1039A0001CD04F49884200D184B14E49884200D191
:1039B00064B14D49884202D144B1042C0ED04B4928
:1039C000884200D114B14A49884200E006E000D1A3
:1039D00024B140F69B0147A003F0E0F8012E1AD174
:1039E00017E095F83E6095F842709AE795F83F60C9
:1039F00095F8437095E795F8406095F8447090E726
:103A0000002CEBD0042CE9D0082CE7D00C2CE5D00E
:103A1000DFE7012F02D00120BDE8F09F022064B152
:103A2000042C13D0082C1AD085F8410085F84500E5
:103A30000C2C43D04FF001083EE085F83E0085F89D
:103A400042002868C16841F0020110E085F83F009B
:103A500085F843002868C16841F0040107E085F853
:103A6000400085F844002868C16841F00801C16041
:103A700001222146286802F0B5F92868484512D08D
:103A8000B0F1804F0FD050450DD058450BD01149A3
:103A9000884208D01049884205D01049884202D097
:103AA0001149884204D1816801F00701062903D039
:103AB000016841F0010101604046ADE72868C16836
:103AC00041F01001D3E70000000001400004004075
:103AD00000080040000C004000040140004001408C
:103AE000004401400048014000180040001C004014
:103AF000002000402E2E2F447269766572732F537A
:103B0000544D3332463478785F48414C5F44726993
:103B10007665722F5372632F73746D333266347807
:103B2000785F68616C5F74696D2E630070B50446E0
:103B3000006801694FF00005C943890715D4C168C1
:103B4000C943890711D4E91E01610120207720684B
:103B500080698007204602D0FFF7BCFC04E000F03B
:103B600031F9204600F01DFB257720680169C94323
:103B7000490717D4C168C943490713D46FF004013A
:103B80000161022020772068806910F4407F204680
:103B900002D0FFF79FFC04E000F014F9204600F08B
:103BA00000FB257720680169C943090716D4C1685D
:103BB000C943090712D46FF008010161042020777E
:103BC0002068C0698007204602D0FFF783FC04E02C
:103BD00000F0F8F8204600F0E4FA25772068016943
:103BE000C943C90617D4C168C943C90613D46FF0C5
:103BF00010010161082020772068C06910F4407F1F
:103C0000204602D0FFF766FC04E000F0DBF8204617
:103C100000F0C7FA257720680169C943C90708D1B0
:103C2000C168C943C90704D1891E0161204600F05B
:103C3000A7FB20680169C943090609D4C168C943C3
:103C4000090605D46FF0800101612046FEF714FFDC
:103C500020680169C943490609D4C168C9434906B6
:103C600005D46FF040010161204600F0F5FC2068AA
:103C70000169C94389060BD4C168C943890607D4C1
:103C80006FF0200101612046BDE87040FEF7F5BEEF
:103C900070BD000070B586B0044614216846FCF77C
:103CA0003BFB3E4B226800243D49022501263D484E
:103CB0009A4220D10A6842F010020A600A6802F0B3
:103CC000100205920A6842F001020A60096801F0D8
:103CD000010105914FF4C0410091CDE90154CDE9B6
:103CE00003466946FDF782FFE8010090CDE90154E3
:103CF00069462D4826E0B2F1804F14D02B4B9A42F2
:103D000026D1086840F0080008600868694600F09D
:103D1000080005904FF450400090CDE9015424482C
:103D2000CDE9034510E0086840F00200086008682B
:103D3000694600F0020005904FF440600090CDE924
:103D400001541C48CDE90346FDF750FF06B070BD95
:103D5000194E0323B2420ED1086840F004000860F7
:103D60000868694600F004000590C0200090CDE985
:103D7000015412480FE0124EB242E7D10A6842F0F5
:103D800010020A60096801F01001059120210091DC
:103D9000CDE901546946CDE90343D5E70000014070
:103DA000303802400010024000000240000800408D
:103DB000000C0240000402400004014000080240E0
:103DC00000400140704700002DE9F05F16000D46ED
:103DD00004464FF000090CD0042E0AD0082E08D05B
:103DE0000C2E06D03C2E04D041F2770177A002F0D1
:103DF000D5FE2868602806D0702804D041F27801EA
:103E000072A002F0CBFEA86830B1022804D041F2C3
:103E100079016EA002F0C2FE286930B1042804D0F6
:103E200041F27A0169A002F0B9FE94F83C00012841
:103E30001CD001207349744A744B754FDFF8D4C10C
:103E4000DFF8D4A1DFF8D4B184F83C004FF080480B
:103E500076B1042E41D0082E6AD00C2E7DD081463A
:103E6000002084F83C004846BDE8F09F0220FBE7B4
:103E7000206888421ED040451CD090421AD09842FB
:103E800018D0B84216D0604514D0504512D06449BD
:103E900088420FD0634988420CD058450AD0624905
:103EA000884207D06149884204D041F2840147A08A
:103EB00002F074FE2946206802F020F8206881692B
:103EC00041F0080181612068816921F0040181616C
:103ED000206881692A69114328E02068884212D04D
:103EE000404510D090420ED098420CD0B8420AD033
:103EF000604508D0504506D0584504D041F29501A0
:103F000032A002F04BFE2946206802F069F82068D2
:103F1000816941F4006181612068816921F48061D7
:103F20008161206881692A6941EA0221816197E7FC
:103F3000206888420ED040450CD090420AD098426A
:103F400008D0B84206D0604504D041F2A6011FA0B7
:103F500002F024FE2946206800E010E002F0B6F8E6
:103F60002068C16941F00801C1612068C16921F080
:103F70000401C1612068C1692A69114324E02068F5
:103F800088420ED040450CD090420AD0984208D0CA
:103F9000B84206D0604504D041F2B7010BA002F050
:103FA000FDFD2946206802F007F92068C16941F447
:103FB0000061C1612068C16921F48061C16120682C
:103FC000C1692A6941EA0221C16149E72E2E2F44C5
:103FD0007269766572732F53544D33324634787854
:103FE0005F48414C5F4472697665722F5372632F4C
:103FF00073746D3332663478785F68616C5F7469AE
:104000006D2E6300000001400004004000080040E5
:10401000000C004000040140004001400018004036
:104020000044014000480140001C004000200040C6
:1040300010B5040058D03F49206888422BD0B0F119
:10404000804F28D03C49884225D03C49884222D024
:104050003B4988421FD03B4988421CD03A4988429C
:1040600019D03A49884216D03949884213D0394983
:10407000884210D0384988420DD0384988420AD049
:104080003749884207D03749884204D040F2295145
:1040900035A002F083FDA06860B110280AD0202866
:1040A00008D0402806D0602804D040F22A512EA023
:1040B00002F074FD206950B1B0F5807F07D0B0F5F3
:1040C000007F04D040F22B5127A002F067FDA069C9
:1040D00030B1802804D040F22C5123A002F05EFDC4
:1040E00094F83D0010B107E0012010BD002084F8D5
:1040F0003C00204600F054F8022084F83D00211DC9
:10410000206801F00BFE012084F8460084F83E0090
:1041100084F83F0084F8400084F8410084F84200AD
:1041200084F8430084F8440084F8450084F83D0096
:10413000002010BD000001400004004000080040C5
:10414000000C00400010004000140040000401403A
:104150000040014000440140004801400018004078
:10416000001C0040002000402E2E2F44726976650E
:1041700072732F53544D3332463478785F48414C34
:104180005F4472697665722F5372632F73746D3357
:1041900032663478785F68616C5F74696D2E630095
:1041A000704770472DE9F05F05460068DFF86C81C5
:1041B0000227DFF86C91DFF86CA1DFF86CB15B4E81
:1041C0000C46404507D1002C63D0042C68D0082C45
:1041D0006DD00C2C56D0B0F1804F4CD0484507D153
:1041E000002C56D0042C5BD0082C60D00C2C49D06D
:1041F000504506D1F4B3042C52D0082C57D00C2CC7
:1042000040D0584506D1ACB3042C49D0082C4ED030
:104210000C2C37D0B04206D164B3042C40D0082C0B
:1042200045D00C2C2ED04249884202D114B3042C24
:1042300036D04049884200D1E4B13F49884200D19C
:10424000C4B13E49884202D1A4B1042C28D03C49D3
:10425000884200D174B13B49884200D154B140F248
:10426000AF5139A002F09AFC24B1042C18D0082CCC
:104270001DD007E00DE064B1042C11D0082C16D03D
:104280000C2CECD195F84100012817D00120BDE895
:10429000F09F95F83E000128F8D185F83E700FE0B8
:1042A00095F83F000128F1D185F83F7008E095F8B6
:1042B00040000128EAD185F8407001E085F841709E
:1042C00001222146286801F08DFD2868404501D073
:1042D000B04203D1426C42F4004242642868404537
:1042E00010D0B0F1804F0DD048450BD0504509D0CB
:1042F000584507D0B04205D00D49884202D00F4939
:10430000884204D1816801F00701062903D00168C1
:1043100041F0010101600020B9E700000000014008
:104320000004004000080040000C00400004014070
:104330000040014000440140004801400018004096
:10434000001C0040002000402E2E2F44726976652C
:1043500072732F53544D3332463478785F48414C52
:104360005F4472697665722F5372632F73746D3375
:1043700032663478785F68616C5F74696D2E6300B3
:1043800010B5044600680B49884201D1FDF728FEAC
:10439000094884420DD109490868401E0860002878
:1043A00007DC0023BDE810401A4619461846FCF702
:1043B000BBBA10BD00140040D80700201C0000202C
:1043C0002DE9F04704463E4A3E4B3F4D3F4E404F9D
:1043D000DFF800C1DFF8009100204FF08048D9B12C
:1043E00004293ED0082955D00C2913D120689042C9
:1043F0000ED040450CD098420AD0A84208D0B04216
:1044000006D0B84204D041F2E25134A002F0C6FB1B
:104410002068006CBDE8F087206890421ED04045BF
:104420001CD098421AD0A84218D0B04216D0B84238
:1044300014D0604512D0374988420FD0364988429F
:104440000CD048450AD03549884207D034498842C3
:1044500004D041F2C25121A002F0A0FB2068406BC1
:10446000D8E72068904212D0404510D098420ED034
:10447000A8420CD0B0420AD0B84208D0604506D05D
:10448000484504D041F2CC5114A002F087FB2068CB
:10449000806BBFE7206890420ED040450CD0984218
:1044A0000AD0A84208D0B04206D0B84204D041F2A7
:1044B000D7510AA002F072FB2068C06BAAE7000087
:1044C000000001400004004000080040000C0040D3
:1044D0000004014000400140001800402E2E2F44EF
:1044E0007269766572732F53544D3332463478783F
:1044F0005F48414C5F4472697665722F5372632F37
:1045000073746D3332663478785F68616C5F746998
:104510006D2E63000044014000480140001C004033
:104520000020004070B50D460446006835498842B9
:1045300019D0B0F1804F16D03349884213D0334997
:10454000884210D0324988420DD0324988420AD080
:104550003149884207D03149884204D041F269513B
:104560002FA002F01BFB286860B104280AD00528A0
:1045700008D0062806D0072804D041F26A5128A0A6
:1045800002F00CFB686890B1102810D020280ED0E3
:1045900030280CD040280AD0502808D0602806D0F7
:1045A000702804D041F26B511DA002F0F7FA94F884
:1045B0003C00012813D0012684F83C60022084F8D6
:1045C0003D002946204601F049FE01004FF0000061
:1045D00007D084F83D6084F83C00012070BD0220C3
:1045E00070BD2168CA6822F04002CA602168CA68AA
:1045F00022F48042CA6084F83D6084F83C000020C8
:1046000070BD0000000001400004004000080040B0
:10461000000C004000040140004001400018004030
:104620002E2E2F447269766572732F53544D333298
:10463000463478785F48414C5F4472697665722FE2
:104640005372632F73746D3332663478785F6861A8
:104650006C5F74696D2E63007047704710B5044637
:104660000068406994F83D10C0F3C010212911D1B1
:1046700080B12068143050E8001F21F0800140E82C
:104680000012002AF5D1606B08B1FCF7B0FF20469C
:1046900002F071F82068406994F83E10C0F3801071
:1046A000222911D180B12068143050E8001F21F078
:1046B000400140E80012002AF5D1A06B08B1FCF7D8
:1046C00096FF204602F030F8002010BD7047000031
:1046D000F8B5016804460868CA684B6910F00F0F06
:1046E0004FF0000559D003F0010602F490773743EC
:1046F00065D0C10705D0D10503D5216C41F001017A
:104700002164410705D5D90703D0216C41F002018E
:104710002164810705D5D90703D0216C41F004013C
:104720002164010707D502F02001314303D0216C39
:1047300041F008012164216C00293AD0800604D59B
:10474000900602D5204602F024F820684069216CCA
:10475000C0F38010090700D460B3204601F0E4FFE5
:1047600020684069400621D52068143050E8001FB9
:1047700021F0400140E80012002AF5D1A06BA8B159
:104780006C490165A06BFCF77BFF002811D0A06B82
:10479000016D01B0BDE8F040084783060FD59306D0
:1047A0000DD52046BDE8F84001F0F3BF2046FFF7E5
:1047B0008DFFF8BD2046FFF789FF2564F8BD266B05
:1047C0002023012E79D1C60677D5D60675D508687F
:1047D000486800904869400640D5A16B0868406869
:1047E0000004000CEAD0A28D8242E7D9E085C869B6
:1047F000B0F5807F2DD020680C3050E8001F21F4E8
:10480000807140E80012002AF5D12068143050E889
:10481000001F21F0010140E80012002AF5D12068B4
:10482000143050E8001F21F0400140E80012002A37
:10483000F5D184F83E30256320680C3050E8001F25
:1048400021F0100140E80012002AF5D1A06BFCF71E
:10485000CEFEA08DE18D401A81B229E0A08DE18DC0
:10486000401A81B2E08D0028A8D00029A6D0206887
:104870000C3050E8002F22F4907240E80026002E01
:10488000F5D12068143050E8002F22F0010240E8F2
:104890000026002EF5D184F83E30256320680C30C8
:1048A00050E8002F22F0100240E80023002BF5D141
:1048B0002046FFF7D2FEF8BDFFE705062BD515060B
:1048C00029D594F83D002128F5D1A068B0F5805F86
:1048D00001D12069B0B1206A411C216221680078B1
:1048E0004860E08C401E0004000CE084E3D12068A6
:1048F000C16821F08001C1602068C16841F04001B9
:10490000C160D8E7206A0088C0F308004860206AC8
:10491000801C2062E5E74006CDD55006CBD5CA689D
:10492000204622F04002CA6084F83D3000F02BF9A6
:10493000C1E700003366000870B5040023D0A06909
:104940003B4900283B4A3C4B3C4D20681DD08842E7
:104950000CD090420AD0984208D0A84206D040F22B
:10496000731137A002F01AF9A06908B3A069B0F575
:10497000807F1DD0B0F5007F1AD0B0F5407F17D0F2
:104980004FF4BA7111E0012070BD884210D09042FE
:104990000ED098420CD03949884209D03849884213
:1049A00006D0A84204D04FF4BC7125A002F0F6F85E
:1049B000A06838B1B0F5805F04D04FF4BD7120A07D
:1049C00002F0ECF8E06938B1B0F5004F04D040F2E5
:1049D0007B111BA002F0E2F894F83D00002520B9FD
:1049E00084F83C50204600F04DF8242084F83D0027
:1049F0002068C16821F40051C160204601F02AFFFF
:104A00002068016921F4904101612068416921F029
:104A10002A0141612068C16841F40051C1602564E8
:104A2000202084F83D0084F83E00002070BD000086
:104A300000100140004400400048004000140140C4
:104A40002E2E2F447269766572732F53544D333274
:104A5000463478785F48414C5F4472697665722FBE
:104A60005372632F73746D3332663478785F686184
:104A70006C5F756172742E6300000000004C004092
:104A8000005000402DE9F04786B0064614216846E4
:104A9000FBF742FC2B493068884250D12A48002558
:104AA000016841F480210160006800F480200590D5
:104AB00025481038016841F00801016000684FF492
:104AC000807700F008004FF007090097CDE90490C7
:104AD00001AA02244FF00308DFF870A082E8300139
:104AE00069465046FDF782F82002CDE9000402AA8B
:104AF000012082E8010369465046FDF777F8154C1E
:104B000013482060F804C4E901054014C4E90350C7
:104B10006561C4E906574FF44030C4E908052046F2
:104B2000FCF790FE08B1FBF77CFFB463002205217F
:104B30002720A663FDF710FB2720FDF7DBFA06B060
:104B4000BDE8F0870048004040380240000C0240B9
:104B500028600240F408002090F83E30202B0ED14F
:104B600059B152B190F83C30012B08D0012380F8A4
:104B70003C300023036301F03DBF01207047022059
:104B80007047704770477047FEE70000104810B547
:104B90000E4901600321416000214FF40022816031
:104BA000C0E903124FF440124261017601224276BD
:104BB0008176C17601774177FCF7FCFA002803D0B3
:104BC000BDE81040FBF72DBF10BD000000640040A1
:104BD00084060020094808B5016841F4001101600D
:104BE0000068002200F40010009005210C20FDF761
:104BF000B3FABDE808400C20FDF77CBA303802401B
:104C000010B5A4B01C221C496846FBF76CFB0021C0
:104C1000684602F0A7FA194C17491C2220631C3180
:104C200007A8FBF760FB002107A802F09BFA1249D6
:104C300060631C2238310EA8FBF755FB00210EA83B
:104C400002F090FA0C49A0631C22543115A8FBF71E
:104C50004AFB002115A802F085FA0749E0631C22EF
:104C600070311CA8FBF73FFB00211CA802F07AFA68
:104C7000206424B010BD0000F47E0008280000204D
:104C800070B586B014216846FBF746FB4048002407
:104C9000016841F010010160016801F01001059107
:104CA000016841F004010160016801F0040105910F
:104CB000016841F020010160016801F020010591C7
:104CC000016841F080010160016801F080010591F7
:104CD000016841F001010160016801F001010591E5
:104CE000016841F002010160016801F002010591D3
:104CF000016841F040010160016801F04001059147
:104D0000016841F0080101600068032500F0080017
:104D1000059049F6DF70CDE90005694602941D480B
:104D2000FCF764FF4FF63F70CDE900056946029439
:104D30001948FCF75BFF4FF6FF760096CDE901546A
:104D400069461648FCF752FF49F6FF60CDE90005B9
:104D5000694602941248FCF749FF4FF2EF30CDE963
:104D60000005694602940F48FCF740FF0096CDE924
:104D7000015469460C48FCF739FF42F6FC40CDE986
:104D80000005694602940948FCF730FF06B070BD83
:104D90003038024000100240000802400014024077
:104DA000000002400004024000180240000C0240D3
:104DB000094810B5074901600021416040F6FF71C4
:104DC0008160FDF797F8002803D0BDE81040FBF79D
:104DD00028BE10BD00300040AC06002010B596B0D3
:104DE00000240F9410941194129413941C2168467B
:104DF0001494FBF791FA202107A8FBF78DFA3048AD
:104E00002E4901605321C0E9011440F2E731C0E9A5
:104E1000031444618461FDF77DFF08B1FBF701FED7
:104E20004FF480500F900FA92548FEF74BF908B1B9
:104E3000FBF7F7FD2248FFF7FBF808B1FBF7F1FDA0
:104E4000139413A91E481494FDF7BCFE08B1FBF798
:104E5000E8FD6020CDE900040294039404940594D5
:104E60000022694616480694FEF7AEFF08B1FBF72C
:104E7000D8FD082269461248FEF7A6FF08B1FBF7E5
:104E8000D0FD0C2269460E48FEF79EFF08B1FBF7E5
:104E9000C8FD0794089409944FF400500A94CDE992
:104EA0000B4007A906480E94FDF7E8FD08B1FBF793
:104EB000B8FD0348FEF7EEFE16B010BD000001403D
:104EC000B806002010B58EB0002407940894099409
:104ED0000A940B941C2168460C94FBF71DFA224897
:104EE0004FF0804101605321C0E9011442F20F717B
:104EF000C0E9031480218161FDF70CFF08B1FBF7C5
:104F000090FD4FF48050079007A91748FEF7DAF894
:104F100008B1FBF786FD1448FFF78AF808B1FBF7E4
:104F200080FD0B940BA910480C94FDF74BFE08B1C3
:104F3000FBF777FD6020CDE9000402940822694662
:104F400009480494FEF740FF08B1FBF76AFD0C2204
:104F500069460548FEF738FF08B1FBF762FD0248D5
:104F6000FEF798FE0EB010BD0007002030B58FB0E0
:104F7000002409940A940B94142104A80C94FBF7C0
:104F8000CBF92C4803940094019402940D94284981
:104F900001250E94C0E900154FF6FF71C0E90241EA
:104FA00004618461FDF7B6FE08B1FBF73AFD4FF4EA
:104FB0008050099009A91F48FEF784F808B1FBF753
:104FC00030FD1C48FEF7E4FB08B1FBF72AFD042086
:104FD00004905020CDE90504079404A915480894CD
:104FE000FFF7A0FA08B1FBF71CFDCDE900450294DC
:104FF000002269460F480394FEF76EFA08B1FBF7EA
:1050000010FD022000900190042269460948FEF735
:1050100063FA08B1FBF705FD0D940DA905480E9440
:10502000FDF7D0FD002801D0FBF7FBFC0FB030BD31
:10503000000400404807002010B58EB000240794FB
:10504000089409940A940B941C2168460C94FBF76D
:1050500063F92748254901605321C0E9011442F250
:105060000F71C0E9031480218161FDF753FE08B17F
:10507000FBF7D7FC4FF48050079007A91C48FEF7B8
:1050800021F808B1FBF7CDFC1948FEF7D1FF08B1B4
:10509000FBF7C7FC0B940BA915480C94FDF792FD88
:1050A00008B1FBF7BEFC6020CDE9000402940022A9
:1050B00069460F480494FEF787FE08B1FBF7B1FC80
:1050C000082269460A48FEF77FFE08B1FBF7A9FCF3
:1050D0000C2269460648FEF777FE08B1FBF7A1FCF3
:1050E0000348FEF7D7FD0EB010BD000000080040D9
:1050F000900700201CB500240E4800940C49019430
:1051000001605321C0E9011442F20F718461C16052
:10511000FDF700FE08B1FBF784FC009469460548E2
:105120000194FDF74FFD002801D0FBF77AFC1CBD70
:1051300000100040D807002010B596B000240F944E
:1051400010941194129413941C2168461494FBF744
:10515000E3F8202107A8FBF7DFF82C482A49016073
:105160005321C0E9011442F20F71C0E903144461F4
:105170008461FDF7CFFD08B1FBF753FC4FF480507D
:105180000F900FA92148FDF79DFF08B1FBF749FCDF
:105190001E48FEF74DFF08B1FBF743FC139413A91B
:1051A0001A481494FDF70EFD08B1FBF73AFC602095
:1051B000CDE9000402940394049405940022694606
:1051C00012480694FEF700FE08B1FBF72AFC042201
:1051D00069460E48FEF7F8FD08B1FBF722FC07947C
:1051E000089409944FF400500A94CDE90B4007A9A4
:1051F00006480E94FDF742FC08B1FBF712FC034889
:10520000FEF748FD16B010BD000401402008002044
:1052100010B58CB000240794089409941C216846AA
:105220000A94FBF779F81A48184901605321C0E93C
:10523000011442F20F71C0E9031480218161FDF76E
:1052400069FD08B1FBF7EDFB4FF48050079007A90B
:105250000F48FDF737FF08B1FBF7E3FB0C48FEF7FB
:10526000E7FE08B1FBF7DDFB6020CDE90004029406
:105270000022694606480494FEF7A6FD08B1FBF734
:10528000D0FB0348FEF706FD0CB010BD0040014006
:10529000680800200C4810B50A4901604FF4E1315C
:1052A0004160002181600C22C160C0E9041281616B
:1052B000C161FFF741FB002803D0BDE81040FBF7B8
:1052C000B0BB10BD00480040B0080020FEE7FDF76D
:1052D00071F9FEE770B515460C00064603D117219B
:1052E00008A001F05BFC094906EB460001EB8000D9
:1052F00000210460C0E9015129462046BDE8704004
:10530000FEF750BF7069636B2E630000300300200E
:1053100070B51F49C0EB001001EB80052DED028B2D
:1053200004216868FFF74CF8441C00216868FFF707
:1053300047F8401CFBF766F941EC180B2046FBF7D9
:1053400061F99FED141B53EC112BFBF77AF853EC2A
:10535000182BFBF7E8F8FBF785F900EE100ADFEDF4
:10536000100A0E48104980EE201ADFED0E0A80ED7B
:10537000000A21EE200A9FED0D1A10EE100A884255
:1053800001DC30EE200ABDEC028B30EE410A70BD2C
:105390006C030020000000000000594018000020AD
:1053A0000000C8420000B44300009B4300009B4340
:1053B0002DE9F0411F462DED048B90B0B0EE418AEF
:1053C000DDF86880F0EE608AB0EE409A15460E0077
:1053D000044603D13D2118A001F0E0FB1DB93E2198
:1053E00015A001F0DBFB1649C4EB041001EB8004AF
:1053F0003C216846FAF790FF9FED120A01A800963B
:10540000C8EE800A80E8A00128EE000A8DED0C9A13
:105410003C2269462046CDED0D0A8DED0E0AFAF7C5
:1054200062FF012104F11800FBF74EFA10B0BDEC49
:10543000048BBDE8F081000070697463682E63001E
:105440006C03002000004843454F2DED028B9FED7B
:10545000458ADFF814A1DFED458A454D454C4FF0F4
:10546000FF3900264FF00108434801F087FC3868F7
:10547000002871DD68687F3800EB8000800000EE56
:10548000100A3E48B8EEC00A80ED000A28687F384E
:1054900000EB8000800000EE100A3948B8EEC00A28
:1054A00080ED000AE8687F3800EB8000800000EEA5
:1054B000100A3448B8EEC00A80ED000A2E48C079C0
:1054C00001F01FFE00EE100AB8EEC00A84ED020AD9
:1054D000A868962802DD2661E66221E05A280BDAE8
:1054E000C4F81080E06A414668B984ED028A6068B9
:1054F000504515DCE16213E05B383B2810D2C4F85C
:105500001090E06A10B1012808D009E084ED028A09
:105510006068504504DCC4F82C8001E0C4ED028AC8
:105520002869962802DDC4F81C9008E05A2802DA9F
:10553000C4F81C8003E05B383B2800D2E661A86910
:105540007F2801DBA66103E05A2801DAC4F818803D
:10555000686901F0C1FDE0600A2001F0F7FD83E712
:105560001C000020000007430000094300000C431A
:105570001004002028000020200000200C00002043
:105580001000002014000020FC4808B500F10C05B4
:1055900000F1180400F12409DFF8DC83303042F216
:1055A000107A41F6583B0090D8F8000000287DDBC7
:1055B000F34F386920B1012879D0411C78D038E206
:1055C0007869012801D0401C2FD1B86A01282CD15C
:1055D0004FF42F76A968AAEB060081420AD06968C9
:1055E00051B304292DD0082930D02968421E0968FA
:1055F0000A64A860A16806EB0B0081420AD06168CA
:1056000049B304292CD008292FD02168421E0968EB
:105610000A64A0604FF4FA7001F098FD40F2262071
:10562000323E8642D6DA0020B862F969481C6BD057
:10563000386A401C1ED051E02A68411E126851632E
:10564000D7E72A68411E12689163D2E72A68411E93
:105650001268D163CDE72168421E09684A63D8E722
:105660002268411E12689163D3E72268411E1268C6
:10567000D163CEE74FF42F76A968AAEB06008142EA
:105680000BD06968F1B3042956D008292968A0F124
:105690000102096855D00A64A860A16806EB0B00F6
:1056A00081420FD0616871B3042902E02BE2DDE092
:1056B00078E14ED008292168A0F1010209684DD097
:1056C0000A64A0604FF4FA7001F040FD40F2262019
:1056D000323E8642D0DA3868401C3860A96842F20F
:1056E000125081420BD0696891B304293ED02A68D8
:1056F000082942F2115112683FD01164A86041F6A6
:10570000565002E013E01EE047E0A16881420BD052
:10571000616889B3042938D02268082941F65551B7
:10572000126838D01164A060F869386258E02968BE
:10573000421E09684A63AFE72A68411E12689163F6
:10574000AAE7CA63A8E72268411E12685163B8E756
:1057500006E02268411E12689163B2E7CA63B0E7AF
:105760002A6842F2115112685163C7E72A6842F26F
:10577000115112689163C1E701E0D163BEE722686D
:1057800041F6555112685163CDE7226841F65551F3
:1057900012689163C7E7D163C5E7AA6842F2620065
:1057A00082420BD06A68FAB1042A23D02B68082AF7
:1057B00042F261021B6823D01A64A860A26842F218
:1057C000062082420BD06268E2B1042A20D023680E
:1057D000082A42F205221B6820D01A64A0603962B0
:1057E000786A01281CD031E02A6842F2610312680D
:1057F0005363E2E72B6842F261021B689A63DCE7BD
:10580000DA63DAE7236842F205221B685A63E5E7A8
:10581000236842F205221B689A63DFE7DA63DDE75B
:10582000D9F8082042F2085148468A420CD0426812
:1058300072B1042A12D00368082A42F207521B6888
:1058400012D01A64C9F8081000207862002084E0A1
:10585000036842F207521B685A63F3E7036842F297
:1058600007521B689A63EDE7DA63EBE70020F86004
:105870007869401C70D1A96841F6E66081420BD07E
:10588000696811B3042926D02A68082941F6E56120
:10589000126826D01164A860A16842F28230814269
:1058A0000BD06168F9B1042923D02268082942F29B
:1058B0008131126823D01164A0604FF42F7001F081
:1058C00045FC786A01281CD030E02A6841F6E56181
:1058D00012685163DFE72A6841F6E5611268916357
:1058E000D9E7D163D7E7226842F281311268516368
:1058F000E2E7226842F2813112689163DCE7D1630A
:10590000DAE7D9F8082042F2085148468A420DD019
:1059100042682AB3042A29D00368082A42F20752AF
:105920001B682FD0C3F84020C9F808104FF4FA7054
:1059300001F00CFC009842F2B84182688A420BD018
:1059400042680AB3042A25D00368082A42F2B74203
:105950001B6825D01A6481600120B862386967E04D
:10596000036842F207521B685A63DDE7036842F29C
:1059700007521B689A63D7E71C0000203003002001
:1059800028000020DA63CFE7036842F2B7421B68C1
:105990005A63E0E7036842F2B7421B689A63DAE7AA
:1059A000DA63D8E7796A012901D039B340E079692F
:1059B000491C3DD0D9F8082042F208514B468A4292
:1059C0000CD05A6862B1042A10D01E68082A42F22C
:1059D0000752366810D03264C9F80810002126E05A
:1059E0001E6842F2075236687263F5E71E6842F29B
:1059F00007523668B263EFE7F263EDE77969491C55
:105A000016D0D9F8081042F234124B4691420DD00C
:105A1000596899B1042917D01E68082942F2331138
:105A2000366817D0C6F84010C9F8082001217962FD
:105A30007861F86980B1012830D024E01E6842F214
:105A4000331136687163EFE71E6842F2331136682E
:105A5000B163E9E7F163E7E73869012813D0401C37
:105A600011D0009842F2B84182688A420BD0426855
:105A700072B1042A0FD0082A42F2B74221D003683B
:105A80001B681A648160B86958B3012845D03AE0B0
:105A900042F2B7421BE042F2B7421EE038690128E9
:105AA000F1D0401CEFD0009842F2602182688A4217
:105AB000E9D042684AB1042A0DD0082A42F25F2296
:105AC000DDD103681B68DA63DCE742F25F2203681A
:105AD0001B685A63D6E742F25F2203681B689A6329
